{
	"AuctionWithIntermediary.sol": {
		"AuctionWithIntermediary": {
			"abi": [
				{
					"inputs": [
						{
							"internalType": "string",
							"name": "_auctionDesc",
							"type": "string"
						},
						{
							"internalType": "uint256",
							"name": "_minimumBid",
							"type": "uint256"
						},
						{
							"internalType": "uint256",
							"name": "_auctionDays",
							"type": "uint256"
						}
					],
					"stateMutability": "nonpayable",
					"type": "constructor"
				},
				{
					"inputs": [],
					"name": "approvePayment",
					"outputs": [],
					"stateMutability": "nonpayable",
					"type": "function"
				},
				{
					"inputs": [],
					"name": "approvedByIntermediary",
					"outputs": [
						{
							"internalType": "bool",
							"name": "",
							"type": "bool"
						}
					],
					"stateMutability": "view",
					"type": "function"
				},
				{
					"inputs": [],
					"name": "approvedByOwner",
					"outputs": [
						{
							"internalType": "bool",
							"name": "",
							"type": "bool"
						}
					],
					"stateMutability": "view",
					"type": "function"
				},
				{
					"inputs": [],
					"name": "approvedByWinner",
					"outputs": [
						{
							"internalType": "bool",
							"name": "",
							"type": "bool"
						}
					],
					"stateMutability": "view",
					"type": "function"
				},
				{
					"inputs": [],
					"name": "auctionDeadline",
					"outputs": [
						{
							"internalType": "uint256",
							"name": "",
							"type": "uint256"
						}
					],
					"stateMutability": "view",
					"type": "function"
				},
				{
					"inputs": [
						{
							"internalType": "uint256",
							"name": "_value",
							"type": "uint256"
						}
					],
					"name": "bid",
					"outputs": [],
					"stateMutability": "nonpayable",
					"type": "function"
				},
				{
					"inputs": [],
					"name": "collectedByOwner",
					"outputs": [
						{
							"internalType": "bool",
							"name": "",
							"type": "bool"
						}
					],
					"stateMutability": "view",
					"type": "function"
				},
				{
					"inputs": [],
					"name": "getBalance",
					"outputs": [
						{
							"internalType": "uint256",
							"name": "",
							"type": "uint256"
						}
					],
					"stateMutability": "view",
					"type": "function"
				},
				{
					"inputs": [],
					"name": "intermediary",
					"outputs": [
						{
							"internalType": "address",
							"name": "",
							"type": "address"
						}
					],
					"stateMutability": "view",
					"type": "function"
				},
				{
					"inputs": [],
					"name": "minimumBid",
					"outputs": [
						{
							"internalType": "uint256",
							"name": "",
							"type": "uint256"
						}
					],
					"stateMutability": "view",
					"type": "function"
				},
				{
					"inputs": [],
					"name": "noOfBids",
					"outputs": [
						{
							"internalType": "uint256",
							"name": "",
							"type": "uint256"
						}
					],
					"stateMutability": "view",
					"type": "function"
				},
				{
					"inputs": [],
					"name": "noOfParticipants",
					"outputs": [
						{
							"internalType": "uint256",
							"name": "",
							"type": "uint256"
						}
					],
					"stateMutability": "view",
					"type": "function"
				},
				{
					"inputs": [],
					"name": "owner",
					"outputs": [
						{
							"internalType": "address",
							"name": "",
							"type": "address"
						}
					],
					"stateMutability": "view",
					"type": "function"
				},
				{
					"inputs": [],
					"name": "ownerVoted",
					"outputs": [
						{
							"internalType": "bool",
							"name": "",
							"type": "bool"
						}
					],
					"stateMutability": "view",
					"type": "function"
				},
				{
					"inputs": [],
					"name": "paidByWinner",
					"outputs": [
						{
							"internalType": "bool",
							"name": "",
							"type": "bool"
						}
					],
					"stateMutability": "view",
					"type": "function"
				},
				{
					"inputs": [],
					"name": "payBid",
					"outputs": [],
					"stateMutability": "payable",
					"type": "function"
				},
				{
					"inputs": [
						{
							"internalType": "address",
							"name": "_intermediary",
							"type": "address"
						},
						{
							"internalType": "uint256",
							"name": "_comission",
							"type": "uint256"
						}
					],
					"name": "setIntermediary",
					"outputs": [],
					"stateMutability": "nonpayable",
					"type": "function"
				},
				{
					"inputs": [
						{
							"internalType": "bool",
							"name": "_vote",
							"type": "bool"
						}
					],
					"name": "voteOwner",
					"outputs": [],
					"stateMutability": "nonpayable",
					"type": "function"
				},
				{
					"inputs": [
						{
							"internalType": "bool",
							"name": "_vote",
							"type": "bool"
						}
					],
					"name": "voteWinner",
					"outputs": [],
					"stateMutability": "nonpayable",
					"type": "function"
				},
				{
					"inputs": [],
					"name": "winner",
					"outputs": [
						{
							"internalType": "address",
							"name": "",
							"type": "address"
						}
					],
					"stateMutability": "view",
					"type": "function"
				},
				{
					"inputs": [],
					"name": "winnerVoted",
					"outputs": [
						{
							"internalType": "bool",
							"name": "",
							"type": "bool"
						}
					],
					"stateMutability": "view",
					"type": "function"
				},
				{
					"inputs": [],
					"name": "winningBid",
					"outputs": [
						{
							"internalType": "uint256",
							"name": "",
							"type": "uint256"
						}
					],
					"stateMutability": "view",
					"type": "function"
				},
				{
					"inputs": [],
					"name": "withdraw",
					"outputs": [],
					"stateMutability": "nonpayable",
					"type": "function"
				}
			],
			"devdoc": {
				"kind": "dev",
				"methods": {},
				"version": 1
			},
			"evm": {
				"assembly": "    /* \"AuctionWithIntermediary.sol\":65:5031  contract AuctionWithIntermediary {... */\n  mstore(0x40, 0x80)\n    /* \"AuctionWithIntermediary.sol\":1602:2249  constructor(string memory _auctionDesc, uint _minimumBid, uint _auctionDays) {... */\n  callvalue\n  dup1\n  iszero\n  tag_1\n  jumpi\n  0x00\n  dup1\n  revert\ntag_1:\n  pop\n  mload(0x40)\n  sub(codesize, bytecodeSize)\n  dup1\n  bytecodeSize\n  dup4\n  codecopy\n  dup2\n  dup2\n  add\n  0x40\n  mstore\n  dup2\n  add\n  swap1\n  tag_2\n  swap2\n  swap1\n  tag_3\n  jump\t// in\ntag_2:\n    /* \"AuctionWithIntermediary.sol\":1711:1723  _auctionDesc */\n  dup3\n    /* \"AuctionWithIntermediary.sol\":1690:1708  auctionDescription */\n  0x03\n    /* \"AuctionWithIntermediary.sol\":1690:1723  auctionDescription = _auctionDesc */\n  swap1\n  dup2\n  tag_6\n  swap2\n  swap1\n  tag_7\n  jump\t// in\ntag_6:\n  pop\n    /* \"AuctionWithIntermediary.sol\":1747:1758  _minimumBid */\n  dup2\n    /* \"AuctionWithIntermediary.sol\":1734:1744  minimumBid */\n  0x04\n    /* \"AuctionWithIntermediary.sol\":1734:1758  minimumBid = _minimumBid */\n  dup2\n  swap1\n  sstore\n  pop\n    /* \"AuctionWithIntermediary.sol\":1805:1817  _auctionDays */\n  dup1\n    /* \"AuctionWithIntermediary.sol\":1787:1802  block.timestamp */\n  timestamp\n    /* \"AuctionWithIntermediary.sol\":1787:1817  block.timestamp + _auctionDays */\n  tag_8\n  swap2\n  swap1\n  tag_9\n  jump\t// in\ntag_8:\n    /* \"AuctionWithIntermediary.sol\":1769:1784  auctionDeadline */\n  0x08\n    /* \"AuctionWithIntermediary.sol\":1769:1817  auctionDeadline = block.timestamp + _auctionDays */\n  dup2\n  swap1\n  sstore\n  pop\n    /* \"AuctionWithIntermediary.sol\":1836:1846  msg.sender */\n  caller\n    /* \"AuctionWithIntermediary.sol\":1828:1833  owner */\n  0x00\n  dup1\n    /* \"AuctionWithIntermediary.sol\":1828:1846  owner = msg.sender */\n  0x0100\n  exp\n  dup2\n  sload\n  dup2\n  0xffffffffffffffffffffffffffffffffffffffff\n  mul\n  not\n  and\n  swap1\n  dup4\n  0xffffffffffffffffffffffffffffffffffffffff\n  and\n  mul\n  or\n  swap1\n  sstore\n  pop\n    /* \"AuctionWithIntermediary.sol\":1881:1882  0 */\n  0x00\n    /* \"AuctionWithIntermediary.sol\":1857:1878  intermediaryComission */\n  0x07\n    /* \"AuctionWithIntermediary.sol\":1857:1882  intermediaryComission = 0 */\n  dup2\n  swap1\n  sstore\n  pop\n    /* \"AuctionWithIntermediary.sol\":1906:1916  minimumBid */\n  sload(0x04)\n    /* \"AuctionWithIntermediary.sol\":1893:1903  winningBid */\n  0x05\n    /* \"AuctionWithIntermediary.sol\":1893:1916  winningBid = minimumBid */\n  dup2\n  swap1\n  sstore\n  pop\n    /* \"AuctionWithIntermediary.sol\":1946:1947  0 */\n  0x00\n    /* \"AuctionWithIntermediary.sol\":1927:1943  noOfParticipants */\n  0x09\n    /* \"AuctionWithIntermediary.sol\":1927:1947  noOfParticipants = 0 */\n  dup2\n  swap1\n  sstore\n  pop\n    /* \"AuctionWithIntermediary.sol\":1969:1970  0 */\n  0x00\n    /* \"AuctionWithIntermediary.sol\":1958:1966  noOfBids */\n  0x06\n    /* \"AuctionWithIntermediary.sol\":1958:1970  noOfBids = 0 */\n  dup2\n  swap1\n  sstore\n  pop\n    /* \"AuctionWithIntermediary.sol\":1999:2004  false */\n  0x00\n    /* \"AuctionWithIntermediary.sol\":1981:1996  approvedByOwner */\n  0x0b\n  0x00\n    /* \"AuctionWithIntermediary.sol\":1981:2004  approvedByOwner = false */\n  0x0100\n  exp\n  dup2\n  sload\n  dup2\n  0xff\n  mul\n  not\n  and\n  swap1\n  dup4\n  iszero\n  iszero\n  mul\n  or\n  swap1\n  sstore\n  pop\n    /* \"AuctionWithIntermediary.sol\":2034:2039  false */\n  0x00\n    /* \"AuctionWithIntermediary.sol\":2015:2031  approvedByWinner */\n  0x0b\n  0x01\n    /* \"AuctionWithIntermediary.sol\":2015:2039  approvedByWinner = false */\n  0x0100\n  exp\n  dup2\n  sload\n  dup2\n  0xff\n  mul\n  not\n  and\n  swap1\n  dup4\n  iszero\n  iszero\n  mul\n  or\n  swap1\n  sstore\n  pop\n    /* \"AuctionWithIntermediary.sol\":2063:2068  false */\n  0x00\n    /* \"AuctionWithIntermediary.sol\":2050:2060  ownerVoted */\n  0x0b\n  0x02\n    /* \"AuctionWithIntermediary.sol\":2050:2068  ownerVoted = false */\n  0x0100\n  exp\n  dup2\n  sload\n  dup2\n  0xff\n  mul\n  not\n  and\n  swap1\n  dup4\n  iszero\n  iszero\n  mul\n  or\n  swap1\n  sstore\n  pop\n    /* \"AuctionWithIntermediary.sol\":2093:2098  false */\n  0x00\n    /* \"AuctionWithIntermediary.sol\":2079:2090  winnerVoted */\n  0x0b\n  0x03\n    /* \"AuctionWithIntermediary.sol\":2079:2098  winnerVoted = false */\n  0x0100\n  exp\n  dup2\n  sload\n  dup2\n  0xff\n  mul\n  not\n  and\n  swap1\n  dup4\n  iszero\n  iszero\n  mul\n  or\n  swap1\n  sstore\n  pop\n    /* \"AuctionWithIntermediary.sol\":2124:2129  false */\n  0x00\n    /* \"AuctionWithIntermediary.sol\":2109:2121  paidByWinner */\n  0x0b\n  0x04\n    /* \"AuctionWithIntermediary.sol\":2109:2129  paidByWinner = false */\n  0x0100\n  exp\n  dup2\n  sload\n  dup2\n  0xff\n  mul\n  not\n  and\n  swap1\n  dup4\n  iszero\n  iszero\n  mul\n  or\n  swap1\n  sstore\n  pop\n    /* \"AuctionWithIntermediary.sol\":2165:2170  false */\n  0x00\n    /* \"AuctionWithIntermediary.sol\":2140:2162  approvedByIntermediary */\n  0x0b\n  0x05\n    /* \"AuctionWithIntermediary.sol\":2140:2170  approvedByIntermediary = false */\n  0x0100\n  exp\n  dup2\n  sload\n  dup2\n  0xff\n  mul\n  not\n  and\n  swap1\n  dup4\n  iszero\n  iszero\n  mul\n  or\n  swap1\n  sstore\n  pop\n    /* \"AuctionWithIntermediary.sol\":2200:2205  false */\n  0x00\n    /* \"AuctionWithIntermediary.sol\":2181:2197  collectedByOwner */\n  0x0b\n  0x06\n    /* \"AuctionWithIntermediary.sol\":2181:2205  collectedByOwner = false */\n  0x0100\n  exp\n  dup2\n  sload\n  dup2\n  0xff\n  mul\n  not\n  and\n  swap1\n  dup4\n  iszero\n  iszero\n  mul\n  or\n  swap1\n  sstore\n  pop\n    /* \"AuctionWithIntermediary.sol\":2239:2240  0 */\n  0x00\n    /* \"AuctionWithIntermediary.sol\":2216:2228  intermediary */\n  0x02\n  0x00\n    /* \"AuctionWithIntermediary.sol\":2216:2241  intermediary = address(0) */\n  0x0100\n  exp\n  dup2\n  sload\n  dup2\n  0xffffffffffffffffffffffffffffffffffffffff\n  mul\n  not\n  and\n  swap1\n  dup4\n  0xffffffffffffffffffffffffffffffffffffffff\n  and\n  mul\n  or\n  swap1\n  sstore\n  pop\n    /* \"AuctionWithIntermediary.sol\":1602:2249  constructor(string memory _auctionDesc, uint _minimumBid, uint _auctionDays) {... */\n  pop\n  pop\n  pop\n    /* \"AuctionWithIntermediary.sol\":65:5031  contract AuctionWithIntermediary {... */\n  jump(tag_10)\n    /* \"#utility.yul\":7:82   */\ntag_11:\n    /* \"#utility.yul\":40:46   */\n  0x00\n    /* \"#utility.yul\":73:75   */\n  0x40\n    /* \"#utility.yul\":67:76   */\n  mload\n    /* \"#utility.yul\":57:76   */\n  swap1\n  pop\n    /* \"#utility.yul\":7:82   */\n  swap1\n  jump\t// out\n    /* \"#utility.yul\":88:205   */\ntag_12:\n    /* \"#utility.yul\":197:198   */\n  0x00\n    /* \"#utility.yul\":194:195   */\n  dup1\n    /* \"#utility.yul\":187:199   */\n  revert\n    /* \"#utility.yul\":211:328   */\ntag_13:\n    /* \"#utility.yul\":320:321   */\n  0x00\n    /* \"#utility.yul\":317:318   */\n  dup1\n    /* \"#utility.yul\":310:322   */\n  revert\n    /* \"#utility.yul\":334:451   */\ntag_14:\n    /* \"#utility.yul\":443:444   */\n  0x00\n    /* \"#utility.yul\":440:441   */\n  dup1\n    /* \"#utility.yul\":433:445   */\n  revert\n    /* \"#utility.yul\":457:574   */\ntag_15:\n    /* \"#utility.yul\":566:567   */\n  0x00\n    /* \"#utility.yul\":563:564   */\n  dup1\n    /* \"#utility.yul\":556:568   */\n  revert\n    /* \"#utility.yul\":580:682   */\ntag_16:\n    /* \"#utility.yul\":621:627   */\n  0x00\n    /* \"#utility.yul\":672:674   */\n  0x1f\n    /* \"#utility.yul\":668:675   */\n  not\n    /* \"#utility.yul\":663:665   */\n  0x1f\n    /* \"#utility.yul\":656:661   */\n  dup4\n    /* \"#utility.yul\":652:666   */\n  add\n    /* \"#utility.yul\":648:676   */\n  and\n    /* \"#utility.yul\":638:676   */\n  swap1\n  pop\n    /* \"#utility.yul\":580:682   */\n  swap2\n  swap1\n  pop\n  jump\t// out\n    /* \"#utility.yul\":688:868   */\ntag_17:\n    /* \"#utility.yul\":736:813   */\n  0x4e487b7100000000000000000000000000000000000000000000000000000000\n    /* \"#utility.yul\":733:734   */\n  0x00\n    /* \"#utility.yul\":726:814   */\n  mstore\n    /* \"#utility.yul\":833:837   */\n  0x41\n    /* \"#utility.yul\":830:831   */\n  0x04\n    /* \"#utility.yul\":823:838   */\n  mstore\n    /* \"#utility.yul\":857:861   */\n  0x24\n    /* \"#utility.yul\":854:855   */\n  0x00\n    /* \"#utility.yul\":847:862   */\n  revert\n    /* \"#utility.yul\":874:1155   */\ntag_18:\n    /* \"#utility.yul\":957:984   */\n  tag_55\n    /* \"#utility.yul\":979:983   */\n  dup3\n    /* \"#utility.yul\":957:984   */\n  tag_16\n  jump\t// in\ntag_55:\n    /* \"#utility.yul\":949:955   */\n  dup2\n    /* \"#utility.yul\":945:985   */\n  add\n    /* \"#utility.yul\":1087:1093   */\n  dup2\n    /* \"#utility.yul\":1075:1085   */\n  dup2\n    /* \"#utility.yul\":1072:1094   */\n  lt\n    /* \"#utility.yul\":1051:1069   */\n  0xffffffffffffffff\n    /* \"#utility.yul\":1039:1049   */\n  dup3\n    /* \"#utility.yul\":1036:1070   */\n  gt\n    /* \"#utility.yul\":1033:1095   */\n  or\n    /* \"#utility.yul\":1030:1118   */\n  iszero\n  tag_56\n  jumpi\n    /* \"#utility.yul\":1098:1116   */\n  tag_57\n  tag_17\n  jump\t// in\ntag_57:\n    /* \"#utility.yul\":1030:1118   */\ntag_56:\n    /* \"#utility.yul\":1138:1148   */\n  dup1\n    /* \"#utility.yul\":1134:1136   */\n  0x40\n    /* \"#utility.yul\":1127:1149   */\n  mstore\n    /* \"#utility.yul\":917:1155   */\n  pop\n    /* \"#utility.yul\":874:1155   */\n  pop\n  pop\n  jump\t// out\n    /* \"#utility.yul\":1161:1290   */\ntag_19:\n    /* \"#utility.yul\":1195:1201   */\n  0x00\n    /* \"#utility.yul\":1222:1242   */\n  tag_59\n  tag_11\n  jump\t// in\ntag_59:\n    /* \"#utility.yul\":1212:1242   */\n  swap1\n  pop\n    /* \"#utility.yul\":1251:1284   */\n  tag_60\n    /* \"#utility.yul\":1279:1283   */\n  dup3\n    /* \"#utility.yul\":1271:1277   */\n  dup3\n    /* \"#utility.yul\":1251:1284   */\n  tag_18\n  jump\t// in\ntag_60:\n    /* \"#utility.yul\":1161:1290   */\n  swap2\n  swap1\n  pop\n  jump\t// out\n    /* \"#utility.yul\":1296:1604   */\ntag_20:\n    /* \"#utility.yul\":1358:1362   */\n  0x00\n    /* \"#utility.yul\":1448:1466   */\n  0xffffffffffffffff\n    /* \"#utility.yul\":1440:1446   */\n  dup3\n    /* \"#utility.yul\":1437:1467   */\n  gt\n    /* \"#utility.yul\":1434:1490   */\n  iszero\n  tag_62\n  jumpi\n    /* \"#utility.yul\":1470:1488   */\n  tag_63\n  tag_17\n  jump\t// in\ntag_63:\n    /* \"#utility.yul\":1434:1490   */\ntag_62:\n    /* \"#utility.yul\":1508:1537   */\n  tag_64\n    /* \"#utility.yul\":1530:1536   */\n  dup3\n    /* \"#utility.yul\":1508:1537   */\n  tag_16\n  jump\t// in\ntag_64:\n    /* \"#utility.yul\":1500:1537   */\n  swap1\n  pop\n    /* \"#utility.yul\":1592:1596   */\n  0x20\n    /* \"#utility.yul\":1586:1590   */\n  dup2\n    /* \"#utility.yul\":1582:1597   */\n  add\n    /* \"#utility.yul\":1574:1597   */\n  swap1\n  pop\n    /* \"#utility.yul\":1296:1604   */\n  swap2\n  swap1\n  pop\n  jump\t// out\n    /* \"#utility.yul\":1610:1856   */\ntag_21:\n    /* \"#utility.yul\":1691:1692   */\n  0x00\n    /* \"#utility.yul\":1701:1814   */\ntag_66:\n    /* \"#utility.yul\":1715:1721   */\n  dup4\n    /* \"#utility.yul\":1712:1713   */\n  dup2\n    /* \"#utility.yul\":1709:1722   */\n  lt\n    /* \"#utility.yul\":1701:1814   */\n  iszero\n  tag_68\n  jumpi\n    /* \"#utility.yul\":1800:1801   */\n  dup1\n    /* \"#utility.yul\":1795:1798   */\n  dup3\n    /* \"#utility.yul\":1791:1802   */\n  add\n    /* \"#utility.yul\":1785:1803   */\n  mload\n    /* \"#utility.yul\":1781:1782   */\n  dup2\n    /* \"#utility.yul\":1776:1779   */\n  dup5\n    /* \"#utility.yul\":1772:1783   */\n  add\n    /* \"#utility.yul\":1765:1804   */\n  mstore\n    /* \"#utility.yul\":1737:1739   */\n  0x20\n    /* \"#utility.yul\":1734:1735   */\n  dup2\n    /* \"#utility.yul\":1730:1740   */\n  add\n    /* \"#utility.yul\":1725:1740   */\n  swap1\n  pop\n    /* \"#utility.yul\":1701:1814   */\n  jump(tag_66)\ntag_68:\n    /* \"#utility.yul\":1848:1849   */\n  0x00\n    /* \"#utility.yul\":1839:1845   */\n  dup5\n    /* \"#utility.yul\":1834:1837   */\n  dup5\n    /* \"#utility.yul\":1830:1846   */\n  add\n    /* \"#utility.yul\":1823:1850   */\n  mstore\n    /* \"#utility.yul\":1672:1856   */\n  pop\n    /* \"#utility.yul\":1610:1856   */\n  pop\n  pop\n  pop\n  jump\t// out\n    /* \"#utility.yul\":1862:2296   */\ntag_22:\n    /* \"#utility.yul\":1951:1956   */\n  0x00\n    /* \"#utility.yul\":1976:2042   */\n  tag_70\n    /* \"#utility.yul\":1992:2041   */\n  tag_71\n    /* \"#utility.yul\":2034:2040   */\n  dup5\n    /* \"#utility.yul\":1992:2041   */\n  tag_20\n  jump\t// in\ntag_71:\n    /* \"#utility.yul\":1976:2042   */\n  tag_19\n  jump\t// in\ntag_70:\n    /* \"#utility.yul\":1967:2042   */\n  swap1\n  pop\n    /* \"#utility.yul\":2065:2071   */\n  dup3\n    /* \"#utility.yul\":2058:2063   */\n  dup2\n    /* \"#utility.yul\":2051:2072   */\n  mstore\n    /* \"#utility.yul\":2103:2107   */\n  0x20\n    /* \"#utility.yul\":2096:2101   */\n  dup2\n    /* \"#utility.yul\":2092:2108   */\n  add\n    /* \"#utility.yul\":2141:2144   */\n  dup5\n    /* \"#utility.yul\":2132:2138   */\n  dup5\n    /* \"#utility.yul\":2127:2130   */\n  dup5\n    /* \"#utility.yul\":2123:2139   */\n  add\n    /* \"#utility.yul\":2120:2145   */\n  gt\n    /* \"#utility.yul\":2117:2229   */\n  iszero\n  tag_72\n  jumpi\n    /* \"#utility.yul\":2148:2227   */\n  tag_73\n  tag_15\n  jump\t// in\ntag_73:\n    /* \"#utility.yul\":2117:2229   */\ntag_72:\n    /* \"#utility.yul\":2238:2290   */\n  tag_74\n    /* \"#utility.yul\":2283:2289   */\n  dup5\n    /* \"#utility.yul\":2278:2281   */\n  dup3\n    /* \"#utility.yul\":2273:2276   */\n  dup6\n    /* \"#utility.yul\":2238:2290   */\n  tag_21\n  jump\t// in\ntag_74:\n    /* \"#utility.yul\":1957:2296   */\n  pop\n    /* \"#utility.yul\":1862:2296   */\n  swap4\n  swap3\n  pop\n  pop\n  pop\n  jump\t// out\n    /* \"#utility.yul\":2316:2671   */\ntag_23:\n    /* \"#utility.yul\":2383:2388   */\n  0x00\n    /* \"#utility.yul\":2432:2435   */\n  dup3\n    /* \"#utility.yul\":2425:2429   */\n  0x1f\n    /* \"#utility.yul\":2417:2423   */\n  dup4\n    /* \"#utility.yul\":2413:2430   */\n  add\n    /* \"#utility.yul\":2409:2436   */\n  slt\n    /* \"#utility.yul\":2399:2521   */\n  tag_76\n  jumpi\n    /* \"#utility.yul\":2440:2519   */\n  tag_77\n  tag_14\n  jump\t// in\ntag_77:\n    /* \"#utility.yul\":2399:2521   */\ntag_76:\n    /* \"#utility.yul\":2550:2556   */\n  dup2\n    /* \"#utility.yul\":2544:2557   */\n  mload\n    /* \"#utility.yul\":2575:2665   */\n  tag_78\n    /* \"#utility.yul\":2661:2664   */\n  dup5\n    /* \"#utility.yul\":2653:2659   */\n  dup3\n    /* \"#utility.yul\":2646:2650   */\n  0x20\n    /* \"#utility.yul\":2638:2644   */\n  dup7\n    /* \"#utility.yul\":2634:2651   */\n  add\n    /* \"#utility.yul\":2575:2665   */\n  tag_22\n  jump\t// in\ntag_78:\n    /* \"#utility.yul\":2566:2665   */\n  swap2\n  pop\n    /* \"#utility.yul\":2389:2671   */\n  pop\n    /* \"#utility.yul\":2316:2671   */\n  swap3\n  swap2\n  pop\n  pop\n  jump\t// out\n    /* \"#utility.yul\":2677:2754   */\ntag_24:\n    /* \"#utility.yul\":2714:2721   */\n  0x00\n    /* \"#utility.yul\":2743:2748   */\n  dup2\n    /* \"#utility.yul\":2732:2748   */\n  swap1\n  pop\n    /* \"#utility.yul\":2677:2754   */\n  swap2\n  swap1\n  pop\n  jump\t// out\n    /* \"#utility.yul\":2760:2882   */\ntag_25:\n    /* \"#utility.yul\":2833:2857   */\n  tag_81\n    /* \"#utility.yul\":2851:2856   */\n  dup2\n    /* \"#utility.yul\":2833:2857   */\n  tag_24\n  jump\t// in\ntag_81:\n    /* \"#utility.yul\":2826:2831   */\n  dup2\n    /* \"#utility.yul\":2823:2858   */\n  eq\n    /* \"#utility.yul\":2813:2876   */\n  tag_82\n  jumpi\n    /* \"#utility.yul\":2872:2873   */\n  0x00\n    /* \"#utility.yul\":2869:2870   */\n  dup1\n    /* \"#utility.yul\":2862:2874   */\n  revert\n    /* \"#utility.yul\":2813:2876   */\ntag_82:\n    /* \"#utility.yul\":2760:2882   */\n  pop\n  jump\t// out\n    /* \"#utility.yul\":2888:3031   */\ntag_26:\n    /* \"#utility.yul\":2945:2950   */\n  0x00\n    /* \"#utility.yul\":2976:2982   */\n  dup2\n    /* \"#utility.yul\":2970:2983   */\n  mload\n    /* \"#utility.yul\":2961:2983   */\n  swap1\n  pop\n    /* \"#utility.yul\":2992:3025   */\n  tag_84\n    /* \"#utility.yul\":3019:3024   */\n  dup2\n    /* \"#utility.yul\":2992:3025   */\n  tag_25\n  jump\t// in\ntag_84:\n    /* \"#utility.yul\":2888:3031   */\n  swap3\n  swap2\n  pop\n  pop\n  jump\t// out\n    /* \"#utility.yul\":3037:3873   */\ntag_3:\n    /* \"#utility.yul\":3135:3141   */\n  0x00\n    /* \"#utility.yul\":3143:3149   */\n  dup1\n    /* \"#utility.yul\":3151:3157   */\n  0x00\n    /* \"#utility.yul\":3200:3202   */\n  0x60\n    /* \"#utility.yul\":3188:3197   */\n  dup5\n    /* \"#utility.yul\":3179:3186   */\n  dup7\n    /* \"#utility.yul\":3175:3198   */\n  sub\n    /* \"#utility.yul\":3171:3203   */\n  slt\n    /* \"#utility.yul\":3168:3287   */\n  iszero\n  tag_86\n  jumpi\n    /* \"#utility.yul\":3206:3285   */\n  tag_87\n  tag_12\n  jump\t// in\ntag_87:\n    /* \"#utility.yul\":3168:3287   */\ntag_86:\n    /* \"#utility.yul\":3347:3348   */\n  0x00\n    /* \"#utility.yul\":3336:3345   */\n  dup5\n    /* \"#utility.yul\":3332:3349   */\n  add\n    /* \"#utility.yul\":3326:3350   */\n  mload\n    /* \"#utility.yul\":3377:3395   */\n  0xffffffffffffffff\n    /* \"#utility.yul\":3369:3375   */\n  dup2\n    /* \"#utility.yul\":3366:3396   */\n  gt\n    /* \"#utility.yul\":3363:3480   */\n  iszero\n  tag_88\n  jumpi\n    /* \"#utility.yul\":3399:3478   */\n  tag_89\n  tag_13\n  jump\t// in\ntag_89:\n    /* \"#utility.yul\":3363:3480   */\ntag_88:\n    /* \"#utility.yul\":3504:3578   */\n  tag_90\n    /* \"#utility.yul\":3570:3577   */\n  dup7\n    /* \"#utility.yul\":3561:3567   */\n  dup3\n    /* \"#utility.yul\":3550:3559   */\n  dup8\n    /* \"#utility.yul\":3546:3568   */\n  add\n    /* \"#utility.yul\":3504:3578   */\n  tag_23\n  jump\t// in\ntag_90:\n    /* \"#utility.yul\":3494:3578   */\n  swap4\n  pop\n    /* \"#utility.yul\":3297:3588   */\n  pop\n    /* \"#utility.yul\":3627:3629   */\n  0x20\n    /* \"#utility.yul\":3653:3717   */\n  tag_91\n    /* \"#utility.yul\":3709:3716   */\n  dup7\n    /* \"#utility.yul\":3700:3706   */\n  dup3\n    /* \"#utility.yul\":3689:3698   */\n  dup8\n    /* \"#utility.yul\":3685:3707   */\n  add\n    /* \"#utility.yul\":3653:3717   */\n  tag_26\n  jump\t// in\ntag_91:\n    /* \"#utility.yul\":3643:3717   */\n  swap3\n  pop\n    /* \"#utility.yul\":3598:3727   */\n  pop\n    /* \"#utility.yul\":3766:3768   */\n  0x40\n    /* \"#utility.yul\":3792:3856   */\n  tag_92\n    /* \"#utility.yul\":3848:3855   */\n  dup7\n    /* \"#utility.yul\":3839:3845   */\n  dup3\n    /* \"#utility.yul\":3828:3837   */\n  dup8\n    /* \"#utility.yul\":3824:3846   */\n  add\n    /* \"#utility.yul\":3792:3856   */\n  tag_26\n  jump\t// in\ntag_92:\n    /* \"#utility.yul\":3782:3856   */\n  swap2\n  pop\n    /* \"#utility.yul\":3737:3866   */\n  pop\n    /* \"#utility.yul\":3037:3873   */\n  swap3\n  pop\n  swap3\n  pop\n  swap3\n  jump\t// out\n    /* \"#utility.yul\":3879:3978   */\ntag_27:\n    /* \"#utility.yul\":3931:3937   */\n  0x00\n    /* \"#utility.yul\":3965:3970   */\n  dup2\n    /* \"#utility.yul\":3959:3971   */\n  mload\n    /* \"#utility.yul\":3949:3971   */\n  swap1\n  pop\n    /* \"#utility.yul\":3879:3978   */\n  swap2\n  swap1\n  pop\n  jump\t// out\n    /* \"#utility.yul\":3984:4164   */\ntag_28:\n    /* \"#utility.yul\":4032:4109   */\n  0x4e487b7100000000000000000000000000000000000000000000000000000000\n    /* \"#utility.yul\":4029:4030   */\n  0x00\n    /* \"#utility.yul\":4022:4110   */\n  mstore\n    /* \"#utility.yul\":4129:4133   */\n  0x22\n    /* \"#utility.yul\":4126:4127   */\n  0x04\n    /* \"#utility.yul\":4119:4134   */\n  mstore\n    /* \"#utility.yul\":4153:4157   */\n  0x24\n    /* \"#utility.yul\":4150:4151   */\n  0x00\n    /* \"#utility.yul\":4143:4158   */\n  revert\n    /* \"#utility.yul\":4170:4490   */\ntag_29:\n    /* \"#utility.yul\":4214:4220   */\n  0x00\n    /* \"#utility.yul\":4251:4252   */\n  0x02\n    /* \"#utility.yul\":4245:4249   */\n  dup3\n    /* \"#utility.yul\":4241:4253   */\n  div\n    /* \"#utility.yul\":4231:4253   */\n  swap1\n  pop\n    /* \"#utility.yul\":4298:4299   */\n  0x01\n    /* \"#utility.yul\":4292:4296   */\n  dup3\n    /* \"#utility.yul\":4288:4300   */\n  and\n    /* \"#utility.yul\":4319:4337   */\n  dup1\n    /* \"#utility.yul\":4309:4390   */\n  tag_96\n  jumpi\n    /* \"#utility.yul\":4375:4379   */\n  0x7f\n    /* \"#utility.yul\":4367:4373   */\n  dup3\n    /* \"#utility.yul\":4363:4380   */\n  and\n    /* \"#utility.yul\":4353:4380   */\n  swap2\n  pop\n    /* \"#utility.yul\":4309:4390   */\ntag_96:\n    /* \"#utility.yul\":4437:4439   */\n  0x20\n    /* \"#utility.yul\":4429:4435   */\n  dup3\n    /* \"#utility.yul\":4426:4440   */\n  lt\n    /* \"#utility.yul\":4406:4424   */\n  dup2\n    /* \"#utility.yul\":4403:4441   */\n  sub\n    /* \"#utility.yul\":4400:4484   */\n  tag_97\n  jumpi\n    /* \"#utility.yul\":4456:4474   */\n  tag_98\n  tag_28\n  jump\t// in\ntag_98:\n    /* \"#utility.yul\":4400:4484   */\ntag_97:\n    /* \"#utility.yul\":4221:4490   */\n  pop\n    /* \"#utility.yul\":4170:4490   */\n  swap2\n  swap1\n  pop\n  jump\t// out\n    /* \"#utility.yul\":4496:4637   */\ntag_30:\n    /* \"#utility.yul\":4545:4549   */\n  0x00\n    /* \"#utility.yul\":4568:4571   */\n  dup2\n    /* \"#utility.yul\":4560:4571   */\n  swap1\n  pop\n    /* \"#utility.yul\":4591:4594   */\n  dup2\n    /* \"#utility.yul\":4588:4589   */\n  0x00\n    /* \"#utility.yul\":4581:4595   */\n  mstore\n    /* \"#utility.yul\":4625:4629   */\n  0x20\n    /* \"#utility.yul\":4622:4623   */\n  0x00\n    /* \"#utility.yul\":4612:4630   */\n  keccak256\n    /* \"#utility.yul\":4604:4630   */\n  swap1\n  pop\n    /* \"#utility.yul\":4496:4637   */\n  swap2\n  swap1\n  pop\n  jump\t// out\n    /* \"#utility.yul\":4643:4736   */\ntag_31:\n    /* \"#utility.yul\":4680:4686   */\n  0x00\n    /* \"#utility.yul\":4727:4729   */\n  0x20\n    /* \"#utility.yul\":4722:4724   */\n  0x1f\n    /* \"#utility.yul\":4715:4720   */\n  dup4\n    /* \"#utility.yul\":4711:4725   */\n  add\n    /* \"#utility.yul\":4707:4730   */\n  div\n    /* \"#utility.yul\":4697:4730   */\n  swap1\n  pop\n    /* \"#utility.yul\":4643:4736   */\n  swap2\n  swap1\n  pop\n  jump\t// out\n    /* \"#utility.yul\":4742:4849   */\ntag_32:\n    /* \"#utility.yul\":4786:4794   */\n  0x00\n    /* \"#utility.yul\":4836:4841   */\n  dup3\n    /* \"#utility.yul\":4830:4834   */\n  dup3\n    /* \"#utility.yul\":4826:4842   */\n  shl\n    /* \"#utility.yul\":4805:4842   */\n  swap1\n  pop\n    /* \"#utility.yul\":4742:4849   */\n  swap3\n  swap2\n  pop\n  pop\n  jump\t// out\n    /* \"#utility.yul\":4855:5248   */\ntag_33:\n    /* \"#utility.yul\":4924:4930   */\n  0x00\n    /* \"#utility.yul\":4974:4975   */\n  0x08\n    /* \"#utility.yul\":4962:4972   */\n  dup4\n    /* \"#utility.yul\":4958:4976   */\n  mul\n    /* \"#utility.yul\":4997:5094   */\n  tag_103\n    /* \"#utility.yul\":5027:5093   */\n  0xffffffffffffffffffffffffffffffffffffffffffffffffffffffffffffffff\n    /* \"#utility.yul\":5016:5025   */\n  dup3\n    /* \"#utility.yul\":4997:5094   */\n  tag_32\n  jump\t// in\ntag_103:\n    /* \"#utility.yul\":5115:5154   */\n  tag_104\n    /* \"#utility.yul\":5145:5153   */\n  dup7\n    /* \"#utility.yul\":5134:5143   */\n  dup4\n    /* \"#utility.yul\":5115:5154   */\n  tag_32\n  jump\t// in\ntag_104:\n    /* \"#utility.yul\":5103:5154   */\n  swap6\n  pop\n    /* \"#utility.yul\":5187:5191   */\n  dup1\n    /* \"#utility.yul\":5183:5192   */\n  not\n    /* \"#utility.yul\":5176:5181   */\n  dup5\n    /* \"#utility.yul\":5172:5193   */\n  and\n    /* \"#utility.yul\":5163:5193   */\n  swap4\n  pop\n    /* \"#utility.yul\":5236:5240   */\n  dup1\n    /* \"#utility.yul\":5226:5234   */\n  dup7\n    /* \"#utility.yul\":5222:5241   */\n  and\n    /* \"#utility.yul\":5215:5220   */\n  dup5\n    /* \"#utility.yul\":5212:5242   */\n  or\n    /* \"#utility.yul\":5202:5242   */\n  swap3\n  pop\n    /* \"#utility.yul\":4931:5248   */\n  pop\n  pop\n    /* \"#utility.yul\":4855:5248   */\n  swap4\n  swap3\n  pop\n  pop\n  pop\n  jump\t// out\n    /* \"#utility.yul\":5254:5314   */\ntag_34:\n    /* \"#utility.yul\":5282:5285   */\n  0x00\n    /* \"#utility.yul\":5303:5308   */\n  dup2\n    /* \"#utility.yul\":5296:5308   */\n  swap1\n  pop\n    /* \"#utility.yul\":5254:5314   */\n  swap2\n  swap1\n  pop\n  jump\t// out\n    /* \"#utility.yul\":5320:5462   */\ntag_35:\n    /* \"#utility.yul\":5370:5379   */\n  0x00\n    /* \"#utility.yul\":5403:5456   */\n  tag_107\n    /* \"#utility.yul\":5421:5455   */\n  tag_108\n    /* \"#utility.yul\":5430:5454   */\n  tag_109\n    /* \"#utility.yul\":5448:5453   */\n  dup5\n    /* \"#utility.yul\":5430:5454   */\n  tag_24\n  jump\t// in\ntag_109:\n    /* \"#utility.yul\":5421:5455   */\n  tag_34\n  jump\t// in\ntag_108:\n    /* \"#utility.yul\":5403:5456   */\n  tag_24\n  jump\t// in\ntag_107:\n    /* \"#utility.yul\":5390:5456   */\n  swap1\n  pop\n    /* \"#utility.yul\":5320:5462   */\n  swap2\n  swap1\n  pop\n  jump\t// out\n    /* \"#utility.yul\":5468:5543   */\ntag_36:\n    /* \"#utility.yul\":5511:5514   */\n  0x00\n    /* \"#utility.yul\":5532:5537   */\n  dup2\n    /* \"#utility.yul\":5525:5537   */\n  swap1\n  pop\n    /* \"#utility.yul\":5468:5543   */\n  swap2\n  swap1\n  pop\n  jump\t// out\n    /* \"#utility.yul\":5549:5818   */\ntag_37:\n    /* \"#utility.yul\":5659:5698   */\n  tag_112\n    /* \"#utility.yul\":5690:5697   */\n  dup4\n    /* \"#utility.yul\":5659:5698   */\n  tag_35\n  jump\t// in\ntag_112:\n    /* \"#utility.yul\":5720:5811   */\n  tag_113\n    /* \"#utility.yul\":5769:5810   */\n  tag_114\n    /* \"#utility.yul\":5793:5809   */\n  dup3\n    /* \"#utility.yul\":5769:5810   */\n  tag_36\n  jump\t// in\ntag_114:\n    /* \"#utility.yul\":5761:5767   */\n  dup5\n    /* \"#utility.yul\":5754:5758   */\n  dup5\n    /* \"#utility.yul\":5748:5759   */\n  sload\n    /* \"#utility.yul\":5720:5811   */\n  tag_33\n  jump\t// in\ntag_113:\n    /* \"#utility.yul\":5714:5718   */\n  dup3\n    /* \"#utility.yul\":5707:5812   */\n  sstore\n    /* \"#utility.yul\":5625:5818   */\n  pop\n    /* \"#utility.yul\":5549:5818   */\n  pop\n  pop\n  pop\n  jump\t// out\n    /* \"#utility.yul\":5824:5897   */\ntag_38:\n    /* \"#utility.yul\":5869:5872   */\n  0x00\n    /* \"#utility.yul\":5824:5897   */\n  swap1\n  jump\t// out\n    /* \"#utility.yul\":5903:6092   */\ntag_39:\n    /* \"#utility.yul\":5980:6012   */\n  tag_117\n  tag_38\n  jump\t// in\ntag_117:\n    /* \"#utility.yul\":6021:6086   */\n  tag_118\n    /* \"#utility.yul\":6079:6085   */\n  dup2\n    /* \"#utility.yul\":6071:6077   */\n  dup5\n    /* \"#utility.yul\":6065:6069   */\n  dup5\n    /* \"#utility.yul\":6021:6086   */\n  tag_37\n  jump\t// in\ntag_118:\n    /* \"#utility.yul\":5956:6092   */\n  pop\n    /* \"#utility.yul\":5903:6092   */\n  pop\n  pop\n  jump\t// out\n    /* \"#utility.yul\":6098:6284   */\ntag_40:\n    /* \"#utility.yul\":6158:6278   */\ntag_120:\n    /* \"#utility.yul\":6175:6178   */\n  dup2\n    /* \"#utility.yul\":6168:6173   */\n  dup2\n    /* \"#utility.yul\":6165:6179   */\n  lt\n    /* \"#utility.yul\":6158:6278   */\n  iszero\n  tag_122\n  jumpi\n    /* \"#utility.yul\":6229:6268   */\n  tag_123\n    /* \"#utility.yul\":6266:6267   */\n  0x00\n    /* \"#utility.yul\":6259:6264   */\n  dup3\n    /* \"#utility.yul\":6229:6268   */\n  tag_39\n  jump\t// in\ntag_123:\n    /* \"#utility.yul\":6202:6203   */\n  0x01\n    /* \"#utility.yul\":6195:6200   */\n  dup2\n    /* \"#utility.yul\":6191:6204   */\n  add\n    /* \"#utility.yul\":6182:6204   */\n  swap1\n  pop\n    /* \"#utility.yul\":6158:6278   */\n  jump(tag_120)\ntag_122:\n    /* \"#utility.yul\":6098:6284   */\n  pop\n  pop\n  jump\t// out\n    /* \"#utility.yul\":6290:6833   */\ntag_41:\n    /* \"#utility.yul\":6391:6393   */\n  0x1f\n    /* \"#utility.yul\":6386:6389   */\n  dup3\n    /* \"#utility.yul\":6383:6394   */\n  gt\n    /* \"#utility.yul\":6380:6826   */\n  iszero\n  tag_125\n  jumpi\n    /* \"#utility.yul\":6425:6463   */\n  tag_126\n    /* \"#utility.yul\":6457:6462   */\n  dup2\n    /* \"#utility.yul\":6425:6463   */\n  tag_30\n  jump\t// in\ntag_126:\n    /* \"#utility.yul\":6509:6538   */\n  tag_127\n    /* \"#utility.yul\":6527:6537   */\n  dup5\n    /* \"#utility.yul\":6509:6538   */\n  tag_31\n  jump\t// in\ntag_127:\n    /* \"#utility.yul\":6499:6507   */\n  dup2\n    /* \"#utility.yul\":6495:6539   */\n  add\n    /* \"#utility.yul\":6692:6694   */\n  0x20\n    /* \"#utility.yul\":6680:6690   */\n  dup6\n    /* \"#utility.yul\":6677:6695   */\n  lt\n    /* \"#utility.yul\":6674:6723   */\n  iszero\n  tag_128\n  jumpi\n    /* \"#utility.yul\":6713:6721   */\n  dup2\n    /* \"#utility.yul\":6698:6721   */\n  swap1\n  pop\n    /* \"#utility.yul\":6674:6723   */\ntag_128:\n    /* \"#utility.yul\":6736:6816   */\n  tag_129\n    /* \"#utility.yul\":6792:6814   */\n  tag_130\n    /* \"#utility.yul\":6810:6813   */\n  dup6\n    /* \"#utility.yul\":6792:6814   */\n  tag_31\n  jump\t// in\ntag_130:\n    /* \"#utility.yul\":6782:6790   */\n  dup4\n    /* \"#utility.yul\":6778:6815   */\n  add\n    /* \"#utility.yul\":6765:6776   */\n  dup3\n    /* \"#utility.yul\":6736:6816   */\n  tag_40\n  jump\t// in\ntag_129:\n    /* \"#utility.yul\":6395:6826   */\n  pop\n  pop\n    /* \"#utility.yul\":6380:6826   */\ntag_125:\n    /* \"#utility.yul\":6290:6833   */\n  pop\n  pop\n  pop\n  jump\t// out\n    /* \"#utility.yul\":6839:6956   */\ntag_42:\n    /* \"#utility.yul\":6893:6901   */\n  0x00\n    /* \"#utility.yul\":6943:6948   */\n  dup3\n    /* \"#utility.yul\":6937:6941   */\n  dup3\n    /* \"#utility.yul\":6933:6949   */\n  shr\n    /* \"#utility.yul\":6912:6949   */\n  swap1\n  pop\n    /* \"#utility.yul\":6839:6956   */\n  swap3\n  swap2\n  pop\n  pop\n  jump\t// out\n    /* \"#utility.yul\":6962:7131   */\ntag_43:\n    /* \"#utility.yul\":7006:7012   */\n  0x00\n    /* \"#utility.yul\":7039:7090   */\n  tag_133\n    /* \"#utility.yul\":7087:7088   */\n  0x00\n    /* \"#utility.yul\":7083:7089   */\n  not\n    /* \"#utility.yul\":7075:7080   */\n  dup5\n    /* \"#utility.yul\":7072:7073   */\n  0x08\n    /* \"#utility.yul\":7068:7081   */\n  mul\n    /* \"#utility.yul\":7039:7090   */\n  tag_42\n  jump\t// in\ntag_133:\n    /* \"#utility.yul\":7035:7091   */\n  not\n    /* \"#utility.yul\":7120:7124   */\n  dup1\n    /* \"#utility.yul\":7114:7118   */\n  dup4\n    /* \"#utility.yul\":7110:7125   */\n  and\n    /* \"#utility.yul\":7100:7125   */\n  swap2\n  pop\n    /* \"#utility.yul\":7013:7131   */\n  pop\n    /* \"#utility.yul\":6962:7131   */\n  swap3\n  swap2\n  pop\n  pop\n  jump\t// out\n    /* \"#utility.yul\":7136:7431   */\ntag_44:\n    /* \"#utility.yul\":7212:7216   */\n  0x00\n    /* \"#utility.yul\":7358:7387   */\n  tag_135\n    /* \"#utility.yul\":7383:7386   */\n  dup4\n    /* \"#utility.yul\":7377:7381   */\n  dup4\n    /* \"#utility.yul\":7358:7387   */\n  tag_43\n  jump\t// in\ntag_135:\n    /* \"#utility.yul\":7350:7387   */\n  swap2\n  pop\n    /* \"#utility.yul\":7420:7423   */\n  dup3\n    /* \"#utility.yul\":7417:7418   */\n  0x02\n    /* \"#utility.yul\":7413:7424   */\n  mul\n    /* \"#utility.yul\":7407:7411   */\n  dup3\n    /* \"#utility.yul\":7404:7425   */\n  or\n    /* \"#utility.yul\":7396:7425   */\n  swap1\n  pop\n    /* \"#utility.yul\":7136:7431   */\n  swap3\n  swap2\n  pop\n  pop\n  jump\t// out\n    /* \"#utility.yul\":7436:8831   */\ntag_7:\n    /* \"#utility.yul\":7553:7590   */\n  tag_137\n    /* \"#utility.yul\":7586:7589   */\n  dup3\n    /* \"#utility.yul\":7553:7590   */\n  tag_27\n  jump\t// in\ntag_137:\n    /* \"#utility.yul\":7655:7673   */\n  0xffffffffffffffff\n    /* \"#utility.yul\":7647:7653   */\n  dup2\n    /* \"#utility.yul\":7644:7674   */\n  gt\n    /* \"#utility.yul\":7641:7697   */\n  iszero\n  tag_138\n  jumpi\n    /* \"#utility.yul\":7677:7695   */\n  tag_139\n  tag_17\n  jump\t// in\ntag_139:\n    /* \"#utility.yul\":7641:7697   */\ntag_138:\n    /* \"#utility.yul\":7721:7759   */\n  tag_140\n    /* \"#utility.yul\":7753:7757   */\n  dup3\n    /* \"#utility.yul\":7747:7758   */\n  sload\n    /* \"#utility.yul\":7721:7759   */\n  tag_29\n  jump\t// in\ntag_140:\n    /* \"#utility.yul\":7806:7873   */\n  tag_141\n    /* \"#utility.yul\":7866:7872   */\n  dup3\n    /* \"#utility.yul\":7858:7864   */\n  dup3\n    /* \"#utility.yul\":7852:7856   */\n  dup6\n    /* \"#utility.yul\":7806:7873   */\n  tag_41\n  jump\t// in\ntag_141:\n    /* \"#utility.yul\":7900:7901   */\n  0x00\n    /* \"#utility.yul\":7924:7928   */\n  0x20\n    /* \"#utility.yul\":7911:7928   */\n  swap1\n  pop\n    /* \"#utility.yul\":7956:7958   */\n  0x1f\n    /* \"#utility.yul\":7948:7954   */\n  dup4\n    /* \"#utility.yul\":7945:7959   */\n  gt\n    /* \"#utility.yul\":7973:7974   */\n  0x01\n    /* \"#utility.yul\":7968:8586   */\n  dup2\n  eq\n  tag_143\n  jumpi\n    /* \"#utility.yul\":8630:8631   */\n  0x00\n    /* \"#utility.yul\":8647:8653   */\n  dup5\n    /* \"#utility.yul\":8644:8721   */\n  iszero\n  tag_144\n  jumpi\n    /* \"#utility.yul\":8696:8705   */\n  dup3\n    /* \"#utility.yul\":8691:8694   */\n  dup8\n    /* \"#utility.yul\":8687:8706   */\n  add\n    /* \"#utility.yul\":8681:8707   */\n  mload\n    /* \"#utility.yul\":8672:8707   */\n  swap1\n  pop\n    /* \"#utility.yul\":8644:8721   */\ntag_144:\n    /* \"#utility.yul\":8747:8814   */\n  tag_145\n    /* \"#utility.yul\":8807:8813   */\n  dup6\n    /* \"#utility.yul\":8800:8805   */\n  dup3\n    /* \"#utility.yul\":8747:8814   */\n  tag_44\n  jump\t// in\ntag_145:\n    /* \"#utility.yul\":8741:8745   */\n  dup7\n    /* \"#utility.yul\":8734:8815   */\n  sstore\n    /* \"#utility.yul\":8603:8825   */\n  pop\n    /* \"#utility.yul\":7938:8825   */\n  jump(tag_142)\n    /* \"#utility.yul\":7968:8586   */\ntag_143:\n    /* \"#utility.yul\":8020:8024   */\n  0x1f\n    /* \"#utility.yul\":8016:8025   */\n  not\n    /* \"#utility.yul\":8008:8014   */\n  dup5\n    /* \"#utility.yul\":8004:8026   */\n  and\n    /* \"#utility.yul\":8054:8091   */\n  tag_146\n    /* \"#utility.yul\":8086:8090   */\n  dup7\n    /* \"#utility.yul\":8054:8091   */\n  tag_30\n  jump\t// in\ntag_146:\n    /* \"#utility.yul\":8113:8114   */\n  0x00\n    /* \"#utility.yul\":8127:8335   */\ntag_147:\n    /* \"#utility.yul\":8141:8148   */\n  dup3\n    /* \"#utility.yul\":8138:8139   */\n  dup2\n    /* \"#utility.yul\":8135:8149   */\n  lt\n    /* \"#utility.yul\":8127:8335   */\n  iszero\n  tag_149\n  jumpi\n    /* \"#utility.yul\":8220:8229   */\n  dup5\n    /* \"#utility.yul\":8215:8218   */\n  dup10\n    /* \"#utility.yul\":8211:8230   */\n  add\n    /* \"#utility.yul\":8205:8231   */\n  mload\n    /* \"#utility.yul\":8197:8203   */\n  dup3\n    /* \"#utility.yul\":8190:8232   */\n  sstore\n    /* \"#utility.yul\":8271:8272   */\n  0x01\n    /* \"#utility.yul\":8263:8269   */\n  dup3\n    /* \"#utility.yul\":8259:8273   */\n  add\n    /* \"#utility.yul\":8249:8273   */\n  swap2\n  pop\n    /* \"#utility.yul\":8318:8320   */\n  0x20\n    /* \"#utility.yul\":8307:8316   */\n  dup6\n    /* \"#utility.yul\":8303:8321   */\n  add\n    /* \"#utility.yul\":8290:8321   */\n  swap5\n  pop\n    /* \"#utility.yul\":8164:8168   */\n  0x20\n    /* \"#utility.yul\":8161:8162   */\n  dup2\n    /* \"#utility.yul\":8157:8169   */\n  add\n    /* \"#utility.yul\":8152:8169   */\n  swap1\n  pop\n    /* \"#utility.yul\":8127:8335   */\n  jump(tag_147)\ntag_149:\n    /* \"#utility.yul\":8363:8369   */\n  dup7\n    /* \"#utility.yul\":8354:8361   */\n  dup4\n    /* \"#utility.yul\":8351:8370   */\n  lt\n    /* \"#utility.yul\":8348:8527   */\n  iszero\n  tag_150\n  jumpi\n    /* \"#utility.yul\":8421:8430   */\n  dup5\n    /* \"#utility.yul\":8416:8419   */\n  dup10\n    /* \"#utility.yul\":8412:8431   */\n  add\n    /* \"#utility.yul\":8406:8432   */\n  mload\n    /* \"#utility.yul\":8464:8512   */\n  tag_151\n    /* \"#utility.yul\":8506:8510   */\n  0x1f\n    /* \"#utility.yul\":8498:8504   */\n  dup10\n    /* \"#utility.yul\":8494:8511   */\n  and\n    /* \"#utility.yul\":8483:8492   */\n  dup3\n    /* \"#utility.yul\":8464:8512   */\n  tag_43\n  jump\t// in\ntag_151:\n    /* \"#utility.yul\":8456:8462   */\n  dup4\n    /* \"#utility.yul\":8449:8513   */\n  sstore\n    /* \"#utility.yul\":8371:8527   */\n  pop\n    /* \"#utility.yul\":8348:8527   */\ntag_150:\n    /* \"#utility.yul\":8573:8574   */\n  0x01\n    /* \"#utility.yul\":8569:8570   */\n  0x02\n    /* \"#utility.yul\":8561:8567   */\n  dup9\n    /* \"#utility.yul\":8557:8571   */\n  mul\n    /* \"#utility.yul\":8553:8575   */\n  add\n    /* \"#utility.yul\":8547:8551   */\n  dup9\n    /* \"#utility.yul\":8540:8576   */\n  sstore\n    /* \"#utility.yul\":7975:8586   */\n  pop\n  pop\n  pop\n    /* \"#utility.yul\":7938:8825   */\ntag_142:\n  pop\n    /* \"#utility.yul\":7528:8831   */\n  pop\n  pop\n  pop\n    /* \"#utility.yul\":7436:8831   */\n  pop\n  pop\n  jump\t// out\n    /* \"#utility.yul\":8837:9017   */\ntag_45:\n    /* \"#utility.yul\":8885:8962   */\n  0x4e487b7100000000000000000000000000000000000000000000000000000000\n    /* \"#utility.yul\":8882:8883   */\n  0x00\n    /* \"#utility.yul\":8875:8963   */\n  mstore\n    /* \"#utility.yul\":8982:8986   */\n  0x11\n    /* \"#utility.yul\":8979:8980   */\n  0x04\n    /* \"#utility.yul\":8972:8987   */\n  mstore\n    /* \"#utility.yul\":9006:9010   */\n  0x24\n    /* \"#utility.yul\":9003:9004   */\n  0x00\n    /* \"#utility.yul\":8996:9011   */\n  revert\n    /* \"#utility.yul\":9023:9214   */\ntag_9:\n    /* \"#utility.yul\":9063:9066   */\n  0x00\n    /* \"#utility.yul\":9082:9102   */\n  tag_154\n    /* \"#utility.yul\":9100:9101   */\n  dup3\n    /* \"#utility.yul\":9082:9102   */\n  tag_24\n  jump\t// in\ntag_154:\n    /* \"#utility.yul\":9077:9102   */\n  swap2\n  pop\n    /* \"#utility.yul\":9116:9136   */\n  tag_155\n    /* \"#utility.yul\":9134:9135   */\n  dup4\n    /* \"#utility.yul\":9116:9136   */\n  tag_24\n  jump\t// in\ntag_155:\n    /* \"#utility.yul\":9111:9136   */\n  swap3\n  pop\n    /* \"#utility.yul\":9159:9160   */\n  dup3\n    /* \"#utility.yul\":9156:9157   */\n  dup3\n    /* \"#utility.yul\":9152:9161   */\n  add\n    /* \"#utility.yul\":9145:9161   */\n  swap1\n  pop\n    /* \"#utility.yul\":9180:9183   */\n  dup1\n    /* \"#utility.yul\":9177:9178   */\n  dup3\n    /* \"#utility.yul\":9174:9184   */\n  gt\n    /* \"#utility.yul\":9171:9207   */\n  iszero\n  tag_156\n  jumpi\n    /* \"#utility.yul\":9187:9205   */\n  tag_157\n  tag_45\n  jump\t// in\ntag_157:\n    /* \"#utility.yul\":9171:9207   */\ntag_156:\n    /* \"#utility.yul\":9023:9214   */\n  swap3\n  swap2\n  pop\n  pop\n  jump\t// out\n    /* \"AuctionWithIntermediary.sol\":65:5031  contract AuctionWithIntermediary {... */\ntag_10:\n  dataSize(sub_0)\n  dup1\n  dataOffset(sub_0)\n  0x00\n  codecopy\n  0x00\n  return\nstop\n\nsub_0: assembly {\n        /* \"AuctionWithIntermediary.sol\":65:5031  contract AuctionWithIntermediary {... */\n      mstore(0x40, 0x80)\n      jumpi(tag_1, lt(calldatasize, 0x04))\n      shr(0xe0, calldataload(0x00))\n      dup1\n      0x9c1bfb6a\n      gt\n      tag_25\n      jumpi\n      dup1\n      0xd20a6f1f\n      gt\n      tag_26\n      jumpi\n      dup1\n      0xd20a6f1f\n      eq\n      tag_19\n      jumpi\n      dup1\n      0xd3a86386\n      eq\n      tag_20\n      jumpi\n      dup1\n      0xd3fe57c9\n      eq\n      tag_21\n      jumpi\n      dup1\n      0xdfbf53ae\n      eq\n      tag_22\n      jumpi\n      dup1\n      0xe3540196\n      eq\n      tag_23\n      jumpi\n      dup1\n      0xf7fbae45\n      eq\n      tag_24\n      jumpi\n      jump(tag_1)\n    tag_26:\n      dup1\n      0x9c1bfb6a\n      eq\n      tag_13\n      jumpi\n      dup1\n      0xa44dad5d\n      eq\n      tag_14\n      jumpi\n      dup1\n      0xa483708f\n      eq\n      tag_15\n      jumpi\n      dup1\n      0xab589529\n      eq\n      tag_16\n      jumpi\n      dup1\n      0xae91cd23\n      eq\n      tag_17\n      jumpi\n      dup1\n      0xc1edb4f1\n      eq\n      tag_18\n      jumpi\n      jump(tag_1)\n    tag_25:\n      dup1\n      0x3ccfd60b\n      gt\n      tag_27\n      jumpi\n      dup1\n      0x3ccfd60b\n      eq\n      tag_7\n      jumpi\n      dup1\n      0x454a2ab3\n      eq\n      tag_8\n      jumpi\n      dup1\n      0x79fd022e\n      eq\n      tag_9\n      jumpi\n      dup1\n      0x8cf80438\n      eq\n      tag_10\n      jumpi\n      dup1\n      0x8da5cb5b\n      eq\n      tag_11\n      jumpi\n      dup1\n      0x96fd3409\n      eq\n      tag_12\n      jumpi\n      jump(tag_1)\n    tag_27:\n      dup1\n      0x0331de58\n      eq\n      tag_2\n      jumpi\n      dup1\n      0x08726296\n      eq\n      tag_3\n      jumpi\n      dup1\n      0x12065fe0\n      eq\n      tag_4\n      jumpi\n      dup1\n      0x13b0f944\n      eq\n      tag_5\n      jumpi\n      dup1\n      0x333f6482\n      eq\n      tag_6\n      jumpi\n    tag_1:\n      0x00\n      dup1\n      revert\n        /* \"AuctionWithIntermediary.sol\":919:946  bool public approvedByOwner */\n    tag_2:\n      callvalue\n      dup1\n      iszero\n      tag_28\n      jumpi\n      0x00\n      dup1\n      revert\n    tag_28:\n      pop\n      tag_29\n      tag_30\n      jump\t// in\n    tag_29:\n      mload(0x40)\n      tag_31\n      swap2\n      swap1\n      tag_32\n      jump\t// in\n    tag_31:\n      mload(0x40)\n      dup1\n      swap2\n      sub\n      swap1\n      return\n        /* \"AuctionWithIntermediary.sol\":587:615  uint public noOfParticipants */\n    tag_3:\n      callvalue\n      dup1\n      iszero\n      tag_33\n      jumpi\n      0x00\n      dup1\n      revert\n    tag_33:\n      pop\n      tag_34\n      tag_35\n      jump\t// in\n    tag_34:\n      mload(0x40)\n      tag_36\n      swap2\n      swap1\n      tag_37\n      jump\t// in\n    tag_36:\n      mload(0x40)\n      dup1\n      swap2\n      sub\n      swap1\n      return\n        /* \"AuctionWithIntermediary.sol\":4926:5022  function getBalance() public view returns (uint) {... */\n    tag_4:\n      callvalue\n      dup1\n      iszero\n      tag_38\n      jumpi\n      0x00\n      dup1\n      revert\n    tag_38:\n      pop\n      tag_39\n      tag_40\n      jump\t// in\n    tag_39:\n      mload(0x40)\n      tag_41\n      swap2\n      swap1\n      tag_37\n      jump\t// in\n    tag_41:\n      mload(0x40)\n      dup1\n      swap2\n      sub\n      swap1\n      return\n        /* \"AuctionWithIntermediary.sol\":415:435  uint public noOfBids */\n    tag_5:\n      callvalue\n      dup1\n      iszero\n      tag_42\n      jumpi\n      0x00\n      dup1\n      revert\n    tag_42:\n      pop\n      tag_43\n      tag_44\n      jump\t// in\n    tag_43:\n      mload(0x40)\n      tag_45\n      swap2\n      swap1\n      tag_37\n      jump\t// in\n    tag_45:\n      mload(0x40)\n      dup1\n      swap2\n      sub\n      swap1\n      return\n        /* \"AuctionWithIntermediary.sol\":3420:3598  function voteWinner(bool _vote) public onlyWinner {... */\n    tag_6:\n      callvalue\n      dup1\n      iszero\n      tag_46\n      jumpi\n      0x00\n      dup1\n      revert\n    tag_46:\n      pop\n      tag_47\n      0x04\n      dup1\n      calldatasize\n      sub\n      dup2\n      add\n      swap1\n      tag_48\n      swap2\n      swap1\n      tag_49\n      jump\t// in\n    tag_48:\n      tag_50\n      jump\t// in\n    tag_47:\n      stop\n        /* \"AuctionWithIntermediary.sol\":4447:4918  function withdraw() public onlyOwner {... */\n    tag_7:\n      callvalue\n      dup1\n      iszero\n      tag_51\n      jumpi\n      0x00\n      dup1\n      revert\n    tag_51:\n      pop\n      tag_52\n      tag_53\n      jump\t// in\n    tag_52:\n      stop\n        /* \"AuctionWithIntermediary.sol\":2515:3232  function bid(uint _value) public {... */\n    tag_8:\n      callvalue\n      dup1\n      iszero\n      tag_54\n      jumpi\n      0x00\n      dup1\n      revert\n    tag_54:\n      pop\n      tag_55\n      0x04\n      dup1\n      calldatasize\n      sub\n      dup2\n      add\n      swap1\n      tag_56\n      swap2\n      swap1\n      tag_57\n      jump\t// in\n    tag_56:\n      tag_58\n      jump\t// in\n    tag_55:\n      stop\n        /* \"AuctionWithIntermediary.sol\":220:247  address public intermediary */\n    tag_9:\n      callvalue\n      dup1\n      iszero\n      tag_59\n      jumpi\n      0x00\n      dup1\n      revert\n    tag_59:\n      pop\n      tag_60\n      tag_61\n      jump\t// in\n    tag_60:\n      mload(0x40)\n      tag_62\n      swap2\n      swap1\n      tag_63\n      jump\t// in\n    tag_62:\n      mload(0x40)\n      dup1\n      swap2\n      sub\n      swap1\n      return\n        /* \"AuctionWithIntermediary.sol\":371:393  uint public winningBid */\n    tag_10:\n      callvalue\n      dup1\n      iszero\n      tag_64\n      jumpi\n      0x00\n      dup1\n      revert\n    tag_64:\n      pop\n      tag_65\n      tag_66\n      jump\t// in\n    tag_65:\n      mload(0x40)\n      tag_67\n      swap2\n      swap1\n      tag_37\n      jump\t// in\n    tag_67:\n      mload(0x40)\n      dup1\n      swap2\n      sub\n      swap1\n      return\n        /* \"AuctionWithIntermediary.sol\":107:127  address public owner */\n    tag_11:\n      callvalue\n      dup1\n      iszero\n      tag_68\n      jumpi\n      0x00\n      dup1\n      revert\n    tag_68:\n      pop\n      tag_69\n      tag_70\n      jump\t// in\n    tag_69:\n      mload(0x40)\n      tag_71\n      swap2\n      swap1\n      tag_63\n      jump\t// in\n    tag_71:\n      mload(0x40)\n      dup1\n      swap2\n      sub\n      swap1\n      return\n        /* \"AuctionWithIntermediary.sol\":4033:4439  function approvePayment() public onlyIntermediary {... */\n    tag_12:\n      callvalue\n      dup1\n      iszero\n      tag_72\n      jumpi\n      0x00\n      dup1\n      revert\n    tag_72:\n      pop\n      tag_73\n      tag_74\n      jump\t// in\n    tag_73:\n      stop\n        /* \"AuctionWithIntermediary.sol\":2257:2507  function setIntermediary(address _intermediary, uint _comission) public onlyOwner {... */\n    tag_13:\n      callvalue\n      dup1\n      iszero\n      tag_75\n      jumpi\n      0x00\n      dup1\n      revert\n    tag_75:\n      pop\n      tag_76\n      0x04\n      dup1\n      calldatasize\n      sub\n      dup2\n      add\n      swap1\n      tag_77\n      swap2\n      swap1\n      tag_78\n      jump\t// in\n    tag_77:\n      tag_79\n      jump\t// in\n    tag_76:\n      stop\n        /* \"AuctionWithIntermediary.sol\":954:982  bool public approvedByWinner */\n    tag_14:\n      callvalue\n      dup1\n      iszero\n      tag_80\n      jumpi\n      0x00\n      dup1\n      revert\n    tag_80:\n      pop\n      tag_81\n      tag_82\n      jump\t// in\n    tag_81:\n      mload(0x40)\n      tag_83\n      swap2\n      swap1\n      tag_32\n      jump\t// in\n    tag_83:\n      mload(0x40)\n      dup1\n      swap2\n      sub\n      swap1\n      return\n        /* \"AuctionWithIntermediary.sol\":3240:3412  function voteOwner(bool _vote) public onlyOwner {... */\n    tag_15:\n      callvalue\n      dup1\n      iszero\n      tag_84\n      jumpi\n      0x00\n      dup1\n      revert\n    tag_84:\n      pop\n      tag_85\n      0x04\n      dup1\n      calldatasize\n      sub\n      dup2\n      add\n      swap1\n      tag_86\n      swap2\n      swap1\n      tag_49\n      jump\t// in\n    tag_86:\n      tag_87\n      jump\t// in\n    tag_85:\n      stop\n        /* \"AuctionWithIntermediary.sol\":3606:4025  function payBid() public payable onlyWinner {... */\n    tag_16:\n      tag_88\n      tag_89\n      jump\t// in\n    tag_88:\n      stop\n        /* \"AuctionWithIntermediary.sol\":522:549  uint public auctionDeadline */\n    tag_17:\n      callvalue\n      dup1\n      iszero\n      tag_90\n      jumpi\n      0x00\n      dup1\n      revert\n    tag_90:\n      pop\n      tag_91\n      tag_92\n      jump\t// in\n    tag_91:\n      mload(0x40)\n      tag_93\n      swap2\n      swap1\n      tag_37\n      jump\t// in\n    tag_93:\n      mload(0x40)\n      dup1\n      swap2\n      sub\n      swap1\n      return\n        /* \"AuctionWithIntermediary.sol\":1083:1117  bool public approvedByIntermediary */\n    tag_18:\n      callvalue\n      dup1\n      iszero\n      tag_94\n      jumpi\n      0x00\n      dup1\n      revert\n    tag_94:\n      pop\n      tag_95\n      tag_96\n      jump\t// in\n    tag_95:\n      mload(0x40)\n      tag_97\n      swap2\n      swap1\n      tag_32\n      jump\t// in\n    tag_97:\n      mload(0x40)\n      dup1\n      swap2\n      sub\n      swap1\n      return\n        /* \"AuctionWithIntermediary.sol\":1020:1043  bool public winnerVoted */\n    tag_19:\n      callvalue\n      dup1\n      iszero\n      tag_98\n      jumpi\n      0x00\n      dup1\n      revert\n    tag_98:\n      pop\n      tag_99\n      tag_100\n      jump\t// in\n    tag_99:\n      mload(0x40)\n      tag_101\n      swap2\n      swap1\n      tag_32\n      jump\t// in\n    tag_101:\n      mload(0x40)\n      dup1\n      swap2\n      sub\n      swap1\n      return\n        /* \"AuctionWithIntermediary.sol\":342:364  uint public minimumBid */\n    tag_20:\n      callvalue\n      dup1\n      iszero\n      tag_102\n      jumpi\n      0x00\n      dup1\n      revert\n    tag_102:\n      pop\n      tag_103\n      tag_104\n      jump\t// in\n    tag_103:\n      mload(0x40)\n      tag_105\n      swap2\n      swap1\n      tag_37\n      jump\t// in\n    tag_105:\n      mload(0x40)\n      dup1\n      swap2\n      sub\n      swap1\n      return\n        /* \"AuctionWithIntermediary.sol\":991:1013  bool public ownerVoted */\n    tag_21:\n      callvalue\n      dup1\n      iszero\n      tag_106\n      jumpi\n      0x00\n      dup1\n      revert\n    tag_106:\n      pop\n      tag_107\n      tag_108\n      jump\t// in\n    tag_107:\n      mload(0x40)\n      tag_109\n      swap2\n      swap1\n      tag_32\n      jump\t// in\n    tag_109:\n      mload(0x40)\n      dup1\n      swap2\n      sub\n      swap1\n      return\n        /* \"AuctionWithIntermediary.sol\":167:188  address public winner */\n    tag_22:\n      callvalue\n      dup1\n      iszero\n      tag_110\n      jumpi\n      0x00\n      dup1\n      revert\n    tag_110:\n      pop\n      tag_111\n      tag_112\n      jump\t// in\n    tag_111:\n      mload(0x40)\n      tag_113\n      swap2\n      swap1\n      tag_63\n      jump\t// in\n    tag_113:\n      mload(0x40)\n      dup1\n      swap2\n      sub\n      swap1\n      return\n        /* \"AuctionWithIntermediary.sol\":1052:1076  bool public paidByWinner */\n    tag_23:\n      callvalue\n      dup1\n      iszero\n      tag_114\n      jumpi\n      0x00\n      dup1\n      revert\n    tag_114:\n      pop\n      tag_115\n      tag_116\n      jump\t// in\n    tag_115:\n      mload(0x40)\n      tag_117\n      swap2\n      swap1\n      tag_32\n      jump\t// in\n    tag_117:\n      mload(0x40)\n      dup1\n      swap2\n      sub\n      swap1\n      return\n        /* \"AuctionWithIntermediary.sol\":1124:1152  bool public collectedByOwner */\n    tag_24:\n      callvalue\n      dup1\n      iszero\n      tag_118\n      jumpi\n      0x00\n      dup1\n      revert\n    tag_118:\n      pop\n      tag_119\n      tag_120\n      jump\t// in\n    tag_119:\n      mload(0x40)\n      tag_121\n      swap2\n      swap1\n      tag_32\n      jump\t// in\n    tag_121:\n      mload(0x40)\n      dup1\n      swap2\n      sub\n      swap1\n      return\n        /* \"AuctionWithIntermediary.sol\":919:946  bool public approvedByOwner */\n    tag_30:\n      0x0b\n      0x00\n      swap1\n      sload\n      swap1\n      0x0100\n      exp\n      swap1\n      div\n      0xff\n      and\n      dup2\n      jump\t// out\n        /* \"AuctionWithIntermediary.sol\":587:615  uint public noOfParticipants */\n    tag_35:\n      sload(0x09)\n      dup2\n      jump\t// out\n        /* \"AuctionWithIntermediary.sol\":4926:5022  function getBalance() public view returns (uint) {... */\n    tag_40:\n        /* \"AuctionWithIntermediary.sol\":4969:4973  uint */\n      0x00\n        /* \"AuctionWithIntermediary.sol\":4993:5014  address(this).balance */\n      selfbalance\n        /* \"AuctionWithIntermediary.sol\":4986:5014  return address(this).balance */\n      swap1\n      pop\n        /* \"AuctionWithIntermediary.sol\":4926:5022  function getBalance() public view returns (uint) {... */\n      swap1\n      jump\t// out\n        /* \"AuctionWithIntermediary.sol\":415:435  uint public noOfBids */\n    tag_44:\n      sload(0x06)\n      dup2\n      jump\t// out\n        /* \"AuctionWithIntermediary.sol\":3420:3598  function voteWinner(bool _vote) public onlyWinner {... */\n    tag_50:\n        /* \"AuctionWithIntermediary.sol\":1351:1361  msg.sender */\n      caller\n        /* \"AuctionWithIntermediary.sol\":1341:1361  winner == msg.sender */\n      0xffffffffffffffffffffffffffffffffffffffff\n      and\n        /* \"AuctionWithIntermediary.sol\":1341:1347  winner */\n      0x01\n      0x00\n      swap1\n      sload\n      swap1\n      0x0100\n      exp\n      swap1\n      div\n      0xffffffffffffffffffffffffffffffffffffffff\n      and\n        /* \"AuctionWithIntermediary.sol\":1341:1361  winner == msg.sender */\n      0xffffffffffffffffffffffffffffffffffffffff\n      and\n      eq\n        /* \"AuctionWithIntermediary.sol\":1333:1414  require(winner == msg.sender, \"Action allowed only to the winner of the auction\") */\n      tag_124\n      jumpi\n      mload(0x40)\n      0x08c379a000000000000000000000000000000000000000000000000000000000\n      dup2\n      mstore\n      0x04\n      add\n      tag_125\n      swap1\n      tag_126\n      jump\t// in\n    tag_125:\n      mload(0x40)\n      dup1\n      swap2\n      sub\n      swap1\n      revert\n    tag_124:\n        /* \"AuctionWithIntermediary.sol\":3490:3501  winnerVoted */\n      0x0b\n      0x03\n      swap1\n      sload\n      swap1\n      0x0100\n      exp\n      swap1\n      div\n      0xff\n      and\n        /* \"AuctionWithIntermediary.sol\":3489:3501  !winnerVoted */\n      iszero\n        /* \"AuctionWithIntermediary.sol\":3481:3526  require(!winnerVoted, \"Winner already voted\") */\n      tag_128\n      jumpi\n      mload(0x40)\n      0x08c379a000000000000000000000000000000000000000000000000000000000\n      dup2\n      mstore\n      0x04\n      add\n      tag_129\n      swap1\n      tag_130\n      jump\t// in\n    tag_129:\n      mload(0x40)\n      dup1\n      swap2\n      sub\n      swap1\n      revert\n    tag_128:\n        /* \"AuctionWithIntermediary.sol\":3551:3555  true */\n      0x01\n        /* \"AuctionWithIntermediary.sol\":3537:3548  winnerVoted */\n      0x0b\n      0x03\n        /* \"AuctionWithIntermediary.sol\":3537:3555  winnerVoted = true */\n      0x0100\n      exp\n      dup2\n      sload\n      dup2\n      0xff\n      mul\n      not\n      and\n      swap1\n      dup4\n      iszero\n      iszero\n      mul\n      or\n      swap1\n      sstore\n      pop\n        /* \"AuctionWithIntermediary.sol\":3585:3590  _vote */\n      dup1\n        /* \"AuctionWithIntermediary.sol\":3566:3582  approvedByWinner */\n      0x0b\n      0x01\n        /* \"AuctionWithIntermediary.sol\":3566:3590  approvedByWinner = _vote */\n      0x0100\n      exp\n      dup2\n      sload\n      dup2\n      0xff\n      mul\n      not\n      and\n      swap1\n      dup4\n      iszero\n      iszero\n      mul\n      or\n      swap1\n      sstore\n      pop\n        /* \"AuctionWithIntermediary.sol\":3420:3598  function voteWinner(bool _vote) public onlyWinner {... */\n      pop\n      jump\t// out\n        /* \"AuctionWithIntermediary.sol\":4447:4918  function withdraw() public onlyOwner {... */\n    tag_53:\n        /* \"AuctionWithIntermediary.sol\":1210:1220  msg.sender */\n      caller\n        /* \"AuctionWithIntermediary.sol\":1201:1220  owner == msg.sender */\n      0xffffffffffffffffffffffffffffffffffffffff\n      and\n        /* \"AuctionWithIntermediary.sol\":1201:1206  owner */\n      0x00\n      dup1\n      sload\n      swap1\n      0x0100\n      exp\n      swap1\n      div\n      0xffffffffffffffffffffffffffffffffffffffff\n      and\n        /* \"AuctionWithIntermediary.sol\":1201:1220  owner == msg.sender */\n      0xffffffffffffffffffffffffffffffffffffffff\n      and\n      eq\n        /* \"AuctionWithIntermediary.sol\":1193:1272  require(owner == msg.sender, \"Action allowed only to the owner of the auction\") */\n      tag_132\n      jumpi\n      mload(0x40)\n      0x08c379a000000000000000000000000000000000000000000000000000000000\n      dup2\n      mstore\n      0x04\n      add\n      tag_133\n      swap1\n      tag_134\n      jump\t// in\n    tag_133:\n      mload(0x40)\n      dup1\n      swap2\n      sub\n      swap1\n      revert\n    tag_132:\n        /* \"AuctionWithIntermediary.sol\":4503:4525  approvedByIntermediary */\n      0x0b\n      0x05\n      swap1\n      sload\n      swap1\n      0x0100\n      exp\n      swap1\n      div\n      0xff\n      and\n        /* \"AuctionWithIntermediary.sol\":4495:4587  require(approvedByIntermediary, \"The payment has not been approved by the intermediary yet\") */\n      tag_136\n      jumpi\n      mload(0x40)\n      0x08c379a000000000000000000000000000000000000000000000000000000000\n      dup2\n      mstore\n      0x04\n      add\n      tag_137\n      swap1\n      tag_138\n      jump\t// in\n    tag_137:\n      mload(0x40)\n      dup1\n      swap2\n      sub\n      swap1\n      revert\n    tag_136:\n        /* \"AuctionWithIntermediary.sol\":4607:4623  collectedByOwner */\n      0x0b\n      0x06\n      swap1\n      sload\n      swap1\n      0x0100\n      exp\n      swap1\n      div\n      0xff\n      and\n        /* \"AuctionWithIntermediary.sol\":4606:4623  !collectedByOwner */\n      iszero\n        /* \"AuctionWithIntermediary.sol\":4598:4661  require(!collectedByOwner, \"You already collected the payment\") */\n      tag_139\n      jumpi\n      mload(0x40)\n      0x08c379a000000000000000000000000000000000000000000000000000000000\n      dup2\n      mstore\n      0x04\n      add\n      tag_140\n      swap1\n      tag_141\n      jump\t// in\n    tag_140:\n      mload(0x40)\n      dup1\n      swap2\n      sub\n      swap1\n      revert\n    tag_139:\n        /* \"AuctionWithIntermediary.sol\":4713:4718  owner */\n      0x00\n      dup1\n      sload\n      swap1\n      0x0100\n      exp\n      swap1\n      div\n      0xffffffffffffffffffffffffffffffffffffffff\n      and\n        /* \"AuctionWithIntermediary.sol\":4705:4728  payable(owner).transfer */\n      0xffffffffffffffffffffffffffffffffffffffff\n      and\n        /* \"AuctionWithIntermediary.sol\":4705:4764  payable(owner).transfer(winningBid - intermediaryComission) */\n      0x08fc\n        /* \"AuctionWithIntermediary.sol\":4742:4763  intermediaryComission */\n      sload(0x07)\n        /* \"AuctionWithIntermediary.sol\":4729:4739  winningBid */\n      sload(0x05)\n        /* \"AuctionWithIntermediary.sol\":4729:4763  winningBid - intermediaryComission */\n      tag_142\n      swap2\n      swap1\n      tag_143\n      jump\t// in\n    tag_142:\n        /* \"AuctionWithIntermediary.sol\":4705:4764  payable(owner).transfer(winningBid - intermediaryComission) */\n      swap1\n      dup2\n      iszero\n      mul\n      swap1\n      mload(0x40)\n      0x00\n      mload(0x40)\n      dup1\n      dup4\n      sub\n      dup2\n      dup6\n      dup9\n      dup9\n      call\n      swap4\n      pop\n      pop\n      pop\n      pop\n      iszero\n      dup1\n      iszero\n      tag_145\n      jumpi\n      returndatasize\n      0x00\n      dup1\n      returndatacopy\n      revert(0x00, returndatasize)\n    tag_145:\n      pop\n        /* \"AuctionWithIntermediary.sol\":4829:4841  intermediary */\n      0x02\n      0x00\n      swap1\n      sload\n      swap1\n      0x0100\n      exp\n      swap1\n      div\n      0xffffffffffffffffffffffffffffffffffffffff\n      and\n        /* \"AuctionWithIntermediary.sol\":4821:4851  payable(intermediary).transfer */\n      0xffffffffffffffffffffffffffffffffffffffff\n      and\n        /* \"AuctionWithIntermediary.sol\":4821:4874  payable(intermediary).transfer(intermediaryComission) */\n      0x08fc\n        /* \"AuctionWithIntermediary.sol\":4852:4873  intermediaryComission */\n      sload(0x07)\n        /* \"AuctionWithIntermediary.sol\":4821:4874  payable(intermediary).transfer(intermediaryComission) */\n      swap1\n      dup2\n      iszero\n      mul\n      swap1\n      mload(0x40)\n      0x00\n      mload(0x40)\n      dup1\n      dup4\n      sub\n      dup2\n      dup6\n      dup9\n      dup9\n      call\n      swap4\n      pop\n      pop\n      pop\n      pop\n      iszero\n      dup1\n      iszero\n      tag_147\n      jumpi\n      returndatasize\n      0x00\n      dup1\n      returndatacopy\n      revert(0x00, returndatasize)\n    tag_147:\n      pop\n        /* \"AuctionWithIntermediary.sol\":4906:4910  true */\n      0x01\n        /* \"AuctionWithIntermediary.sol\":4887:4903  collectedByOwner */\n      0x0b\n      0x06\n        /* \"AuctionWithIntermediary.sol\":4887:4910  collectedByOwner = true */\n      0x0100\n      exp\n      dup2\n      sload\n      dup2\n      0xff\n      mul\n      not\n      and\n      swap1\n      dup4\n      iszero\n      iszero\n      mul\n      or\n      swap1\n      sstore\n      pop\n        /* \"AuctionWithIntermediary.sol\":4447:4918  function withdraw() public onlyOwner {... */\n      jump\t// out\n        /* \"AuctionWithIntermediary.sol\":2515:3232  function bid(uint _value) public {... */\n    tag_58:\n        /* \"AuctionWithIntermediary.sol\":2576:2586  msg.sender */\n      caller\n        /* \"AuctionWithIntermediary.sol\":2567:2586  owner != msg.sender */\n      0xffffffffffffffffffffffffffffffffffffffff\n      and\n        /* \"AuctionWithIntermediary.sol\":2567:2572  owner */\n      0x00\n      dup1\n      sload\n      swap1\n      0x0100\n      exp\n      swap1\n      div\n      0xffffffffffffffffffffffffffffffffffffffff\n      and\n        /* \"AuctionWithIntermediary.sol\":2567:2586  owner != msg.sender */\n      0xffffffffffffffffffffffffffffffffffffffff\n      and\n      sub\n        /* \"AuctionWithIntermediary.sol\":2559:2623  require(owner != msg.sender, \"Owners cannot bid in the auction\") */\n      tag_149\n      jumpi\n      mload(0x40)\n      0x08c379a000000000000000000000000000000000000000000000000000000000\n      dup2\n      mstore\n      0x04\n      add\n      tag_150\n      swap1\n      tag_151\n      jump\t// in\n    tag_150:\n      mload(0x40)\n      dup1\n      swap2\n      sub\n      swap1\n      revert\n    tag_149:\n        /* \"AuctionWithIntermediary.sol\":2660:2675  auctionDeadline */\n      sload(0x08)\n        /* \"AuctionWithIntermediary.sol\":2642:2657  block.timestamp */\n      timestamp\n        /* \"AuctionWithIntermediary.sol\":2642:2675  block.timestamp < auctionDeadline */\n      lt\n        /* \"AuctionWithIntermediary.sol\":2634:2697  require(block.timestamp < auctionDeadline, \"Auction is closed\") */\n      tag_152\n      jumpi\n      mload(0x40)\n      0x08c379a000000000000000000000000000000000000000000000000000000000\n      dup2\n      mstore\n      0x04\n      add\n      tag_153\n      swap1\n      tag_154\n      jump\t// in\n    tag_153:\n      mload(0x40)\n      dup1\n      swap2\n      sub\n      swap1\n      revert\n    tag_152:\n        /* \"AuctionWithIntermediary.sol\":2726:2736  minimumBid */\n      sload(0x04)\n        /* \"AuctionWithIntermediary.sol\":2716:2722  _value */\n      dup2\n        /* \"AuctionWithIntermediary.sol\":2716:2736  _value >= minimumBid */\n      lt\n      iszero\n        /* \"AuctionWithIntermediary.sol\":2708:2755  require(_value >= minimumBid, \"Bid is too low\") */\n      tag_155\n      jumpi\n      mload(0x40)\n      0x08c379a000000000000000000000000000000000000000000000000000000000\n      dup2\n      mstore\n      0x04\n      add\n      tag_156\n      swap1\n      tag_157\n      jump\t// in\n    tag_156:\n      mload(0x40)\n      dup1\n      swap2\n      sub\n      swap1\n      revert\n    tag_155:\n        /* \"AuctionWithIntermediary.sol\":2768:2799  Participant storage participant */\n      0x00\n        /* \"AuctionWithIntermediary.sol\":2802:2814  participants */\n      0x0a\n        /* \"AuctionWithIntermediary.sol\":2802:2826  participants[msg.sender] */\n      0x00\n        /* \"AuctionWithIntermediary.sol\":2815:2825  msg.sender */\n      caller\n        /* \"AuctionWithIntermediary.sol\":2802:2826  participants[msg.sender] */\n      0xffffffffffffffffffffffffffffffffffffffff\n      and\n      0xffffffffffffffffffffffffffffffffffffffff\n      and\n      dup2\n      mstore\n      0x20\n      add\n      swap1\n      dup2\n      mstore\n      0x20\n      add\n      0x00\n      keccak256\n        /* \"AuctionWithIntermediary.sol\":2768:2826  Participant storage participant = participants[msg.sender] */\n      swap1\n      pop\n        /* \"AuctionWithIntermediary.sol\":2870:2871  0 */\n      0x00\n        /* \"AuctionWithIntermediary.sol\":2842:2853  participant */\n      dup2\n        /* \"AuctionWithIntermediary.sol\":2842:2866  participant.amountBidded */\n      0x00\n      add\n      sload\n        /* \"AuctionWithIntermediary.sol\":2842:2871  participant.amountBidded == 0 */\n      sub\n        /* \"AuctionWithIntermediary.sol\":2839:2945  if(participant.amountBidded == 0) {... */\n      tag_158\n      jumpi\n        /* \"AuctionWithIntermediary.sol\":2915:2931  noOfParticipants */\n      0x09\n      0x00\n        /* \"AuctionWithIntermediary.sol\":2915:2933  noOfParticipants++ */\n      dup2\n      sload\n      dup1\n      swap3\n      swap2\n      swap1\n      tag_159\n      swap1\n      tag_160\n      jump\t// in\n    tag_159:\n      swap2\n      swap1\n      pop\n      sstore\n      pop\n        /* \"AuctionWithIntermediary.sol\":2839:2945  if(participant.amountBidded == 0) {... */\n    tag_158:\n        /* \"AuctionWithIntermediary.sol\":2984:2990  _value */\n      dup2\n        /* \"AuctionWithIntermediary.sol\":2957:2968  participant */\n      dup2\n        /* \"AuctionWithIntermediary.sol\":2957:2981  participant.amountBidded */\n      0x00\n      add\n        /* \"AuctionWithIntermediary.sol\":2957:2990  participant.amountBidded = _value */\n      dup2\n      swap1\n      sstore\n      pop\n        /* \"AuctionWithIntermediary.sol\":3025:3040  block.timestamp */\n      timestamp\n        /* \"AuctionWithIntermediary.sol\":3001:3012  participant */\n      dup2\n        /* \"AuctionWithIntermediary.sol\":3001:3022  participant.dateOfBid */\n      0x01\n      add\n        /* \"AuctionWithIntermediary.sol\":3001:3040  participant.dateOfBid = block.timestamp */\n      dup2\n      swap1\n      sstore\n      pop\n        /* \"AuctionWithIntermediary.sol\":3092:3102  winningBid */\n      sload(0x05)\n        /* \"AuctionWithIntermediary.sol\":3064:3075  participant */\n      dup2\n        /* \"AuctionWithIntermediary.sol\":3064:3088  participant.amountBidded */\n      0x00\n      add\n      sload\n        /* \"AuctionWithIntermediary.sol\":3064:3102  participant.amountBidded >= winningBid */\n      lt\n        /* \"AuctionWithIntermediary.sol\":3061:3202  if(participant.amountBidded >= winningBid) {... */\n      tag_161\n      jumpi\n        /* \"AuctionWithIntermediary.sol\":3132:3143  participant */\n      dup1\n        /* \"AuctionWithIntermediary.sol\":3132:3156  participant.amountBidded */\n      0x00\n      add\n      sload\n        /* \"AuctionWithIntermediary.sol\":3119:3129  winningBid */\n      0x05\n        /* \"AuctionWithIntermediary.sol\":3119:3156  winningBid = participant.amountBidded */\n      dup2\n      swap1\n      sstore\n      pop\n        /* \"AuctionWithIntermediary.sol\":3180:3190  msg.sender */\n      caller\n        /* \"AuctionWithIntermediary.sol\":3171:3177  winner */\n      0x01\n      0x00\n        /* \"AuctionWithIntermediary.sol\":3171:3190  winner = msg.sender */\n      0x0100\n      exp\n      dup2\n      sload\n      dup2\n      0xffffffffffffffffffffffffffffffffffffffff\n      mul\n      not\n      and\n      swap1\n      dup4\n      0xffffffffffffffffffffffffffffffffffffffff\n      and\n      mul\n      or\n      swap1\n      sstore\n      pop\n        /* \"AuctionWithIntermediary.sol\":3061:3202  if(participant.amountBidded >= winningBid) {... */\n    tag_161:\n        /* \"AuctionWithIntermediary.sol\":3214:3222  noOfBids */\n      0x06\n      0x00\n        /* \"AuctionWithIntermediary.sol\":3214:3224  noOfBids++ */\n      dup2\n      sload\n      dup1\n      swap3\n      swap2\n      swap1\n      tag_162\n      swap1\n      tag_160\n      jump\t// in\n    tag_162:\n      swap2\n      swap1\n      pop\n      sstore\n      pop\n        /* \"AuctionWithIntermediary.sol\":2548:3232  {... */\n      pop\n        /* \"AuctionWithIntermediary.sol\":2515:3232  function bid(uint _value) public {... */\n      pop\n      jump\t// out\n        /* \"AuctionWithIntermediary.sol\":220:247  address public intermediary */\n    tag_61:\n      0x02\n      0x00\n      swap1\n      sload\n      swap1\n      0x0100\n      exp\n      swap1\n      div\n      0xffffffffffffffffffffffffffffffffffffffff\n      and\n      dup2\n      jump\t// out\n        /* \"AuctionWithIntermediary.sol\":371:393  uint public winningBid */\n    tag_66:\n      sload(0x05)\n      dup2\n      jump\t// out\n        /* \"AuctionWithIntermediary.sol\":107:127  address public owner */\n    tag_70:\n      0x00\n      dup1\n      sload\n      swap1\n      0x0100\n      exp\n      swap1\n      div\n      0xffffffffffffffffffffffffffffffffffffffff\n      and\n      dup2\n      jump\t// out\n        /* \"AuctionWithIntermediary.sol\":4033:4439  function approvePayment() public onlyIntermediary {... */\n    tag_74:\n        /* \"AuctionWithIntermediary.sol\":1505:1515  msg.sender */\n      caller\n        /* \"AuctionWithIntermediary.sol\":1489:1515  intermediary == msg.sender */\n      0xffffffffffffffffffffffffffffffffffffffff\n      and\n        /* \"AuctionWithIntermediary.sol\":1489:1501  intermediary */\n      0x02\n      0x00\n      swap1\n      sload\n      swap1\n      0x0100\n      exp\n      swap1\n      div\n      0xffffffffffffffffffffffffffffffffffffffff\n      and\n        /* \"AuctionWithIntermediary.sol\":1489:1515  intermediary == msg.sender */\n      0xffffffffffffffffffffffffffffffffffffffff\n      and\n      eq\n        /* \"AuctionWithIntermediary.sol\":1481:1574  require(intermediary == msg.sender, \"Action allowed only to the intermediary of the auction\") */\n      tag_164\n      jumpi\n      mload(0x40)\n      0x08c379a000000000000000000000000000000000000000000000000000000000\n      dup2\n      mstore\n      0x04\n      add\n      tag_165\n      swap1\n      tag_166\n      jump\t// in\n    tag_165:\n      mload(0x40)\n      dup1\n      swap2\n      sub\n      swap1\n      revert\n    tag_164:\n        /* \"AuctionWithIntermediary.sol\":4102:4114  paidByWinner */\n      0x0b\n      0x04\n      swap1\n      sload\n      swap1\n      0x0100\n      exp\n      swap1\n      div\n      0xff\n      and\n        /* \"AuctionWithIntermediary.sol\":4094:4162  require(paidByWinner, \"The bid has not been paid by the winner yet\") */\n      tag_168\n      jumpi\n      mload(0x40)\n      0x08c379a000000000000000000000000000000000000000000000000000000000\n      dup2\n      mstore\n      0x04\n      add\n      tag_169\n      swap1\n      tag_170\n      jump\t// in\n    tag_169:\n      mload(0x40)\n      dup1\n      swap2\n      sub\n      swap1\n      revert\n    tag_168:\n        /* \"AuctionWithIntermediary.sol\":4181:4196  approvedByOwner */\n      0x0b\n      0x00\n      swap1\n      sload\n      swap1\n      0x0100\n      exp\n      swap1\n      div\n      0xff\n      and\n        /* \"AuctionWithIntermediary.sol\":4173:4240  require(approvedByOwner, \"Owner has not approved the intermediary\") */\n      tag_171\n      jumpi\n      mload(0x40)\n      0x08c379a000000000000000000000000000000000000000000000000000000000\n      dup2\n      mstore\n      0x04\n      add\n      tag_172\n      swap1\n      tag_173\n      jump\t// in\n    tag_172:\n      mload(0x40)\n      dup1\n      swap2\n      sub\n      swap1\n      revert\n    tag_171:\n        /* \"AuctionWithIntermediary.sol\":4259:4275  approvedByWinner */\n      0x0b\n      0x01\n      swap1\n      sload\n      swap1\n      0x0100\n      exp\n      swap1\n      div\n      0xff\n      and\n        /* \"AuctionWithIntermediary.sol\":4251:4320  require(approvedByWinner, \"Winner has not approved the intermediary\") */\n      tag_174\n      jumpi\n      mload(0x40)\n      0x08c379a000000000000000000000000000000000000000000000000000000000\n      dup2\n      mstore\n      0x04\n      add\n      tag_175\n      swap1\n      tag_176\n      jump\t// in\n    tag_175:\n      mload(0x40)\n      dup1\n      swap2\n      sub\n      swap1\n      revert\n    tag_174:\n        /* \"AuctionWithIntermediary.sol\":4340:4362  approvedByIntermediary */\n      0x0b\n      0x05\n      swap1\n      sload\n      swap1\n      0x0100\n      exp\n      swap1\n      div\n      0xff\n      and\n        /* \"AuctionWithIntermediary.sol\":4339:4362  !approvedByIntermediary */\n      iszero\n        /* \"AuctionWithIntermediary.sol\":4331:4391  require(!approvedByIntermediary, \"Payment already approved\") */\n      tag_177\n      jumpi\n      mload(0x40)\n      0x08c379a000000000000000000000000000000000000000000000000000000000\n      dup2\n      mstore\n      0x04\n      add\n      tag_178\n      swap1\n      tag_179\n      jump\t// in\n    tag_178:\n      mload(0x40)\n      dup1\n      swap2\n      sub\n      swap1\n      revert\n    tag_177:\n        /* \"AuctionWithIntermediary.sol\":4427:4431  true */\n      0x01\n        /* \"AuctionWithIntermediary.sol\":4402:4424  approvedByIntermediary */\n      0x0b\n      0x05\n        /* \"AuctionWithIntermediary.sol\":4402:4431  approvedByIntermediary = true */\n      0x0100\n      exp\n      dup2\n      sload\n      dup2\n      0xff\n      mul\n      not\n      and\n      swap1\n      dup4\n      iszero\n      iszero\n      mul\n      or\n      swap1\n      sstore\n      pop\n        /* \"AuctionWithIntermediary.sol\":4033:4439  function approvePayment() public onlyIntermediary {... */\n      jump\t// out\n        /* \"AuctionWithIntermediary.sol\":2257:2507  function setIntermediary(address _intermediary, uint _comission) public onlyOwner {... */\n    tag_79:\n        /* \"AuctionWithIntermediary.sol\":1210:1220  msg.sender */\n      caller\n        /* \"AuctionWithIntermediary.sol\":1201:1220  owner == msg.sender */\n      0xffffffffffffffffffffffffffffffffffffffff\n      and\n        /* \"AuctionWithIntermediary.sol\":1201:1206  owner */\n      0x00\n      dup1\n      sload\n      swap1\n      0x0100\n      exp\n      swap1\n      div\n      0xffffffffffffffffffffffffffffffffffffffff\n      and\n        /* \"AuctionWithIntermediary.sol\":1201:1220  owner == msg.sender */\n      0xffffffffffffffffffffffffffffffffffffffff\n      and\n      eq\n        /* \"AuctionWithIntermediary.sol\":1193:1272  require(owner == msg.sender, \"Action allowed only to the owner of the auction\") */\n      tag_181\n      jumpi\n      mload(0x40)\n      0x08c379a000000000000000000000000000000000000000000000000000000000\n      dup2\n      mstore\n      0x04\n      add\n      tag_182\n      swap1\n      tag_134\n      jump\t// in\n    tag_182:\n      mload(0x40)\n      dup1\n      swap2\n      sub\n      swap1\n      revert\n    tag_181:\n        /* \"AuctionWithIntermediary.sol\":2382:2383  0 */\n      0x00\n        /* \"AuctionWithIntermediary.sol\":2358:2384  intermediary == address(0) */\n      0xffffffffffffffffffffffffffffffffffffffff\n      and\n        /* \"AuctionWithIntermediary.sol\":2358:2370  intermediary */\n      0x02\n      0x00\n      swap1\n      sload\n      swap1\n      0x0100\n      exp\n      swap1\n      div\n      0xffffffffffffffffffffffffffffffffffffffff\n      and\n        /* \"AuctionWithIntermediary.sol\":2358:2384  intermediary == address(0) */\n      0xffffffffffffffffffffffffffffffffffffffff\n      and\n      eq\n        /* \"AuctionWithIntermediary.sol\":2350:2413  require(intermediary == address(0), \"Intermediary already set\") */\n      tag_184\n      jumpi\n      mload(0x40)\n      0x08c379a000000000000000000000000000000000000000000000000000000000\n      dup2\n      mstore\n      0x04\n      add\n      tag_185\n      swap1\n      tag_186\n      jump\t// in\n    tag_185:\n      mload(0x40)\n      dup1\n      swap2\n      sub\n      swap1\n      revert\n    tag_184:\n        /* \"AuctionWithIntermediary.sol\":2441:2454  _intermediary */\n      dup2\n        /* \"AuctionWithIntermediary.sol\":2426:2438  intermediary */\n      0x02\n      0x00\n        /* \"AuctionWithIntermediary.sol\":2426:2454  intermediary = _intermediary */\n      0x0100\n      exp\n      dup2\n      sload\n      dup2\n      0xffffffffffffffffffffffffffffffffffffffff\n      mul\n      not\n      and\n      swap1\n      dup4\n      0xffffffffffffffffffffffffffffffffffffffff\n      and\n      mul\n      or\n      swap1\n      sstore\n      pop\n        /* \"AuctionWithIntermediary.sol\":2489:2499  _comission */\n      dup1\n        /* \"AuctionWithIntermediary.sol\":2465:2486  intermediaryComission */\n      0x07\n        /* \"AuctionWithIntermediary.sol\":2465:2499  intermediaryComission = _comission */\n      dup2\n      swap1\n      sstore\n      pop\n        /* \"AuctionWithIntermediary.sol\":2257:2507  function setIntermediary(address _intermediary, uint _comission) public onlyOwner {... */\n      pop\n      pop\n      jump\t// out\n        /* \"AuctionWithIntermediary.sol\":954:982  bool public approvedByWinner */\n    tag_82:\n      0x0b\n      0x01\n      swap1\n      sload\n      swap1\n      0x0100\n      exp\n      swap1\n      div\n      0xff\n      and\n      dup2\n      jump\t// out\n        /* \"AuctionWithIntermediary.sol\":3240:3412  function voteOwner(bool _vote) public onlyOwner {... */\n    tag_87:\n        /* \"AuctionWithIntermediary.sol\":1210:1220  msg.sender */\n      caller\n        /* \"AuctionWithIntermediary.sol\":1201:1220  owner == msg.sender */\n      0xffffffffffffffffffffffffffffffffffffffff\n      and\n        /* \"AuctionWithIntermediary.sol\":1201:1206  owner */\n      0x00\n      dup1\n      sload\n      swap1\n      0x0100\n      exp\n      swap1\n      div\n      0xffffffffffffffffffffffffffffffffffffffff\n      and\n        /* \"AuctionWithIntermediary.sol\":1201:1220  owner == msg.sender */\n      0xffffffffffffffffffffffffffffffffffffffff\n      and\n      eq\n        /* \"AuctionWithIntermediary.sol\":1193:1272  require(owner == msg.sender, \"Action allowed only to the owner of the auction\") */\n      tag_188\n      jumpi\n      mload(0x40)\n      0x08c379a000000000000000000000000000000000000000000000000000000000\n      dup2\n      mstore\n      0x04\n      add\n      tag_189\n      swap1\n      tag_134\n      jump\t// in\n    tag_189:\n      mload(0x40)\n      dup1\n      swap2\n      sub\n      swap1\n      revert\n    tag_188:\n        /* \"AuctionWithIntermediary.sol\":3308:3318  ownerVoted */\n      0x0b\n      0x02\n      swap1\n      sload\n      swap1\n      0x0100\n      exp\n      swap1\n      div\n      0xff\n      and\n        /* \"AuctionWithIntermediary.sol\":3307:3318  !ownerVoted */\n      iszero\n        /* \"AuctionWithIntermediary.sol\":3299:3342  require(!ownerVoted, \"Owner already voted\") */\n      tag_191\n      jumpi\n      mload(0x40)\n      0x08c379a000000000000000000000000000000000000000000000000000000000\n      dup2\n      mstore\n      0x04\n      add\n      tag_192\n      swap1\n      tag_193\n      jump\t// in\n    tag_192:\n      mload(0x40)\n      dup1\n      swap2\n      sub\n      swap1\n      revert\n    tag_191:\n        /* \"AuctionWithIntermediary.sol\":3366:3370  true */\n      0x01\n        /* \"AuctionWithIntermediary.sol\":3353:3363  ownerVoted */\n      0x0b\n      0x02\n        /* \"AuctionWithIntermediary.sol\":3353:3370  ownerVoted = true */\n      0x0100\n      exp\n      dup2\n      sload\n      dup2\n      0xff\n      mul\n      not\n      and\n      swap1\n      dup4\n      iszero\n      iszero\n      mul\n      or\n      swap1\n      sstore\n      pop\n        /* \"AuctionWithIntermediary.sol\":3399:3404  _vote */\n      dup1\n        /* \"AuctionWithIntermediary.sol\":3381:3396  approvedByOwner */\n      0x0b\n      0x00\n        /* \"AuctionWithIntermediary.sol\":3381:3404  approvedByOwner = _vote */\n      0x0100\n      exp\n      dup2\n      sload\n      dup2\n      0xff\n      mul\n      not\n      and\n      swap1\n      dup4\n      iszero\n      iszero\n      mul\n      or\n      swap1\n      sstore\n      pop\n        /* \"AuctionWithIntermediary.sol\":3240:3412  function voteOwner(bool _vote) public onlyOwner {... */\n      pop\n      jump\t// out\n        /* \"AuctionWithIntermediary.sol\":3606:4025  function payBid() public payable onlyWinner {... */\n    tag_89:\n        /* \"AuctionWithIntermediary.sol\":1351:1361  msg.sender */\n      caller\n        /* \"AuctionWithIntermediary.sol\":1341:1361  winner == msg.sender */\n      0xffffffffffffffffffffffffffffffffffffffff\n      and\n        /* \"AuctionWithIntermediary.sol\":1341:1347  winner */\n      0x01\n      0x00\n      swap1\n      sload\n      swap1\n      0x0100\n      exp\n      swap1\n      div\n      0xffffffffffffffffffffffffffffffffffffffff\n      and\n        /* \"AuctionWithIntermediary.sol\":1341:1361  winner == msg.sender */\n      0xffffffffffffffffffffffffffffffffffffffff\n      and\n      eq\n        /* \"AuctionWithIntermediary.sol\":1333:1414  require(winner == msg.sender, \"Action allowed only to the winner of the auction\") */\n      tag_195\n      jumpi\n      mload(0x40)\n      0x08c379a000000000000000000000000000000000000000000000000000000000\n      dup2\n      mstore\n      0x04\n      add\n      tag_196\n      swap1\n      tag_126\n      jump\t// in\n    tag_196:\n      mload(0x40)\n      dup1\n      swap2\n      sub\n      swap1\n      revert\n    tag_195:\n        /* \"AuctionWithIntermediary.sol\":3720:3730  winningBid */\n      sload(0x05)\n        /* \"AuctionWithIntermediary.sol\":3707:3716  msg.value */\n      callvalue\n        /* \"AuctionWithIntermediary.sol\":3707:3730  msg.value == winningBid */\n      eq\n        /* \"AuctionWithIntermediary.sol\":3699:3784  require(msg.value == winningBid, \"You must pay an amount equal to the amount bidded\") */\n      tag_198\n      jumpi\n      mload(0x40)\n      0x08c379a000000000000000000000000000000000000000000000000000000000\n      dup2\n      mstore\n      0x04\n      add\n      tag_199\n      swap1\n      tag_200\n      jump\t// in\n    tag_199:\n      mload(0x40)\n      dup1\n      swap2\n      sub\n      swap1\n      revert\n    tag_198:\n        /* \"AuctionWithIntermediary.sol\":3804:3816  paidByWinner */\n      0x0b\n      0x04\n      swap1\n      sload\n      swap1\n      0x0100\n      exp\n      swap1\n      div\n      0xff\n      and\n        /* \"AuctionWithIntermediary.sol\":3803:3816  !paidByWinner */\n      iszero\n        /* \"AuctionWithIntermediary.sol\":3795:3848  require(!paidByWinner, \"Winner already paid the bid\") */\n      tag_201\n      jumpi\n      mload(0x40)\n      0x08c379a000000000000000000000000000000000000000000000000000000000\n      dup2\n      mstore\n      0x04\n      add\n      tag_202\n      swap1\n      tag_203\n      jump\t// in\n    tag_202:\n      mload(0x40)\n      dup1\n      swap2\n      sub\n      swap1\n      revert\n    tag_201:\n        /* \"AuctionWithIntermediary.sol\":3885:3900  auctionDeadline */\n      sload(0x08)\n        /* \"AuctionWithIntermediary.sol\":3867:3882  block.timestamp */\n      timestamp\n        /* \"AuctionWithIntermediary.sol\":3867:3900  block.timestamp > auctionDeadline */\n      gt\n        /* \"AuctionWithIntermediary.sol\":3859:3935  require(block.timestamp > auctionDeadline, \"The auction has not closed yet\") */\n      tag_204\n      jumpi\n      mload(0x40)\n      0x08c379a000000000000000000000000000000000000000000000000000000000\n      dup2\n      mstore\n      0x04\n      add\n      tag_205\n      swap1\n      tag_206\n      jump\t// in\n    tag_205:\n      mload(0x40)\n      dup1\n      swap2\n      sub\n      swap1\n      revert\n    tag_204:\n        /* \"AuctionWithIntermediary.sol\":4013:4017  true */\n      0x01\n        /* \"AuctionWithIntermediary.sol\":3998:4010  paidByWinner */\n      0x0b\n      0x04\n        /* \"AuctionWithIntermediary.sol\":3998:4017  paidByWinner = true */\n      0x0100\n      exp\n      dup2\n      sload\n      dup2\n      0xff\n      mul\n      not\n      and\n      swap1\n      dup4\n      iszero\n      iszero\n      mul\n      or\n      swap1\n      sstore\n      pop\n        /* \"AuctionWithIntermediary.sol\":3606:4025  function payBid() public payable onlyWinner {... */\n      jump\t// out\n        /* \"AuctionWithIntermediary.sol\":522:549  uint public auctionDeadline */\n    tag_92:\n      sload(0x08)\n      dup2\n      jump\t// out\n        /* \"AuctionWithIntermediary.sol\":1083:1117  bool public approvedByIntermediary */\n    tag_96:\n      0x0b\n      0x05\n      swap1\n      sload\n      swap1\n      0x0100\n      exp\n      swap1\n      div\n      0xff\n      and\n      dup2\n      jump\t// out\n        /* \"AuctionWithIntermediary.sol\":1020:1043  bool public winnerVoted */\n    tag_100:\n      0x0b\n      0x03\n      swap1\n      sload\n      swap1\n      0x0100\n      exp\n      swap1\n      div\n      0xff\n      and\n      dup2\n      jump\t// out\n        /* \"AuctionWithIntermediary.sol\":342:364  uint public minimumBid */\n    tag_104:\n      sload(0x04)\n      dup2\n      jump\t// out\n        /* \"AuctionWithIntermediary.sol\":991:1013  bool public ownerVoted */\n    tag_108:\n      0x0b\n      0x02\n      swap1\n      sload\n      swap1\n      0x0100\n      exp\n      swap1\n      div\n      0xff\n      and\n      dup2\n      jump\t// out\n        /* \"AuctionWithIntermediary.sol\":167:188  address public winner */\n    tag_112:\n      0x01\n      0x00\n      swap1\n      sload\n      swap1\n      0x0100\n      exp\n      swap1\n      div\n      0xffffffffffffffffffffffffffffffffffffffff\n      and\n      dup2\n      jump\t// out\n        /* \"AuctionWithIntermediary.sol\":1052:1076  bool public paidByWinner */\n    tag_116:\n      0x0b\n      0x04\n      swap1\n      sload\n      swap1\n      0x0100\n      exp\n      swap1\n      div\n      0xff\n      and\n      dup2\n      jump\t// out\n        /* \"AuctionWithIntermediary.sol\":1124:1152  bool public collectedByOwner */\n    tag_120:\n      0x0b\n      0x06\n      swap1\n      sload\n      swap1\n      0x0100\n      exp\n      swap1\n      div\n      0xff\n      and\n      dup2\n      jump\t// out\n        /* \"#utility.yul\":7:97   */\n    tag_207:\n        /* \"#utility.yul\":41:48   */\n      0x00\n        /* \"#utility.yul\":84:89   */\n      dup2\n        /* \"#utility.yul\":77:90   */\n      iszero\n        /* \"#utility.yul\":70:91   */\n      iszero\n        /* \"#utility.yul\":59:91   */\n      swap1\n      pop\n        /* \"#utility.yul\":7:97   */\n      swap2\n      swap1\n      pop\n      jump\t// out\n        /* \"#utility.yul\":103:212   */\n    tag_208:\n        /* \"#utility.yul\":184:205   */\n      tag_264\n        /* \"#utility.yul\":199:204   */\n      dup2\n        /* \"#utility.yul\":184:205   */\n      tag_207\n      jump\t// in\n    tag_264:\n        /* \"#utility.yul\":179:182   */\n      dup3\n        /* \"#utility.yul\":172:206   */\n      mstore\n        /* \"#utility.yul\":103:212   */\n      pop\n      pop\n      jump\t// out\n        /* \"#utility.yul\":218:428   */\n    tag_32:\n        /* \"#utility.yul\":305:309   */\n      0x00\n        /* \"#utility.yul\":343:345   */\n      0x20\n        /* \"#utility.yul\":332:341   */\n      dup3\n        /* \"#utility.yul\":328:346   */\n      add\n        /* \"#utility.yul\":320:346   */\n      swap1\n      pop\n        /* \"#utility.yul\":356:421   */\n      tag_266\n        /* \"#utility.yul\":418:419   */\n      0x00\n        /* \"#utility.yul\":407:416   */\n      dup4\n        /* \"#utility.yul\":403:420   */\n      add\n        /* \"#utility.yul\":394:400   */\n      dup5\n        /* \"#utility.yul\":356:421   */\n      tag_208\n      jump\t// in\n    tag_266:\n        /* \"#utility.yul\":218:428   */\n      swap3\n      swap2\n      pop\n      pop\n      jump\t// out\n        /* \"#utility.yul\":434:511   */\n    tag_209:\n        /* \"#utility.yul\":471:478   */\n      0x00\n        /* \"#utility.yul\":500:505   */\n      dup2\n        /* \"#utility.yul\":489:505   */\n      swap1\n      pop\n        /* \"#utility.yul\":434:511   */\n      swap2\n      swap1\n      pop\n      jump\t// out\n        /* \"#utility.yul\":517:635   */\n    tag_210:\n        /* \"#utility.yul\":604:628   */\n      tag_269\n        /* \"#utility.yul\":622:627   */\n      dup2\n        /* \"#utility.yul\":604:628   */\n      tag_209\n      jump\t// in\n    tag_269:\n        /* \"#utility.yul\":599:602   */\n      dup3\n        /* \"#utility.yul\":592:629   */\n      mstore\n        /* \"#utility.yul\":517:635   */\n      pop\n      pop\n      jump\t// out\n        /* \"#utility.yul\":641:863   */\n    tag_37:\n        /* \"#utility.yul\":734:738   */\n      0x00\n        /* \"#utility.yul\":772:774   */\n      0x20\n        /* \"#utility.yul\":761:770   */\n      dup3\n        /* \"#utility.yul\":757:775   */\n      add\n        /* \"#utility.yul\":749:775   */\n      swap1\n      pop\n        /* \"#utility.yul\":785:856   */\n      tag_271\n        /* \"#utility.yul\":853:854   */\n      0x00\n        /* \"#utility.yul\":842:851   */\n      dup4\n        /* \"#utility.yul\":838:855   */\n      add\n        /* \"#utility.yul\":829:835   */\n      dup5\n        /* \"#utility.yul\":785:856   */\n      tag_210\n      jump\t// in\n    tag_271:\n        /* \"#utility.yul\":641:863   */\n      swap3\n      swap2\n      pop\n      pop\n      jump\t// out\n        /* \"#utility.yul\":950:1067   */\n    tag_212:\n        /* \"#utility.yul\":1059:1060   */\n      0x00\n        /* \"#utility.yul\":1056:1057   */\n      dup1\n        /* \"#utility.yul\":1049:1061   */\n      revert\n        /* \"#utility.yul\":1196:1312   */\n    tag_214:\n        /* \"#utility.yul\":1266:1287   */\n      tag_276\n        /* \"#utility.yul\":1281:1286   */\n      dup2\n        /* \"#utility.yul\":1266:1287   */\n      tag_207\n      jump\t// in\n    tag_276:\n        /* \"#utility.yul\":1259:1264   */\n      dup2\n        /* \"#utility.yul\":1256:1288   */\n      eq\n        /* \"#utility.yul\":1246:1306   */\n      tag_277\n      jumpi\n        /* \"#utility.yul\":1302:1303   */\n      0x00\n        /* \"#utility.yul\":1299:1300   */\n      dup1\n        /* \"#utility.yul\":1292:1304   */\n      revert\n        /* \"#utility.yul\":1246:1306   */\n    tag_277:\n        /* \"#utility.yul\":1196:1312   */\n      pop\n      jump\t// out\n        /* \"#utility.yul\":1318:1451   */\n    tag_215:\n        /* \"#utility.yul\":1361:1366   */\n      0x00\n        /* \"#utility.yul\":1399:1405   */\n      dup2\n        /* \"#utility.yul\":1386:1406   */\n      calldataload\n        /* \"#utility.yul\":1377:1406   */\n      swap1\n      pop\n        /* \"#utility.yul\":1415:1445   */\n      tag_279\n        /* \"#utility.yul\":1439:1444   */\n      dup2\n        /* \"#utility.yul\":1415:1445   */\n      tag_214\n      jump\t// in\n    tag_279:\n        /* \"#utility.yul\":1318:1451   */\n      swap3\n      swap2\n      pop\n      pop\n      jump\t// out\n        /* \"#utility.yul\":1457:1780   */\n    tag_49:\n        /* \"#utility.yul\":1513:1519   */\n      0x00\n        /* \"#utility.yul\":1562:1564   */\n      0x20\n        /* \"#utility.yul\":1550:1559   */\n      dup3\n        /* \"#utility.yul\":1541:1548   */\n      dup5\n        /* \"#utility.yul\":1537:1560   */\n      sub\n        /* \"#utility.yul\":1533:1565   */\n      slt\n        /* \"#utility.yul\":1530:1649   */\n      iszero\n      tag_281\n      jumpi\n        /* \"#utility.yul\":1568:1647   */\n      tag_282\n      tag_212\n      jump\t// in\n    tag_282:\n        /* \"#utility.yul\":1530:1649   */\n    tag_281:\n        /* \"#utility.yul\":1688:1689   */\n      0x00\n        /* \"#utility.yul\":1713:1763   */\n      tag_283\n        /* \"#utility.yul\":1755:1762   */\n      dup5\n        /* \"#utility.yul\":1746:1752   */\n      dup3\n        /* \"#utility.yul\":1735:1744   */\n      dup6\n        /* \"#utility.yul\":1731:1753   */\n      add\n        /* \"#utility.yul\":1713:1763   */\n      tag_215\n      jump\t// in\n    tag_283:\n        /* \"#utility.yul\":1703:1763   */\n      swap2\n      pop\n        /* \"#utility.yul\":1659:1773   */\n      pop\n        /* \"#utility.yul\":1457:1780   */\n      swap3\n      swap2\n      pop\n      pop\n      jump\t// out\n        /* \"#utility.yul\":1786:1908   */\n    tag_216:\n        /* \"#utility.yul\":1859:1883   */\n      tag_285\n        /* \"#utility.yul\":1877:1882   */\n      dup2\n        /* \"#utility.yul\":1859:1883   */\n      tag_209\n      jump\t// in\n    tag_285:\n        /* \"#utility.yul\":1852:1857   */\n      dup2\n        /* \"#utility.yul\":1849:1884   */\n      eq\n        /* \"#utility.yul\":1839:1902   */\n      tag_286\n      jumpi\n        /* \"#utility.yul\":1898:1899   */\n      0x00\n        /* \"#utility.yul\":1895:1896   */\n      dup1\n        /* \"#utility.yul\":1888:1900   */\n      revert\n        /* \"#utility.yul\":1839:1902   */\n    tag_286:\n        /* \"#utility.yul\":1786:1908   */\n      pop\n      jump\t// out\n        /* \"#utility.yul\":1914:2053   */\n    tag_217:\n        /* \"#utility.yul\":1960:1965   */\n      0x00\n        /* \"#utility.yul\":1998:2004   */\n      dup2\n        /* \"#utility.yul\":1985:2005   */\n      calldataload\n        /* \"#utility.yul\":1976:2005   */\n      swap1\n      pop\n        /* \"#utility.yul\":2014:2047   */\n      tag_288\n        /* \"#utility.yul\":2041:2046   */\n      dup2\n        /* \"#utility.yul\":2014:2047   */\n      tag_216\n      jump\t// in\n    tag_288:\n        /* \"#utility.yul\":1914:2053   */\n      swap3\n      swap2\n      pop\n      pop\n      jump\t// out\n        /* \"#utility.yul\":2059:2388   */\n    tag_57:\n        /* \"#utility.yul\":2118:2124   */\n      0x00\n        /* \"#utility.yul\":2167:2169   */\n      0x20\n        /* \"#utility.yul\":2155:2164   */\n      dup3\n        /* \"#utility.yul\":2146:2153   */\n      dup5\n        /* \"#utility.yul\":2142:2165   */\n      sub\n        /* \"#utility.yul\":2138:2170   */\n      slt\n        /* \"#utility.yul\":2135:2254   */\n      iszero\n      tag_290\n      jumpi\n        /* \"#utility.yul\":2173:2252   */\n      tag_291\n      tag_212\n      jump\t// in\n    tag_291:\n        /* \"#utility.yul\":2135:2254   */\n    tag_290:\n        /* \"#utility.yul\":2293:2294   */\n      0x00\n        /* \"#utility.yul\":2318:2371   */\n      tag_292\n        /* \"#utility.yul\":2363:2370   */\n      dup5\n        /* \"#utility.yul\":2354:2360   */\n      dup3\n        /* \"#utility.yul\":2343:2352   */\n      dup6\n        /* \"#utility.yul\":2339:2361   */\n      add\n        /* \"#utility.yul\":2318:2371   */\n      tag_217\n      jump\t// in\n    tag_292:\n        /* \"#utility.yul\":2308:2371   */\n      swap2\n      pop\n        /* \"#utility.yul\":2264:2381   */\n      pop\n        /* \"#utility.yul\":2059:2388   */\n      swap3\n      swap2\n      pop\n      pop\n      jump\t// out\n        /* \"#utility.yul\":2394:2520   */\n    tag_218:\n        /* \"#utility.yul\":2431:2438   */\n      0x00\n        /* \"#utility.yul\":2471:2513   */\n      0xffffffffffffffffffffffffffffffffffffffff\n        /* \"#utility.yul\":2464:2469   */\n      dup3\n        /* \"#utility.yul\":2460:2514   */\n      and\n        /* \"#utility.yul\":2449:2514   */\n      swap1\n      pop\n        /* \"#utility.yul\":2394:2520   */\n      swap2\n      swap1\n      pop\n      jump\t// out\n        /* \"#utility.yul\":2526:2622   */\n    tag_219:\n        /* \"#utility.yul\":2563:2570   */\n      0x00\n        /* \"#utility.yul\":2592:2616   */\n      tag_295\n        /* \"#utility.yul\":2610:2615   */\n      dup3\n        /* \"#utility.yul\":2592:2616   */\n      tag_218\n      jump\t// in\n    tag_295:\n        /* \"#utility.yul\":2581:2616   */\n      swap1\n      pop\n        /* \"#utility.yul\":2526:2622   */\n      swap2\n      swap1\n      pop\n      jump\t// out\n        /* \"#utility.yul\":2628:2746   */\n    tag_220:\n        /* \"#utility.yul\":2715:2739   */\n      tag_297\n        /* \"#utility.yul\":2733:2738   */\n      dup2\n        /* \"#utility.yul\":2715:2739   */\n      tag_219\n      jump\t// in\n    tag_297:\n        /* \"#utility.yul\":2710:2713   */\n      dup3\n        /* \"#utility.yul\":2703:2740   */\n      mstore\n        /* \"#utility.yul\":2628:2746   */\n      pop\n      pop\n      jump\t// out\n        /* \"#utility.yul\":2752:2974   */\n    tag_63:\n        /* \"#utility.yul\":2845:2849   */\n      0x00\n        /* \"#utility.yul\":2883:2885   */\n      0x20\n        /* \"#utility.yul\":2872:2881   */\n      dup3\n        /* \"#utility.yul\":2868:2886   */\n      add\n        /* \"#utility.yul\":2860:2886   */\n      swap1\n      pop\n        /* \"#utility.yul\":2896:2967   */\n      tag_299\n        /* \"#utility.yul\":2964:2965   */\n      0x00\n        /* \"#utility.yul\":2953:2962   */\n      dup4\n        /* \"#utility.yul\":2949:2966   */\n      add\n        /* \"#utility.yul\":2940:2946   */\n      dup5\n        /* \"#utility.yul\":2896:2967   */\n      tag_220\n      jump\t// in\n    tag_299:\n        /* \"#utility.yul\":2752:2974   */\n      swap3\n      swap2\n      pop\n      pop\n      jump\t// out\n        /* \"#utility.yul\":2980:3102   */\n    tag_221:\n        /* \"#utility.yul\":3053:3077   */\n      tag_301\n        /* \"#utility.yul\":3071:3076   */\n      dup2\n        /* \"#utility.yul\":3053:3077   */\n      tag_219\n      jump\t// in\n    tag_301:\n        /* \"#utility.yul\":3046:3051   */\n      dup2\n        /* \"#utility.yul\":3043:3078   */\n      eq\n        /* \"#utility.yul\":3033:3096   */\n      tag_302\n      jumpi\n        /* \"#utility.yul\":3092:3093   */\n      0x00\n        /* \"#utility.yul\":3089:3090   */\n      dup1\n        /* \"#utility.yul\":3082:3094   */\n      revert\n        /* \"#utility.yul\":3033:3096   */\n    tag_302:\n        /* \"#utility.yul\":2980:3102   */\n      pop\n      jump\t// out\n        /* \"#utility.yul\":3108:3247   */\n    tag_222:\n        /* \"#utility.yul\":3154:3159   */\n      0x00\n        /* \"#utility.yul\":3192:3198   */\n      dup2\n        /* \"#utility.yul\":3179:3199   */\n      calldataload\n        /* \"#utility.yul\":3170:3199   */\n      swap1\n      pop\n        /* \"#utility.yul\":3208:3241   */\n      tag_304\n        /* \"#utility.yul\":3235:3240   */\n      dup2\n        /* \"#utility.yul\":3208:3241   */\n      tag_221\n      jump\t// in\n    tag_304:\n        /* \"#utility.yul\":3108:3247   */\n      swap3\n      swap2\n      pop\n      pop\n      jump\t// out\n        /* \"#utility.yul\":3253:3727   */\n    tag_78:\n        /* \"#utility.yul\":3321:3327   */\n      0x00\n        /* \"#utility.yul\":3329:3335   */\n      dup1\n        /* \"#utility.yul\":3378:3380   */\n      0x40\n        /* \"#utility.yul\":3366:3375   */\n      dup4\n        /* \"#utility.yul\":3357:3364   */\n      dup6\n        /* \"#utility.yul\":3353:3376   */\n      sub\n        /* \"#utility.yul\":3349:3381   */\n      slt\n        /* \"#utility.yul\":3346:3465   */\n      iszero\n      tag_306\n      jumpi\n        /* \"#utility.yul\":3384:3463   */\n      tag_307\n      tag_212\n      jump\t// in\n    tag_307:\n        /* \"#utility.yul\":3346:3465   */\n    tag_306:\n        /* \"#utility.yul\":3504:3505   */\n      0x00\n        /* \"#utility.yul\":3529:3582   */\n      tag_308\n        /* \"#utility.yul\":3574:3581   */\n      dup6\n        /* \"#utility.yul\":3565:3571   */\n      dup3\n        /* \"#utility.yul\":3554:3563   */\n      dup7\n        /* \"#utility.yul\":3550:3572   */\n      add\n        /* \"#utility.yul\":3529:3582   */\n      tag_222\n      jump\t// in\n    tag_308:\n        /* \"#utility.yul\":3519:3582   */\n      swap3\n      pop\n        /* \"#utility.yul\":3475:3592   */\n      pop\n        /* \"#utility.yul\":3631:3633   */\n      0x20\n        /* \"#utility.yul\":3657:3710   */\n      tag_309\n        /* \"#utility.yul\":3702:3709   */\n      dup6\n        /* \"#utility.yul\":3693:3699   */\n      dup3\n        /* \"#utility.yul\":3682:3691   */\n      dup7\n        /* \"#utility.yul\":3678:3700   */\n      add\n        /* \"#utility.yul\":3657:3710   */\n      tag_217\n      jump\t// in\n    tag_309:\n        /* \"#utility.yul\":3647:3710   */\n      swap2\n      pop\n        /* \"#utility.yul\":3602:3720   */\n      pop\n        /* \"#utility.yul\":3253:3727   */\n      swap3\n      pop\n      swap3\n      swap1\n      pop\n      jump\t// out\n        /* \"#utility.yul\":3733:3902   */\n    tag_223:\n        /* \"#utility.yul\":3817:3828   */\n      0x00\n        /* \"#utility.yul\":3851:3857   */\n      dup3\n        /* \"#utility.yul\":3846:3849   */\n      dup3\n        /* \"#utility.yul\":3839:3858   */\n      mstore\n        /* \"#utility.yul\":3891:3895   */\n      0x20\n        /* \"#utility.yul\":3886:3889   */\n      dup3\n        /* \"#utility.yul\":3882:3896   */\n      add\n        /* \"#utility.yul\":3867:3896   */\n      swap1\n      pop\n        /* \"#utility.yul\":3733:3902   */\n      swap3\n      swap2\n      pop\n      pop\n      jump\t// out\n        /* \"#utility.yul\":3908:4143   */\n    tag_224:\n        /* \"#utility.yul\":4048:4082   */\n      0x416374696f6e20616c6c6f776564206f6e6c7920746f207468652077696e6e65\n        /* \"#utility.yul\":4044:4045   */\n      0x00\n        /* \"#utility.yul\":4036:4042   */\n      dup3\n        /* \"#utility.yul\":4032:4046   */\n      add\n        /* \"#utility.yul\":4025:4083   */\n      mstore\n        /* \"#utility.yul\":4117:4135   */\n      0x72206f66207468652061756374696f6e00000000000000000000000000000000\n        /* \"#utility.yul\":4112:4114   */\n      0x20\n        /* \"#utility.yul\":4104:4110   */\n      dup3\n        /* \"#utility.yul\":4100:4115   */\n      add\n        /* \"#utility.yul\":4093:4136   */\n      mstore\n        /* \"#utility.yul\":3908:4143   */\n      pop\n      jump\t// out\n        /* \"#utility.yul\":4149:4515   */\n    tag_225:\n        /* \"#utility.yul\":4291:4294   */\n      0x00\n        /* \"#utility.yul\":4312:4379   */\n      tag_313\n        /* \"#utility.yul\":4376:4378   */\n      0x30\n        /* \"#utility.yul\":4371:4374   */\n      dup4\n        /* \"#utility.yul\":4312:4379   */\n      tag_223\n      jump\t// in\n    tag_313:\n        /* \"#utility.yul\":4305:4379   */\n      swap2\n      pop\n        /* \"#utility.yul\":4388:4481   */\n      tag_314\n        /* \"#utility.yul\":4477:4480   */\n      dup3\n        /* \"#utility.yul\":4388:4481   */\n      tag_224\n      jump\t// in\n    tag_314:\n        /* \"#utility.yul\":4506:4508   */\n      0x40\n        /* \"#utility.yul\":4501:4504   */\n      dup3\n        /* \"#utility.yul\":4497:4509   */\n      add\n        /* \"#utility.yul\":4490:4509   */\n      swap1\n      pop\n        /* \"#utility.yul\":4149:4515   */\n      swap2\n      swap1\n      pop\n      jump\t// out\n        /* \"#utility.yul\":4521:4940   */\n    tag_126:\n        /* \"#utility.yul\":4687:4691   */\n      0x00\n        /* \"#utility.yul\":4725:4727   */\n      0x20\n        /* \"#utility.yul\":4714:4723   */\n      dup3\n        /* \"#utility.yul\":4710:4728   */\n      add\n        /* \"#utility.yul\":4702:4728   */\n      swap1\n      pop\n        /* \"#utility.yul\":4774:4783   */\n      dup2\n        /* \"#utility.yul\":4768:4772   */\n      dup2\n        /* \"#utility.yul\":4764:4784   */\n      sub\n        /* \"#utility.yul\":4760:4761   */\n      0x00\n        /* \"#utility.yul\":4749:4758   */\n      dup4\n        /* \"#utility.yul\":4745:4762   */\n      add\n        /* \"#utility.yul\":4738:4785   */\n      mstore\n        /* \"#utility.yul\":4802:4933   */\n      tag_316\n        /* \"#utility.yul\":4928:4932   */\n      dup2\n        /* \"#utility.yul\":4802:4933   */\n      tag_225\n      jump\t// in\n    tag_316:\n        /* \"#utility.yul\":4794:4933   */\n      swap1\n      pop\n        /* \"#utility.yul\":4521:4940   */\n      swap2\n      swap1\n      pop\n      jump\t// out\n        /* \"#utility.yul\":4946:5116   */\n    tag_226:\n        /* \"#utility.yul\":5086:5108   */\n      0x57696e6e657220616c726561647920766f746564000000000000000000000000\n        /* \"#utility.yul\":5082:5083   */\n      0x00\n        /* \"#utility.yul\":5074:5080   */\n      dup3\n        /* \"#utility.yul\":5070:5084   */\n      add\n        /* \"#utility.yul\":5063:5109   */\n      mstore\n        /* \"#utility.yul\":4946:5116   */\n      pop\n      jump\t// out\n        /* \"#utility.yul\":5122:5488   */\n    tag_227:\n        /* \"#utility.yul\":5264:5267   */\n      0x00\n        /* \"#utility.yul\":5285:5352   */\n      tag_319\n        /* \"#utility.yul\":5349:5351   */\n      0x14\n        /* \"#utility.yul\":5344:5347   */\n      dup4\n        /* \"#utility.yul\":5285:5352   */\n      tag_223\n      jump\t// in\n    tag_319:\n        /* \"#utility.yul\":5278:5352   */\n      swap2\n      pop\n        /* \"#utility.yul\":5361:5454   */\n      tag_320\n        /* \"#utility.yul\":5450:5453   */\n      dup3\n        /* \"#utility.yul\":5361:5454   */\n      tag_226\n      jump\t// in\n    tag_320:\n        /* \"#utility.yul\":5479:5481   */\n      0x20\n        /* \"#utility.yul\":5474:5477   */\n      dup3\n        /* \"#utility.yul\":5470:5482   */\n      add\n        /* \"#utility.yul\":5463:5482   */\n      swap1\n      pop\n        /* \"#utility.yul\":5122:5488   */\n      swap2\n      swap1\n      pop\n      jump\t// out\n        /* \"#utility.yul\":5494:5913   */\n    tag_130:\n        /* \"#utility.yul\":5660:5664   */\n      0x00\n        /* \"#utility.yul\":5698:5700   */\n      0x20\n        /* \"#utility.yul\":5687:5696   */\n      dup3\n        /* \"#utility.yul\":5683:5701   */\n      add\n        /* \"#utility.yul\":5675:5701   */\n      swap1\n      pop\n        /* \"#utility.yul\":5747:5756   */\n      dup2\n        /* \"#utility.yul\":5741:5745   */\n      dup2\n        /* \"#utility.yul\":5737:5757   */\n      sub\n        /* \"#utility.yul\":5733:5734   */\n      0x00\n        /* \"#utility.yul\":5722:5731   */\n      dup4\n        /* \"#utility.yul\":5718:5735   */\n      add\n        /* \"#utility.yul\":5711:5758   */\n      mstore\n        /* \"#utility.yul\":5775:5906   */\n      tag_322\n        /* \"#utility.yul\":5901:5905   */\n      dup2\n        /* \"#utility.yul\":5775:5906   */\n      tag_227\n      jump\t// in\n    tag_322:\n        /* \"#utility.yul\":5767:5906   */\n      swap1\n      pop\n        /* \"#utility.yul\":5494:5913   */\n      swap2\n      swap1\n      pop\n      jump\t// out\n        /* \"#utility.yul\":5919:6153   */\n    tag_228:\n        /* \"#utility.yul\":6059:6093   */\n      0x416374696f6e20616c6c6f776564206f6e6c7920746f20746865206f776e6572\n        /* \"#utility.yul\":6055:6056   */\n      0x00\n        /* \"#utility.yul\":6047:6053   */\n      dup3\n        /* \"#utility.yul\":6043:6057   */\n      add\n        /* \"#utility.yul\":6036:6094   */\n      mstore\n        /* \"#utility.yul\":6128:6145   */\n      0x206f66207468652061756374696f6e0000000000000000000000000000000000\n        /* \"#utility.yul\":6123:6125   */\n      0x20\n        /* \"#utility.yul\":6115:6121   */\n      dup3\n        /* \"#utility.yul\":6111:6126   */\n      add\n        /* \"#utility.yul\":6104:6146   */\n      mstore\n        /* \"#utility.yul\":5919:6153   */\n      pop\n      jump\t// out\n        /* \"#utility.yul\":6159:6525   */\n    tag_229:\n        /* \"#utility.yul\":6301:6304   */\n      0x00\n        /* \"#utility.yul\":6322:6389   */\n      tag_325\n        /* \"#utility.yul\":6386:6388   */\n      0x2f\n        /* \"#utility.yul\":6381:6384   */\n      dup4\n        /* \"#utility.yul\":6322:6389   */\n      tag_223\n      jump\t// in\n    tag_325:\n        /* \"#utility.yul\":6315:6389   */\n      swap2\n      pop\n        /* \"#utility.yul\":6398:6491   */\n      tag_326\n        /* \"#utility.yul\":6487:6490   */\n      dup3\n        /* \"#utility.yul\":6398:6491   */\n      tag_228\n      jump\t// in\n    tag_326:\n        /* \"#utility.yul\":6516:6518   */\n      0x40\n        /* \"#utility.yul\":6511:6514   */\n      dup3\n        /* \"#utility.yul\":6507:6519   */\n      add\n        /* \"#utility.yul\":6500:6519   */\n      swap1\n      pop\n        /* \"#utility.yul\":6159:6525   */\n      swap2\n      swap1\n      pop\n      jump\t// out\n        /* \"#utility.yul\":6531:6950   */\n    tag_134:\n        /* \"#utility.yul\":6697:6701   */\n      0x00\n        /* \"#utility.yul\":6735:6737   */\n      0x20\n        /* \"#utility.yul\":6724:6733   */\n      dup3\n        /* \"#utility.yul\":6720:6738   */\n      add\n        /* \"#utility.yul\":6712:6738   */\n      swap1\n      pop\n        /* \"#utility.yul\":6784:6793   */\n      dup2\n        /* \"#utility.yul\":6778:6782   */\n      dup2\n        /* \"#utility.yul\":6774:6794   */\n      sub\n        /* \"#utility.yul\":6770:6771   */\n      0x00\n        /* \"#utility.yul\":6759:6768   */\n      dup4\n        /* \"#utility.yul\":6755:6772   */\n      add\n        /* \"#utility.yul\":6748:6795   */\n      mstore\n        /* \"#utility.yul\":6812:6943   */\n      tag_328\n        /* \"#utility.yul\":6938:6942   */\n      dup2\n        /* \"#utility.yul\":6812:6943   */\n      tag_229\n      jump\t// in\n    tag_328:\n        /* \"#utility.yul\":6804:6943   */\n      swap1\n      pop\n        /* \"#utility.yul\":6531:6950   */\n      swap2\n      swap1\n      pop\n      jump\t// out\n        /* \"#utility.yul\":6956:7200   */\n    tag_230:\n        /* \"#utility.yul\":7096:7130   */\n      0x546865207061796d656e7420686173206e6f74206265656e20617070726f7665\n        /* \"#utility.yul\":7092:7093   */\n      0x00\n        /* \"#utility.yul\":7084:7090   */\n      dup3\n        /* \"#utility.yul\":7080:7094   */\n      add\n        /* \"#utility.yul\":7073:7131   */\n      mstore\n        /* \"#utility.yul\":7165:7192   */\n      0x642062792074686520696e7465726d6564696172792079657400000000000000\n        /* \"#utility.yul\":7160:7162   */\n      0x20\n        /* \"#utility.yul\":7152:7158   */\n      dup3\n        /* \"#utility.yul\":7148:7163   */\n      add\n        /* \"#utility.yul\":7141:7193   */\n      mstore\n        /* \"#utility.yul\":6956:7200   */\n      pop\n      jump\t// out\n        /* \"#utility.yul\":7206:7572   */\n    tag_231:\n        /* \"#utility.yul\":7348:7351   */\n      0x00\n        /* \"#utility.yul\":7369:7436   */\n      tag_331\n        /* \"#utility.yul\":7433:7435   */\n      0x39\n        /* \"#utility.yul\":7428:7431   */\n      dup4\n        /* \"#utility.yul\":7369:7436   */\n      tag_223\n      jump\t// in\n    tag_331:\n        /* \"#utility.yul\":7362:7436   */\n      swap2\n      pop\n        /* \"#utility.yul\":7445:7538   */\n      tag_332\n        /* \"#utility.yul\":7534:7537   */\n      dup3\n        /* \"#utility.yul\":7445:7538   */\n      tag_230\n      jump\t// in\n    tag_332:\n        /* \"#utility.yul\":7563:7565   */\n      0x40\n        /* \"#utility.yul\":7558:7561   */\n      dup3\n        /* \"#utility.yul\":7554:7566   */\n      add\n        /* \"#utility.yul\":7547:7566   */\n      swap1\n      pop\n        /* \"#utility.yul\":7206:7572   */\n      swap2\n      swap1\n      pop\n      jump\t// out\n        /* \"#utility.yul\":7578:7997   */\n    tag_138:\n        /* \"#utility.yul\":7744:7748   */\n      0x00\n        /* \"#utility.yul\":7782:7784   */\n      0x20\n        /* \"#utility.yul\":7771:7780   */\n      dup3\n        /* \"#utility.yul\":7767:7785   */\n      add\n        /* \"#utility.yul\":7759:7785   */\n      swap1\n      pop\n        /* \"#utility.yul\":7831:7840   */\n      dup2\n        /* \"#utility.yul\":7825:7829   */\n      dup2\n        /* \"#utility.yul\":7821:7841   */\n      sub\n        /* \"#utility.yul\":7817:7818   */\n      0x00\n        /* \"#utility.yul\":7806:7815   */\n      dup4\n        /* \"#utility.yul\":7802:7819   */\n      add\n        /* \"#utility.yul\":7795:7842   */\n      mstore\n        /* \"#utility.yul\":7859:7990   */\n      tag_334\n        /* \"#utility.yul\":7985:7989   */\n      dup2\n        /* \"#utility.yul\":7859:7990   */\n      tag_231\n      jump\t// in\n    tag_334:\n        /* \"#utility.yul\":7851:7990   */\n      swap1\n      pop\n        /* \"#utility.yul\":7578:7997   */\n      swap2\n      swap1\n      pop\n      jump\t// out\n        /* \"#utility.yul\":8003:8223   */\n    tag_232:\n        /* \"#utility.yul\":8143:8177   */\n      0x596f7520616c726561647920636f6c6c656374656420746865207061796d656e\n        /* \"#utility.yul\":8139:8140   */\n      0x00\n        /* \"#utility.yul\":8131:8137   */\n      dup3\n        /* \"#utility.yul\":8127:8141   */\n      add\n        /* \"#utility.yul\":8120:8178   */\n      mstore\n        /* \"#utility.yul\":8212:8215   */\n      0x7400000000000000000000000000000000000000000000000000000000000000\n        /* \"#utility.yul\":8207:8209   */\n      0x20\n        /* \"#utility.yul\":8199:8205   */\n      dup3\n        /* \"#utility.yul\":8195:8210   */\n      add\n        /* \"#utility.yul\":8188:8216   */\n      mstore\n        /* \"#utility.yul\":8003:8223   */\n      pop\n      jump\t// out\n        /* \"#utility.yul\":8229:8595   */\n    tag_233:\n        /* \"#utility.yul\":8371:8374   */\n      0x00\n        /* \"#utility.yul\":8392:8459   */\n      tag_337\n        /* \"#utility.yul\":8456:8458   */\n      0x21\n        /* \"#utility.yul\":8451:8454   */\n      dup4\n        /* \"#utility.yul\":8392:8459   */\n      tag_223\n      jump\t// in\n    tag_337:\n        /* \"#utility.yul\":8385:8459   */\n      swap2\n      pop\n        /* \"#utility.yul\":8468:8561   */\n      tag_338\n        /* \"#utility.yul\":8557:8560   */\n      dup3\n        /* \"#utility.yul\":8468:8561   */\n      tag_232\n      jump\t// in\n    tag_338:\n        /* \"#utility.yul\":8586:8588   */\n      0x40\n        /* \"#utility.yul\":8581:8584   */\n      dup3\n        /* \"#utility.yul\":8577:8589   */\n      add\n        /* \"#utility.yul\":8570:8589   */\n      swap1\n      pop\n        /* \"#utility.yul\":8229:8595   */\n      swap2\n      swap1\n      pop\n      jump\t// out\n        /* \"#utility.yul\":8601:9020   */\n    tag_141:\n        /* \"#utility.yul\":8767:8771   */\n      0x00\n        /* \"#utility.yul\":8805:8807   */\n      0x20\n        /* \"#utility.yul\":8794:8803   */\n      dup3\n        /* \"#utility.yul\":8790:8808   */\n      add\n        /* \"#utility.yul\":8782:8808   */\n      swap1\n      pop\n        /* \"#utility.yul\":8854:8863   */\n      dup2\n        /* \"#utility.yul\":8848:8852   */\n      dup2\n        /* \"#utility.yul\":8844:8864   */\n      sub\n        /* \"#utility.yul\":8840:8841   */\n      0x00\n        /* \"#utility.yul\":8829:8838   */\n      dup4\n        /* \"#utility.yul\":8825:8842   */\n      add\n        /* \"#utility.yul\":8818:8865   */\n      mstore\n        /* \"#utility.yul\":8882:9013   */\n      tag_340\n        /* \"#utility.yul\":9008:9012   */\n      dup2\n        /* \"#utility.yul\":8882:9013   */\n      tag_233\n      jump\t// in\n    tag_340:\n        /* \"#utility.yul\":8874:9013   */\n      swap1\n      pop\n        /* \"#utility.yul\":8601:9020   */\n      swap2\n      swap1\n      pop\n      jump\t// out\n        /* \"#utility.yul\":9026:9206   */\n    tag_234:\n        /* \"#utility.yul\":9074:9151   */\n      0x4e487b7100000000000000000000000000000000000000000000000000000000\n        /* \"#utility.yul\":9071:9072   */\n      0x00\n        /* \"#utility.yul\":9064:9152   */\n      mstore\n        /* \"#utility.yul\":9171:9175   */\n      0x11\n        /* \"#utility.yul\":9168:9169   */\n      0x04\n        /* \"#utility.yul\":9161:9176   */\n      mstore\n        /* \"#utility.yul\":9195:9199   */\n      0x24\n        /* \"#utility.yul\":9192:9193   */\n      0x00\n        /* \"#utility.yul\":9185:9200   */\n      revert\n        /* \"#utility.yul\":9212:9406   */\n    tag_143:\n        /* \"#utility.yul\":9252:9256   */\n      0x00\n        /* \"#utility.yul\":9272:9292   */\n      tag_343\n        /* \"#utility.yul\":9290:9291   */\n      dup3\n        /* \"#utility.yul\":9272:9292   */\n      tag_209\n      jump\t// in\n    tag_343:\n        /* \"#utility.yul\":9267:9292   */\n      swap2\n      pop\n        /* \"#utility.yul\":9306:9326   */\n      tag_344\n        /* \"#utility.yul\":9324:9325   */\n      dup4\n        /* \"#utility.yul\":9306:9326   */\n      tag_209\n      jump\t// in\n    tag_344:\n        /* \"#utility.yul\":9301:9326   */\n      swap3\n      pop\n        /* \"#utility.yul\":9350:9351   */\n      dup3\n        /* \"#utility.yul\":9347:9348   */\n      dup3\n        /* \"#utility.yul\":9343:9352   */\n      sub\n        /* \"#utility.yul\":9335:9352   */\n      swap1\n      pop\n        /* \"#utility.yul\":9374:9375   */\n      dup2\n        /* \"#utility.yul\":9368:9372   */\n      dup2\n        /* \"#utility.yul\":9365:9376   */\n      gt\n        /* \"#utility.yul\":9362:9399   */\n      iszero\n      tag_345\n      jumpi\n        /* \"#utility.yul\":9379:9397   */\n      tag_346\n      tag_234\n      jump\t// in\n    tag_346:\n        /* \"#utility.yul\":9362:9399   */\n    tag_345:\n        /* \"#utility.yul\":9212:9406   */\n      swap3\n      swap2\n      pop\n      pop\n      jump\t// out\n        /* \"#utility.yul\":9412:9594   */\n    tag_235:\n        /* \"#utility.yul\":9552:9586   */\n      0x4f776e6572732063616e6e6f742062696420696e207468652061756374696f6e\n        /* \"#utility.yul\":9548:9549   */\n      0x00\n        /* \"#utility.yul\":9540:9546   */\n      dup3\n        /* \"#utility.yul\":9536:9550   */\n      add\n        /* \"#utility.yul\":9529:9587   */\n      mstore\n        /* \"#utility.yul\":9412:9594   */\n      pop\n      jump\t// out\n        /* \"#utility.yul\":9600:9966   */\n    tag_236:\n        /* \"#utility.yul\":9742:9745   */\n      0x00\n        /* \"#utility.yul\":9763:9830   */\n      tag_349\n        /* \"#utility.yul\":9827:9829   */\n      0x20\n        /* \"#utility.yul\":9822:9825   */\n      dup4\n        /* \"#utility.yul\":9763:9830   */\n      tag_223\n      jump\t// in\n    tag_349:\n        /* \"#utility.yul\":9756:9830   */\n      swap2\n      pop\n        /* \"#utility.yul\":9839:9932   */\n      tag_350\n        /* \"#utility.yul\":9928:9931   */\n      dup3\n        /* \"#utility.yul\":9839:9932   */\n      tag_235\n      jump\t// in\n    tag_350:\n        /* \"#utility.yul\":9957:9959   */\n      0x20\n        /* \"#utility.yul\":9952:9955   */\n      dup3\n        /* \"#utility.yul\":9948:9960   */\n      add\n        /* \"#utility.yul\":9941:9960   */\n      swap1\n      pop\n        /* \"#utility.yul\":9600:9966   */\n      swap2\n      swap1\n      pop\n      jump\t// out\n        /* \"#utility.yul\":9972:10391   */\n    tag_151:\n        /* \"#utility.yul\":10138:10142   */\n      0x00\n        /* \"#utility.yul\":10176:10178   */\n      0x20\n        /* \"#utility.yul\":10165:10174   */\n      dup3\n        /* \"#utility.yul\":10161:10179   */\n      add\n        /* \"#utility.yul\":10153:10179   */\n      swap1\n      pop\n        /* \"#utility.yul\":10225:10234   */\n      dup2\n        /* \"#utility.yul\":10219:10223   */\n      dup2\n        /* \"#utility.yul\":10215:10235   */\n      sub\n        /* \"#utility.yul\":10211:10212   */\n      0x00\n        /* \"#utility.yul\":10200:10209   */\n      dup4\n        /* \"#utility.yul\":10196:10213   */\n      add\n        /* \"#utility.yul\":10189:10236   */\n      mstore\n        /* \"#utility.yul\":10253:10384   */\n      tag_352\n        /* \"#utility.yul\":10379:10383   */\n      dup2\n        /* \"#utility.yul\":10253:10384   */\n      tag_236\n      jump\t// in\n    tag_352:\n        /* \"#utility.yul\":10245:10384   */\n      swap1\n      pop\n        /* \"#utility.yul\":9972:10391   */\n      swap2\n      swap1\n      pop\n      jump\t// out\n        /* \"#utility.yul\":10397:10564   */\n    tag_237:\n        /* \"#utility.yul\":10537:10556   */\n      0x41756374696f6e20697320636c6f736564000000000000000000000000000000\n        /* \"#utility.yul\":10533:10534   */\n      0x00\n        /* \"#utility.yul\":10525:10531   */\n      dup3\n        /* \"#utility.yul\":10521:10535   */\n      add\n        /* \"#utility.yul\":10514:10557   */\n      mstore\n        /* \"#utility.yul\":10397:10564   */\n      pop\n      jump\t// out\n        /* \"#utility.yul\":10570:10936   */\n    tag_238:\n        /* \"#utility.yul\":10712:10715   */\n      0x00\n        /* \"#utility.yul\":10733:10800   */\n      tag_355\n        /* \"#utility.yul\":10797:10799   */\n      0x11\n        /* \"#utility.yul\":10792:10795   */\n      dup4\n        /* \"#utility.yul\":10733:10800   */\n      tag_223\n      jump\t// in\n    tag_355:\n        /* \"#utility.yul\":10726:10800   */\n      swap2\n      pop\n        /* \"#utility.yul\":10809:10902   */\n      tag_356\n        /* \"#utility.yul\":10898:10901   */\n      dup3\n        /* \"#utility.yul\":10809:10902   */\n      tag_237\n      jump\t// in\n    tag_356:\n        /* \"#utility.yul\":10927:10929   */\n      0x20\n        /* \"#utility.yul\":10922:10925   */\n      dup3\n        /* \"#utility.yul\":10918:10930   */\n      add\n        /* \"#utility.yul\":10911:10930   */\n      swap1\n      pop\n        /* \"#utility.yul\":10570:10936   */\n      swap2\n      swap1\n      pop\n      jump\t// out\n        /* \"#utility.yul\":10942:11361   */\n    tag_154:\n        /* \"#utility.yul\":11108:11112   */\n      0x00\n        /* \"#utility.yul\":11146:11148   */\n      0x20\n        /* \"#utility.yul\":11135:11144   */\n      dup3\n        /* \"#utility.yul\":11131:11149   */\n      add\n        /* \"#utility.yul\":11123:11149   */\n      swap1\n      pop\n        /* \"#utility.yul\":11195:11204   */\n      dup2\n        /* \"#utility.yul\":11189:11193   */\n      dup2\n        /* \"#utility.yul\":11185:11205   */\n      sub\n        /* \"#utility.yul\":11181:11182   */\n      0x00\n        /* \"#utility.yul\":11170:11179   */\n      dup4\n        /* \"#utility.yul\":11166:11183   */\n      add\n        /* \"#utility.yul\":11159:11206   */\n      mstore\n        /* \"#utility.yul\":11223:11354   */\n      tag_358\n        /* \"#utility.yul\":11349:11353   */\n      dup2\n        /* \"#utility.yul\":11223:11354   */\n      tag_238\n      jump\t// in\n    tag_358:\n        /* \"#utility.yul\":11215:11354   */\n      swap1\n      pop\n        /* \"#utility.yul\":10942:11361   */\n      swap2\n      swap1\n      pop\n      jump\t// out\n        /* \"#utility.yul\":11367:11531   */\n    tag_239:\n        /* \"#utility.yul\":11507:11523   */\n      0x42696420697320746f6f206c6f77000000000000000000000000000000000000\n        /* \"#utility.yul\":11503:11504   */\n      0x00\n        /* \"#utility.yul\":11495:11501   */\n      dup3\n        /* \"#utility.yul\":11491:11505   */\n      add\n        /* \"#utility.yul\":11484:11524   */\n      mstore\n        /* \"#utility.yul\":11367:11531   */\n      pop\n      jump\t// out\n        /* \"#utility.yul\":11537:11903   */\n    tag_240:\n        /* \"#utility.yul\":11679:11682   */\n      0x00\n        /* \"#utility.yul\":11700:11767   */\n      tag_361\n        /* \"#utility.yul\":11764:11766   */\n      0x0e\n        /* \"#utility.yul\":11759:11762   */\n      dup4\n        /* \"#utility.yul\":11700:11767   */\n      tag_223\n      jump\t// in\n    tag_361:\n        /* \"#utility.yul\":11693:11767   */\n      swap2\n      pop\n        /* \"#utility.yul\":11776:11869   */\n      tag_362\n        /* \"#utility.yul\":11865:11868   */\n      dup3\n        /* \"#utility.yul\":11776:11869   */\n      tag_239\n      jump\t// in\n    tag_362:\n        /* \"#utility.yul\":11894:11896   */\n      0x20\n        /* \"#utility.yul\":11889:11892   */\n      dup3\n        /* \"#utility.yul\":11885:11897   */\n      add\n        /* \"#utility.yul\":11878:11897   */\n      swap1\n      pop\n        /* \"#utility.yul\":11537:11903   */\n      swap2\n      swap1\n      pop\n      jump\t// out\n        /* \"#utility.yul\":11909:12328   */\n    tag_157:\n        /* \"#utility.yul\":12075:12079   */\n      0x00\n        /* \"#utility.yul\":12113:12115   */\n      0x20\n        /* \"#utility.yul\":12102:12111   */\n      dup3\n        /* \"#utility.yul\":12098:12116   */\n      add\n        /* \"#utility.yul\":12090:12116   */\n      swap1\n      pop\n        /* \"#utility.yul\":12162:12171   */\n      dup2\n        /* \"#utility.yul\":12156:12160   */\n      dup2\n        /* \"#utility.yul\":12152:12172   */\n      sub\n        /* \"#utility.yul\":12148:12149   */\n      0x00\n        /* \"#utility.yul\":12137:12146   */\n      dup4\n        /* \"#utility.yul\":12133:12150   */\n      add\n        /* \"#utility.yul\":12126:12173   */\n      mstore\n        /* \"#utility.yul\":12190:12321   */\n      tag_364\n        /* \"#utility.yul\":12316:12320   */\n      dup2\n        /* \"#utility.yul\":12190:12321   */\n      tag_240\n      jump\t// in\n    tag_364:\n        /* \"#utility.yul\":12182:12321   */\n      swap1\n      pop\n        /* \"#utility.yul\":11909:12328   */\n      swap2\n      swap1\n      pop\n      jump\t// out\n        /* \"#utility.yul\":12334:12567   */\n    tag_160:\n        /* \"#utility.yul\":12373:12376   */\n      0x00\n        /* \"#utility.yul\":12396:12420   */\n      tag_366\n        /* \"#utility.yul\":12414:12419   */\n      dup3\n        /* \"#utility.yul\":12396:12420   */\n      tag_209\n      jump\t// in\n    tag_366:\n        /* \"#utility.yul\":12387:12420   */\n      swap2\n      pop\n        /* \"#utility.yul\":12442:12508   */\n      0xffffffffffffffffffffffffffffffffffffffffffffffffffffffffffffffff\n        /* \"#utility.yul\":12435:12440   */\n      dup3\n        /* \"#utility.yul\":12432:12509   */\n      sub\n        /* \"#utility.yul\":12429:12532   */\n      tag_367\n      jumpi\n        /* \"#utility.yul\":12512:12530   */\n      tag_368\n      tag_234\n      jump\t// in\n    tag_368:\n        /* \"#utility.yul\":12429:12532   */\n    tag_367:\n        /* \"#utility.yul\":12559:12560   */\n      0x01\n        /* \"#utility.yul\":12552:12557   */\n      dup3\n        /* \"#utility.yul\":12548:12561   */\n      add\n        /* \"#utility.yul\":12541:12561   */\n      swap1\n      pop\n        /* \"#utility.yul\":12334:12567   */\n      swap2\n      swap1\n      pop\n      jump\t// out\n        /* \"#utility.yul\":12573:12814   */\n    tag_241:\n        /* \"#utility.yul\":12713:12747   */\n      0x416374696f6e20616c6c6f776564206f6e6c7920746f2074686520696e746572\n        /* \"#utility.yul\":12709:12710   */\n      0x00\n        /* \"#utility.yul\":12701:12707   */\n      dup3\n        /* \"#utility.yul\":12697:12711   */\n      add\n        /* \"#utility.yul\":12690:12748   */\n      mstore\n        /* \"#utility.yul\":12782:12806   */\n      0x6d656469617279206f66207468652061756374696f6e00000000000000000000\n        /* \"#utility.yul\":12777:12779   */\n      0x20\n        /* \"#utility.yul\":12769:12775   */\n      dup3\n        /* \"#utility.yul\":12765:12780   */\n      add\n        /* \"#utility.yul\":12758:12807   */\n      mstore\n        /* \"#utility.yul\":12573:12814   */\n      pop\n      jump\t// out\n        /* \"#utility.yul\":12820:13186   */\n    tag_242:\n        /* \"#utility.yul\":12962:12965   */\n      0x00\n        /* \"#utility.yul\":12983:13050   */\n      tag_371\n        /* \"#utility.yul\":13047:13049   */\n      0x36\n        /* \"#utility.yul\":13042:13045   */\n      dup4\n        /* \"#utility.yul\":12983:13050   */\n      tag_223\n      jump\t// in\n    tag_371:\n        /* \"#utility.yul\":12976:13050   */\n      swap2\n      pop\n        /* \"#utility.yul\":13059:13152   */\n      tag_372\n        /* \"#utility.yul\":13148:13151   */\n      dup3\n        /* \"#utility.yul\":13059:13152   */\n      tag_241\n      jump\t// in\n    tag_372:\n        /* \"#utility.yul\":13177:13179   */\n      0x40\n        /* \"#utility.yul\":13172:13175   */\n      dup3\n        /* \"#utility.yul\":13168:13180   */\n      add\n        /* \"#utility.yul\":13161:13180   */\n      swap1\n      pop\n        /* \"#utility.yul\":12820:13186   */\n      swap2\n      swap1\n      pop\n      jump\t// out\n        /* \"#utility.yul\":13192:13611   */\n    tag_166:\n        /* \"#utility.yul\":13358:13362   */\n      0x00\n        /* \"#utility.yul\":13396:13398   */\n      0x20\n        /* \"#utility.yul\":13385:13394   */\n      dup3\n        /* \"#utility.yul\":13381:13399   */\n      add\n        /* \"#utility.yul\":13373:13399   */\n      swap1\n      pop\n        /* \"#utility.yul\":13445:13454   */\n      dup2\n        /* \"#utility.yul\":13439:13443   */\n      dup2\n        /* \"#utility.yul\":13435:13455   */\n      sub\n        /* \"#utility.yul\":13431:13432   */\n      0x00\n        /* \"#utility.yul\":13420:13429   */\n      dup4\n        /* \"#utility.yul\":13416:13433   */\n      add\n        /* \"#utility.yul\":13409:13456   */\n      mstore\n        /* \"#utility.yul\":13473:13604   */\n      tag_374\n        /* \"#utility.yul\":13599:13603   */\n      dup2\n        /* \"#utility.yul\":13473:13604   */\n      tag_242\n      jump\t// in\n    tag_374:\n        /* \"#utility.yul\":13465:13604   */\n      swap1\n      pop\n        /* \"#utility.yul\":13192:13611   */\n      swap2\n      swap1\n      pop\n      jump\t// out\n        /* \"#utility.yul\":13617:13847   */\n    tag_243:\n        /* \"#utility.yul\":13757:13791   */\n      0x5468652062696420686173206e6f74206265656e207061696420627920746865\n        /* \"#utility.yul\":13753:13754   */\n      0x00\n        /* \"#utility.yul\":13745:13751   */\n      dup3\n        /* \"#utility.yul\":13741:13755   */\n      add\n        /* \"#utility.yul\":13734:13792   */\n      mstore\n        /* \"#utility.yul\":13826:13839   */\n      0x2077696e6e657220796574000000000000000000000000000000000000000000\n        /* \"#utility.yul\":13821:13823   */\n      0x20\n        /* \"#utility.yul\":13813:13819   */\n      dup3\n        /* \"#utility.yul\":13809:13824   */\n      add\n        /* \"#utility.yul\":13802:13840   */\n      mstore\n        /* \"#utility.yul\":13617:13847   */\n      pop\n      jump\t// out\n        /* \"#utility.yul\":13853:14219   */\n    tag_244:\n        /* \"#utility.yul\":13995:13998   */\n      0x00\n        /* \"#utility.yul\":14016:14083   */\n      tag_377\n        /* \"#utility.yul\":14080:14082   */\n      0x2b\n        /* \"#utility.yul\":14075:14078   */\n      dup4\n        /* \"#utility.yul\":14016:14083   */\n      tag_223\n      jump\t// in\n    tag_377:\n        /* \"#utility.yul\":14009:14083   */\n      swap2\n      pop\n        /* \"#utility.yul\":14092:14185   */\n      tag_378\n        /* \"#utility.yul\":14181:14184   */\n      dup3\n        /* \"#utility.yul\":14092:14185   */\n      tag_243\n      jump\t// in\n    tag_378:\n        /* \"#utility.yul\":14210:14212   */\n      0x40\n        /* \"#utility.yul\":14205:14208   */\n      dup3\n        /* \"#utility.yul\":14201:14213   */\n      add\n        /* \"#utility.yul\":14194:14213   */\n      swap1\n      pop\n        /* \"#utility.yul\":13853:14219   */\n      swap2\n      swap1\n      pop\n      jump\t// out\n        /* \"#utility.yul\":14225:14644   */\n    tag_170:\n        /* \"#utility.yul\":14391:14395   */\n      0x00\n        /* \"#utility.yul\":14429:14431   */\n      0x20\n        /* \"#utility.yul\":14418:14427   */\n      dup3\n        /* \"#utility.yul\":14414:14432   */\n      add\n        /* \"#utility.yul\":14406:14432   */\n      swap1\n      pop\n        /* \"#utility.yul\":14478:14487   */\n      dup2\n        /* \"#utility.yul\":14472:14476   */\n      dup2\n        /* \"#utility.yul\":14468:14488   */\n      sub\n        /* \"#utility.yul\":14464:14465   */\n      0x00\n        /* \"#utility.yul\":14453:14462   */\n      dup4\n        /* \"#utility.yul\":14449:14466   */\n      add\n        /* \"#utility.yul\":14442:14489   */\n      mstore\n        /* \"#utility.yul\":14506:14637   */\n      tag_380\n        /* \"#utility.yul\":14632:14636   */\n      dup2\n        /* \"#utility.yul\":14506:14637   */\n      tag_244\n      jump\t// in\n    tag_380:\n        /* \"#utility.yul\":14498:14637   */\n      swap1\n      pop\n        /* \"#utility.yul\":14225:14644   */\n      swap2\n      swap1\n      pop\n      jump\t// out\n        /* \"#utility.yul\":14650:14876   */\n    tag_245:\n        /* \"#utility.yul\":14790:14824   */\n      0x4f776e657220686173206e6f7420617070726f7665642074686520696e746572\n        /* \"#utility.yul\":14786:14787   */\n      0x00\n        /* \"#utility.yul\":14778:14784   */\n      dup3\n        /* \"#utility.yul\":14774:14788   */\n      add\n        /* \"#utility.yul\":14767:14825   */\n      mstore\n        /* \"#utility.yul\":14859:14868   */\n      0x6d65646961727900000000000000000000000000000000000000000000000000\n        /* \"#utility.yul\":14854:14856   */\n      0x20\n        /* \"#utility.yul\":14846:14852   */\n      dup3\n        /* \"#utility.yul\":14842:14857   */\n      add\n        /* \"#utility.yul\":14835:14869   */\n      mstore\n        /* \"#utility.yul\":14650:14876   */\n      pop\n      jump\t// out\n        /* \"#utility.yul\":14882:15248   */\n    tag_246:\n        /* \"#utility.yul\":15024:15027   */\n      0x00\n        /* \"#utility.yul\":15045:15112   */\n      tag_383\n        /* \"#utility.yul\":15109:15111   */\n      0x27\n        /* \"#utility.yul\":15104:15107   */\n      dup4\n        /* \"#utility.yul\":15045:15112   */\n      tag_223\n      jump\t// in\n    tag_383:\n        /* \"#utility.yul\":15038:15112   */\n      swap2\n      pop\n        /* \"#utility.yul\":15121:15214   */\n      tag_384\n        /* \"#utility.yul\":15210:15213   */\n      dup3\n        /* \"#utility.yul\":15121:15214   */\n      tag_245\n      jump\t// in\n    tag_384:\n        /* \"#utility.yul\":15239:15241   */\n      0x40\n        /* \"#utility.yul\":15234:15237   */\n      dup3\n        /* \"#utility.yul\":15230:15242   */\n      add\n        /* \"#utility.yul\":15223:15242   */\n      swap1\n      pop\n        /* \"#utility.yul\":14882:15248   */\n      swap2\n      swap1\n      pop\n      jump\t// out\n        /* \"#utility.yul\":15254:15673   */\n    tag_173:\n        /* \"#utility.yul\":15420:15424   */\n      0x00\n        /* \"#utility.yul\":15458:15460   */\n      0x20\n        /* \"#utility.yul\":15447:15456   */\n      dup3\n        /* \"#utility.yul\":15443:15461   */\n      add\n        /* \"#utility.yul\":15435:15461   */\n      swap1\n      pop\n        /* \"#utility.yul\":15507:15516   */\n      dup2\n        /* \"#utility.yul\":15501:15505   */\n      dup2\n        /* \"#utility.yul\":15497:15517   */\n      sub\n        /* \"#utility.yul\":15493:15494   */\n      0x00\n        /* \"#utility.yul\":15482:15491   */\n      dup4\n        /* \"#utility.yul\":15478:15495   */\n      add\n        /* \"#utility.yul\":15471:15518   */\n      mstore\n        /* \"#utility.yul\":15535:15666   */\n      tag_386\n        /* \"#utility.yul\":15661:15665   */\n      dup2\n        /* \"#utility.yul\":15535:15666   */\n      tag_246\n      jump\t// in\n    tag_386:\n        /* \"#utility.yul\":15527:15666   */\n      swap1\n      pop\n        /* \"#utility.yul\":15254:15673   */\n      swap2\n      swap1\n      pop\n      jump\t// out\n        /* \"#utility.yul\":15679:15906   */\n    tag_247:\n        /* \"#utility.yul\":15819:15853   */\n      0x57696e6e657220686173206e6f7420617070726f7665642074686520696e7465\n        /* \"#utility.yul\":15815:15816   */\n      0x00\n        /* \"#utility.yul\":15807:15813   */\n      dup3\n        /* \"#utility.yul\":15803:15817   */\n      add\n        /* \"#utility.yul\":15796:15854   */\n      mstore\n        /* \"#utility.yul\":15888:15898   */\n      0x726d656469617279000000000000000000000000000000000000000000000000\n        /* \"#utility.yul\":15883:15885   */\n      0x20\n        /* \"#utility.yul\":15875:15881   */\n      dup3\n        /* \"#utility.yul\":15871:15886   */\n      add\n        /* \"#utility.yul\":15864:15899   */\n      mstore\n        /* \"#utility.yul\":15679:15906   */\n      pop\n      jump\t// out\n        /* \"#utility.yul\":15912:16278   */\n    tag_248:\n        /* \"#utility.yul\":16054:16057   */\n      0x00\n        /* \"#utility.yul\":16075:16142   */\n      tag_389\n        /* \"#utility.yul\":16139:16141   */\n      0x28\n        /* \"#utility.yul\":16134:16137   */\n      dup4\n        /* \"#utility.yul\":16075:16142   */\n      tag_223\n      jump\t// in\n    tag_389:\n        /* \"#utility.yul\":16068:16142   */\n      swap2\n      pop\n        /* \"#utility.yul\":16151:16244   */\n      tag_390\n        /* \"#utility.yul\":16240:16243   */\n      dup3\n        /* \"#utility.yul\":16151:16244   */\n      tag_247\n      jump\t// in\n    tag_390:\n        /* \"#utility.yul\":16269:16271   */\n      0x40\n        /* \"#utility.yul\":16264:16267   */\n      dup3\n        /* \"#utility.yul\":16260:16272   */\n      add\n        /* \"#utility.yul\":16253:16272   */\n      swap1\n      pop\n        /* \"#utility.yul\":15912:16278   */\n      swap2\n      swap1\n      pop\n      jump\t// out\n        /* \"#utility.yul\":16284:16703   */\n    tag_176:\n        /* \"#utility.yul\":16450:16454   */\n      0x00\n        /* \"#utility.yul\":16488:16490   */\n      0x20\n        /* \"#utility.yul\":16477:16486   */\n      dup3\n        /* \"#utility.yul\":16473:16491   */\n      add\n        /* \"#utility.yul\":16465:16491   */\n      swap1\n      pop\n        /* \"#utility.yul\":16537:16546   */\n      dup2\n        /* \"#utility.yul\":16531:16535   */\n      dup2\n        /* \"#utility.yul\":16527:16547   */\n      sub\n        /* \"#utility.yul\":16523:16524   */\n      0x00\n        /* \"#utility.yul\":16512:16521   */\n      dup4\n        /* \"#utility.yul\":16508:16525   */\n      add\n        /* \"#utility.yul\":16501:16548   */\n      mstore\n        /* \"#utility.yul\":16565:16696   */\n      tag_392\n        /* \"#utility.yul\":16691:16695   */\n      dup2\n        /* \"#utility.yul\":16565:16696   */\n      tag_248\n      jump\t// in\n    tag_392:\n        /* \"#utility.yul\":16557:16696   */\n      swap1\n      pop\n        /* \"#utility.yul\":16284:16703   */\n      swap2\n      swap1\n      pop\n      jump\t// out\n        /* \"#utility.yul\":16709:16883   */\n    tag_249:\n        /* \"#utility.yul\":16849:16875   */\n      0x5061796d656e7420616c726561647920617070726f7665640000000000000000\n        /* \"#utility.yul\":16845:16846   */\n      0x00\n        /* \"#utility.yul\":16837:16843   */\n      dup3\n        /* \"#utility.yul\":16833:16847   */\n      add\n        /* \"#utility.yul\":16826:16876   */\n      mstore\n        /* \"#utility.yul\":16709:16883   */\n      pop\n      jump\t// out\n        /* \"#utility.yul\":16889:17255   */\n    tag_250:\n        /* \"#utility.yul\":17031:17034   */\n      0x00\n        /* \"#utility.yul\":17052:17119   */\n      tag_395\n        /* \"#utility.yul\":17116:17118   */\n      0x18\n        /* \"#utility.yul\":17111:17114   */\n      dup4\n        /* \"#utility.yul\":17052:17119   */\n      tag_223\n      jump\t// in\n    tag_395:\n        /* \"#utility.yul\":17045:17119   */\n      swap2\n      pop\n        /* \"#utility.yul\":17128:17221   */\n      tag_396\n        /* \"#utility.yul\":17217:17220   */\n      dup3\n        /* \"#utility.yul\":17128:17221   */\n      tag_249\n      jump\t// in\n    tag_396:\n        /* \"#utility.yul\":17246:17248   */\n      0x20\n        /* \"#utility.yul\":17241:17244   */\n      dup3\n        /* \"#utility.yul\":17237:17249   */\n      add\n        /* \"#utility.yul\":17230:17249   */\n      swap1\n      pop\n        /* \"#utility.yul\":16889:17255   */\n      swap2\n      swap1\n      pop\n      jump\t// out\n        /* \"#utility.yul\":17261:17680   */\n    tag_179:\n        /* \"#utility.yul\":17427:17431   */\n      0x00\n        /* \"#utility.yul\":17465:17467   */\n      0x20\n        /* \"#utility.yul\":17454:17463   */\n      dup3\n        /* \"#utility.yul\":17450:17468   */\n      add\n        /* \"#utility.yul\":17442:17468   */\n      swap1\n      pop\n        /* \"#utility.yul\":17514:17523   */\n      dup2\n        /* \"#utility.yul\":17508:17512   */\n      dup2\n        /* \"#utility.yul\":17504:17524   */\n      sub\n        /* \"#utility.yul\":17500:17501   */\n      0x00\n        /* \"#utility.yul\":17489:17498   */\n      dup4\n        /* \"#utility.yul\":17485:17502   */\n      add\n        /* \"#utility.yul\":17478:17525   */\n      mstore\n        /* \"#utility.yul\":17542:17673   */\n      tag_398\n        /* \"#utility.yul\":17668:17672   */\n      dup2\n        /* \"#utility.yul\":17542:17673   */\n      tag_250\n      jump\t// in\n    tag_398:\n        /* \"#utility.yul\":17534:17673   */\n      swap1\n      pop\n        /* \"#utility.yul\":17261:17680   */\n      swap2\n      swap1\n      pop\n      jump\t// out\n        /* \"#utility.yul\":17686:17860   */\n    tag_251:\n        /* \"#utility.yul\":17826:17852   */\n      0x496e7465726d65646961727920616c7265616479207365740000000000000000\n        /* \"#utility.yul\":17822:17823   */\n      0x00\n        /* \"#utility.yul\":17814:17820   */\n      dup3\n        /* \"#utility.yul\":17810:17824   */\n      add\n        /* \"#utility.yul\":17803:17853   */\n      mstore\n        /* \"#utility.yul\":17686:17860   */\n      pop\n      jump\t// out\n        /* \"#utility.yul\":17866:18232   */\n    tag_252:\n        /* \"#utility.yul\":18008:18011   */\n      0x00\n        /* \"#utility.yul\":18029:18096   */\n      tag_401\n        /* \"#utility.yul\":18093:18095   */\n      0x18\n        /* \"#utility.yul\":18088:18091   */\n      dup4\n        /* \"#utility.yul\":18029:18096   */\n      tag_223\n      jump\t// in\n    tag_401:\n        /* \"#utility.yul\":18022:18096   */\n      swap2\n      pop\n        /* \"#utility.yul\":18105:18198   */\n      tag_402\n        /* \"#utility.yul\":18194:18197   */\n      dup3\n        /* \"#utility.yul\":18105:18198   */\n      tag_251\n      jump\t// in\n    tag_402:\n        /* \"#utility.yul\":18223:18225   */\n      0x20\n        /* \"#utility.yul\":18218:18221   */\n      dup3\n        /* \"#utility.yul\":18214:18226   */\n      add\n        /* \"#utility.yul\":18207:18226   */\n      swap1\n      pop\n        /* \"#utility.yul\":17866:18232   */\n      swap2\n      swap1\n      pop\n      jump\t// out\n        /* \"#utility.yul\":18238:18657   */\n    tag_186:\n        /* \"#utility.yul\":18404:18408   */\n      0x00\n        /* \"#utility.yul\":18442:18444   */\n      0x20\n        /* \"#utility.yul\":18431:18440   */\n      dup3\n        /* \"#utility.yul\":18427:18445   */\n      add\n        /* \"#utility.yul\":18419:18445   */\n      swap1\n      pop\n        /* \"#utility.yul\":18491:18500   */\n      dup2\n        /* \"#utility.yul\":18485:18489   */\n      dup2\n        /* \"#utility.yul\":18481:18501   */\n      sub\n        /* \"#utility.yul\":18477:18478   */\n      0x00\n        /* \"#utility.yul\":18466:18475   */\n      dup4\n        /* \"#utility.yul\":18462:18479   */\n      add\n        /* \"#utility.yul\":18455:18502   */\n      mstore\n        /* \"#utility.yul\":18519:18650   */\n      tag_404\n        /* \"#utility.yul\":18645:18649   */\n      dup2\n        /* \"#utility.yul\":18519:18650   */\n      tag_252\n      jump\t// in\n    tag_404:\n        /* \"#utility.yul\":18511:18650   */\n      swap1\n      pop\n        /* \"#utility.yul\":18238:18657   */\n      swap2\n      swap1\n      pop\n      jump\t// out\n        /* \"#utility.yul\":18663:18832   */\n    tag_253:\n        /* \"#utility.yul\":18803:18824   */\n      0x4f776e657220616c726561647920766f74656400000000000000000000000000\n        /* \"#utility.yul\":18799:18800   */\n      0x00\n        /* \"#utility.yul\":18791:18797   */\n      dup3\n        /* \"#utility.yul\":18787:18801   */\n      add\n        /* \"#utility.yul\":18780:18825   */\n      mstore\n        /* \"#utility.yul\":18663:18832   */\n      pop\n      jump\t// out\n        /* \"#utility.yul\":18838:19204   */\n    tag_254:\n        /* \"#utility.yul\":18980:18983   */\n      0x00\n        /* \"#utility.yul\":19001:19068   */\n      tag_407\n        /* \"#utility.yul\":19065:19067   */\n      0x13\n        /* \"#utility.yul\":19060:19063   */\n      dup4\n        /* \"#utility.yul\":19001:19068   */\n      tag_223\n      jump\t// in\n    tag_407:\n        /* \"#utility.yul\":18994:19068   */\n      swap2\n      pop\n        /* \"#utility.yul\":19077:19170   */\n      tag_408\n        /* \"#utility.yul\":19166:19169   */\n      dup3\n        /* \"#utility.yul\":19077:19170   */\n      tag_253\n      jump\t// in\n    tag_408:\n        /* \"#utility.yul\":19195:19197   */\n      0x20\n        /* \"#utility.yul\":19190:19193   */\n      dup3\n        /* \"#utility.yul\":19186:19198   */\n      add\n        /* \"#utility.yul\":19179:19198   */\n      swap1\n      pop\n        /* \"#utility.yul\":18838:19204   */\n      swap2\n      swap1\n      pop\n      jump\t// out\n        /* \"#utility.yul\":19210:19629   */\n    tag_193:\n        /* \"#utility.yul\":19376:19380   */\n      0x00\n        /* \"#utility.yul\":19414:19416   */\n      0x20\n        /* \"#utility.yul\":19403:19412   */\n      dup3\n        /* \"#utility.yul\":19399:19417   */\n      add\n        /* \"#utility.yul\":19391:19417   */\n      swap1\n      pop\n        /* \"#utility.yul\":19463:19472   */\n      dup2\n        /* \"#utility.yul\":19457:19461   */\n      dup2\n        /* \"#utility.yul\":19453:19473   */\n      sub\n        /* \"#utility.yul\":19449:19450   */\n      0x00\n        /* \"#utility.yul\":19438:19447   */\n      dup4\n        /* \"#utility.yul\":19434:19451   */\n      add\n        /* \"#utility.yul\":19427:19474   */\n      mstore\n        /* \"#utility.yul\":19491:19622   */\n      tag_410\n        /* \"#utility.yul\":19617:19621   */\n      dup2\n        /* \"#utility.yul\":19491:19622   */\n      tag_254\n      jump\t// in\n    tag_410:\n        /* \"#utility.yul\":19483:19622   */\n      swap1\n      pop\n        /* \"#utility.yul\":19210:19629   */\n      swap2\n      swap1\n      pop\n      jump\t// out\n        /* \"#utility.yul\":19635:19871   */\n    tag_255:\n        /* \"#utility.yul\":19775:19809   */\n      0x596f75206d7573742070617920616e20616d6f756e7420657175616c20746f20\n        /* \"#utility.yul\":19771:19772   */\n      0x00\n        /* \"#utility.yul\":19763:19769   */\n      dup3\n        /* \"#utility.yul\":19759:19773   */\n      add\n        /* \"#utility.yul\":19752:19810   */\n      mstore\n        /* \"#utility.yul\":19844:19863   */\n      0x74686520616d6f756e7420626964646564000000000000000000000000000000\n        /* \"#utility.yul\":19839:19841   */\n      0x20\n        /* \"#utility.yul\":19831:19837   */\n      dup3\n        /* \"#utility.yul\":19827:19842   */\n      add\n        /* \"#utility.yul\":19820:19864   */\n      mstore\n        /* \"#utility.yul\":19635:19871   */\n      pop\n      jump\t// out\n        /* \"#utility.yul\":19877:20243   */\n    tag_256:\n        /* \"#utility.yul\":20019:20022   */\n      0x00\n        /* \"#utility.yul\":20040:20107   */\n      tag_413\n        /* \"#utility.yul\":20104:20106   */\n      0x31\n        /* \"#utility.yul\":20099:20102   */\n      dup4\n        /* \"#utility.yul\":20040:20107   */\n      tag_223\n      jump\t// in\n    tag_413:\n        /* \"#utility.yul\":20033:20107   */\n      swap2\n      pop\n        /* \"#utility.yul\":20116:20209   */\n      tag_414\n        /* \"#utility.yul\":20205:20208   */\n      dup3\n        /* \"#utility.yul\":20116:20209   */\n      tag_255\n      jump\t// in\n    tag_414:\n        /* \"#utility.yul\":20234:20236   */\n      0x40\n        /* \"#utility.yul\":20229:20232   */\n      dup3\n        /* \"#utility.yul\":20225:20237   */\n      add\n        /* \"#utility.yul\":20218:20237   */\n      swap1\n      pop\n        /* \"#utility.yul\":19877:20243   */\n      swap2\n      swap1\n      pop\n      jump\t// out\n        /* \"#utility.yul\":20249:20668   */\n    tag_200:\n        /* \"#utility.yul\":20415:20419   */\n      0x00\n        /* \"#utility.yul\":20453:20455   */\n      0x20\n        /* \"#utility.yul\":20442:20451   */\n      dup3\n        /* \"#utility.yul\":20438:20456   */\n      add\n        /* \"#utility.yul\":20430:20456   */\n      swap1\n      pop\n        /* \"#utility.yul\":20502:20511   */\n      dup2\n        /* \"#utility.yul\":20496:20500   */\n      dup2\n        /* \"#utility.yul\":20492:20512   */\n      sub\n        /* \"#utility.yul\":20488:20489   */\n      0x00\n        /* \"#utility.yul\":20477:20486   */\n      dup4\n        /* \"#utility.yul\":20473:20490   */\n      add\n        /* \"#utility.yul\":20466:20513   */\n      mstore\n        /* \"#utility.yul\":20530:20661   */\n      tag_416\n        /* \"#utility.yul\":20656:20660   */\n      dup2\n        /* \"#utility.yul\":20530:20661   */\n      tag_256\n      jump\t// in\n    tag_416:\n        /* \"#utility.yul\":20522:20661   */\n      swap1\n      pop\n        /* \"#utility.yul\":20249:20668   */\n      swap2\n      swap1\n      pop\n      jump\t// out\n        /* \"#utility.yul\":20674:20851   */\n    tag_257:\n        /* \"#utility.yul\":20814:20843   */\n      0x57696e6e657220616c7265616479207061696420746865206269640000000000\n        /* \"#utility.yul\":20810:20811   */\n      0x00\n        /* \"#utility.yul\":20802:20808   */\n      dup3\n        /* \"#utility.yul\":20798:20812   */\n      add\n        /* \"#utility.yul\":20791:20844   */\n      mstore\n        /* \"#utility.yul\":20674:20851   */\n      pop\n      jump\t// out\n        /* \"#utility.yul\":20857:21223   */\n    tag_258:\n        /* \"#utility.yul\":20999:21002   */\n      0x00\n        /* \"#utility.yul\":21020:21087   */\n      tag_419\n        /* \"#utility.yul\":21084:21086   */\n      0x1b\n        /* \"#utility.yul\":21079:21082   */\n      dup4\n        /* \"#utility.yul\":21020:21087   */\n      tag_223\n      jump\t// in\n    tag_419:\n        /* \"#utility.yul\":21013:21087   */\n      swap2\n      pop\n        /* \"#utility.yul\":21096:21189   */\n      tag_420\n        /* \"#utility.yul\":21185:21188   */\n      dup3\n        /* \"#utility.yul\":21096:21189   */\n      tag_257\n      jump\t// in\n    tag_420:\n        /* \"#utility.yul\":21214:21216   */\n      0x20\n        /* \"#utility.yul\":21209:21212   */\n      dup3\n        /* \"#utility.yul\":21205:21217   */\n      add\n        /* \"#utility.yul\":21198:21217   */\n      swap1\n      pop\n        /* \"#utility.yul\":20857:21223   */\n      swap2\n      swap1\n      pop\n      jump\t// out\n        /* \"#utility.yul\":21229:21648   */\n    tag_203:\n        /* \"#utility.yul\":21395:21399   */\n      0x00\n        /* \"#utility.yul\":21433:21435   */\n      0x20\n        /* \"#utility.yul\":21422:21431   */\n      dup3\n        /* \"#utility.yul\":21418:21436   */\n      add\n        /* \"#utility.yul\":21410:21436   */\n      swap1\n      pop\n        /* \"#utility.yul\":21482:21491   */\n      dup2\n        /* \"#utility.yul\":21476:21480   */\n      dup2\n        /* \"#utility.yul\":21472:21492   */\n      sub\n        /* \"#utility.yul\":21468:21469   */\n      0x00\n        /* \"#utility.yul\":21457:21466   */\n      dup4\n        /* \"#utility.yul\":21453:21470   */\n      add\n        /* \"#utility.yul\":21446:21493   */\n      mstore\n        /* \"#utility.yul\":21510:21641   */\n      tag_422\n        /* \"#utility.yul\":21636:21640   */\n      dup2\n        /* \"#utility.yul\":21510:21641   */\n      tag_258\n      jump\t// in\n    tag_422:\n        /* \"#utility.yul\":21502:21641   */\n      swap1\n      pop\n        /* \"#utility.yul\":21229:21648   */\n      swap2\n      swap1\n      pop\n      jump\t// out\n        /* \"#utility.yul\":21654:21834   */\n    tag_259:\n        /* \"#utility.yul\":21794:21826   */\n      0x5468652061756374696f6e20686173206e6f7420636c6f736564207965740000\n        /* \"#utility.yul\":21790:21791   */\n      0x00\n        /* \"#utility.yul\":21782:21788   */\n      dup3\n        /* \"#utility.yul\":21778:21792   */\n      add\n        /* \"#utility.yul\":21771:21827   */\n      mstore\n        /* \"#utility.yul\":21654:21834   */\n      pop\n      jump\t// out\n        /* \"#utility.yul\":21840:22206   */\n    tag_260:\n        /* \"#utility.yul\":21982:21985   */\n      0x00\n        /* \"#utility.yul\":22003:22070   */\n      tag_425\n        /* \"#utility.yul\":22067:22069   */\n      0x1e\n        /* \"#utility.yul\":22062:22065   */\n      dup4\n        /* \"#utility.yul\":22003:22070   */\n      tag_223\n      jump\t// in\n    tag_425:\n        /* \"#utility.yul\":21996:22070   */\n      swap2\n      pop\n        /* \"#utility.yul\":22079:22172   */\n      tag_426\n        /* \"#utility.yul\":22168:22171   */\n      dup3\n        /* \"#utility.yul\":22079:22172   */\n      tag_259\n      jump\t// in\n    tag_426:\n        /* \"#utility.yul\":22197:22199   */\n      0x20\n        /* \"#utility.yul\":22192:22195   */\n      dup3\n        /* \"#utility.yul\":22188:22200   */\n      add\n        /* \"#utility.yul\":22181:22200   */\n      swap1\n      pop\n        /* \"#utility.yul\":21840:22206   */\n      swap2\n      swap1\n      pop\n      jump\t// out\n        /* \"#utility.yul\":22212:22631   */\n    tag_206:\n        /* \"#utility.yul\":22378:22382   */\n      0x00\n        /* \"#utility.yul\":22416:22418   */\n      0x20\n        /* \"#utility.yul\":22405:22414   */\n      dup3\n        /* \"#utility.yul\":22401:22419   */\n      add\n        /* \"#utility.yul\":22393:22419   */\n      swap1\n      pop\n        /* \"#utility.yul\":22465:22474   */\n      dup2\n        /* \"#utility.yul\":22459:22463   */\n      dup2\n        /* \"#utility.yul\":22455:22475   */\n      sub\n        /* \"#utility.yul\":22451:22452   */\n      0x00\n        /* \"#utility.yul\":22440:22449   */\n      dup4\n        /* \"#utility.yul\":22436:22453   */\n      add\n        /* \"#utility.yul\":22429:22476   */\n      mstore\n        /* \"#utility.yul\":22493:22624   */\n      tag_428\n        /* \"#utility.yul\":22619:22623   */\n      dup2\n        /* \"#utility.yul\":22493:22624   */\n      tag_260\n      jump\t// in\n    tag_428:\n        /* \"#utility.yul\":22485:22624   */\n      swap1\n      pop\n        /* \"#utility.yul\":22212:22631   */\n      swap2\n      swap1\n      pop\n      jump\t// out\n\n    auxdata: 0xa2646970667358221220a9b9053ffa82b60f4eea50b8647cd0fbed5d636bfd5d6969c9d96cf20ca1bc4364736f6c63430008120033\n}\n",
				"bytecode": {
					"linkReferences": {},
					"object": "60806040523480156200001157600080fd5b50604051620024a7380380620024a783398181016040528101906200003791906200039b565b826003908162000048919062000657565b508160048190555080426200005e91906200076d565b600881905550336000806101000a81548173ffffffffffffffffffffffffffffffffffffffff021916908373ffffffffffffffffffffffffffffffffffffffff1602179055506000600781905550600454600581905550600060098190555060006006819055506000600b60006101000a81548160ff0219169083151502179055506000600b60016101000a81548160ff0219169083151502179055506000600b60026101000a81548160ff0219169083151502179055506000600b60036101000a81548160ff0219169083151502179055506000600b60046101000a81548160ff0219169083151502179055506000600b60056101000a81548160ff0219169083151502179055506000600b60066101000a81548160ff0219169083151502179055506000600260006101000a81548173ffffffffffffffffffffffffffffffffffffffff021916908373ffffffffffffffffffffffffffffffffffffffff160217905550505050620007a8565b6000604051905090565b600080fd5b600080fd5b600080fd5b600080fd5b6000601f19601f8301169050919050565b7f4e487b7100000000000000000000000000000000000000000000000000000000600052604160045260246000fd5b6200023682620001eb565b810181811067ffffffffffffffff82111715620002585762000257620001fc565b5b80604052505050565b60006200026d620001cd565b90506200027b82826200022b565b919050565b600067ffffffffffffffff8211156200029e576200029d620001fc565b5b620002a982620001eb565b9050602081019050919050565b60005b83811015620002d6578082015181840152602081019050620002b9565b60008484015250505050565b6000620002f9620002f38462000280565b62000261565b905082815260208101848484011115620003185762000317620001e6565b5b62000325848285620002b6565b509392505050565b600082601f830112620003455762000344620001e1565b5b815162000357848260208601620002e2565b91505092915050565b6000819050919050565b620003758162000360565b81146200038157600080fd5b50565b60008151905062000395816200036a565b92915050565b600080600060608486031215620003b757620003b6620001d7565b5b600084015167ffffffffffffffff811115620003d857620003d7620001dc565b5b620003e6868287016200032d565b9350506020620003f98682870162000384565b92505060406200040c8682870162000384565b9150509250925092565b600081519050919050565b7f4e487b7100000000000000000000000000000000000000000000000000000000600052602260045260246000fd5b600060028204905060018216806200046957607f821691505b6020821081036200047f576200047e62000421565b5b50919050565b60008190508160005260206000209050919050565b60006020601f8301049050919050565b600082821b905092915050565b600060088302620004e97fffffffffffffffffffffffffffffffffffffffffffffffffffffffffffffffff82620004aa565b620004f58683620004aa565b95508019841693508086168417925050509392505050565b6000819050919050565b600062000538620005326200052c8462000360565b6200050d565b62000360565b9050919050565b6000819050919050565b620005548362000517565b6200056c62000563826200053f565b848454620004b7565b825550505050565b600090565b6200058362000574565b6200059081848462000549565b505050565b5b81811015620005b857620005ac60008262000579565b60018101905062000596565b5050565b601f8211156200060757620005d18162000485565b620005dc846200049a565b81016020851015620005ec578190505b62000604620005fb856200049a565b83018262000595565b50505b505050565b600082821c905092915050565b60006200062c600019846008026200060c565b1980831691505092915050565b600062000647838362000619565b9150826002028217905092915050565b620006628262000416565b67ffffffffffffffff8111156200067e576200067d620001fc565b5b6200068a825462000450565b62000697828285620005bc565b600060209050601f831160018114620006cf5760008415620006ba578287015190505b620006c6858262000639565b86555062000736565b601f198416620006df8662000485565b60005b828110156200070957848901518255600182019150602085019450602081019050620006e2565b8683101562000729578489015162000725601f89168262000619565b8355505b6001600288020188555050505b505050505050565b7f4e487b7100000000000000000000000000000000000000000000000000000000600052601160045260246000fd5b60006200077a8262000360565b9150620007878362000360565b9250828201905080821115620007a257620007a16200073e565b5b92915050565b611cef80620007b86000396000f3fe6080604052600436106101405760003560e01c80639c1bfb6a116100b6578063d20a6f1f1161006f578063d20a6f1f146103cf578063d3a86386146103fa578063d3fe57c914610425578063dfbf53ae14610450578063e35401961461047b578063f7fbae45146104a657610140565b80639c1bfb6a146102f2578063a44dad5d1461031b578063a483708f14610346578063ab5895291461036f578063ae91cd2314610379578063c1edb4f1146103a457610140565b80633ccfd60b116101085780633ccfd60b1461021a578063454a2ab31461023157806379fd022e1461025a5780638cf80438146102855780638da5cb5b146102b057806396fd3409146102db57610140565b80630331de5814610145578063087262961461017057806312065fe01461019b57806313b0f944146101c6578063333f6482146101f1575b600080fd5b34801561015157600080fd5b5061015a6104d1565b6040516101679190611141565b60405180910390f35b34801561017c57600080fd5b506101856104e4565b6040516101929190611175565b60405180910390f35b3480156101a757600080fd5b506101b06104ea565b6040516101bd9190611175565b60405180910390f35b3480156101d257600080fd5b506101db6104f2565b6040516101e89190611175565b60405180910390f35b3480156101fd57600080fd5b50610218600480360381019061021391906111c1565b6104f8565b005b34801561022657600080fd5b5061022f610610565b005b34801561023d57600080fd5b506102586004803603810190610253919061121a565b61083b565b005b34801561026657600080fd5b5061026f610a42565b60405161027c9190611288565b60405180910390f35b34801561029157600080fd5b5061029a610a68565b6040516102a79190611175565b60405180910390f35b3480156102bc57600080fd5b506102c5610a6e565b6040516102d29190611288565b60405180910390f35b3480156102e757600080fd5b506102f0610a92565b005b3480156102fe57600080fd5b50610319600480360381019061031491906112cf565b610c7c565b005b34801561032757600080fd5b50610330610de7565b60405161033d9190611141565b60405180910390f35b34801561035257600080fd5b5061036d600480360381019061036891906111c1565b610dfa565b005b610377610f10565b005b34801561038557600080fd5b5061038e611095565b60405161039b9190611175565b60405180910390f35b3480156103b057600080fd5b506103b961109b565b6040516103c69190611141565b60405180910390f35b3480156103db57600080fd5b506103e46110ae565b6040516103f19190611141565b60405180910390f35b34801561040657600080fd5b5061040f6110c1565b60405161041c9190611175565b60405180910390f35b34801561043157600080fd5b5061043a6110c7565b6040516104479190611141565b60405180910390f35b34801561045c57600080fd5b506104656110da565b6040516104729190611288565b60405180910390f35b34801561048757600080fd5b50610490611100565b60405161049d9190611141565b60405180910390f35b3480156104b257600080fd5b506104bb611113565b6040516104c89190611141565b60405180910390f35b600b60009054906101000a900460ff1681565b60095481565b600047905090565b60065481565b3373ffffffffffffffffffffffffffffffffffffffff16600160009054906101000a900473ffffffffffffffffffffffffffffffffffffffff1673ffffffffffffffffffffffffffffffffffffffff1614610588576040517f08c379a000000000000000000000000000000000000000000000000000000000815260040161057f90611392565b60405180910390fd5b600b60039054906101000a900460ff16156105d8576040517f08c379a00000000000000000000000000000000000000000000000000000000081526004016105cf906113fe565b60405180910390fd5b6001600b60036101000a81548160ff02191690831515021790555080600b60016101000a81548160ff02191690831515021790555050565b3373ffffffffffffffffffffffffffffffffffffffff1660008054906101000a900473ffffffffffffffffffffffffffffffffffffffff1673ffffffffffffffffffffffffffffffffffffffff161461069e576040517f08c379a000000000000000000000000000000000000000000000000000000000815260040161069590611490565b60405180910390fd5b600b60059054906101000a900460ff166106ed576040517f08c379a00000000000000000000000000000000000000000000000000000000081526004016106e490611522565b60405180910390fd5b600b60069054906101000a900460ff161561073d576040517f08c379a0000000000000000000000000000000000000000000000000000000008152600401610734906115b4565b60405180910390fd5b60008054906101000a900473ffffffffffffffffffffffffffffffffffffffff1673ffffffffffffffffffffffffffffffffffffffff166108fc6007546005546107879190611603565b9081150290604051600060405180830381858888f193505050501580156107b2573d6000803e3d6000fd5b50600260009054906101000a900473ffffffffffffffffffffffffffffffffffffffff1673ffffffffffffffffffffffffffffffffffffffff166108fc6007549081150290604051600060405180830381858888f1935050505015801561081d573d6000803e3d6000fd5b506001600b60066101000a81548160ff021916908315150217905550565b3373ffffffffffffffffffffffffffffffffffffffff1660008054906101000a900473ffffffffffffffffffffffffffffffffffffffff1673ffffffffffffffffffffffffffffffffffffffff16036108c9576040517f08c379a00000000000000000000000000000000000000000000000000000000081526004016108c090611683565b60405180910390fd5b600854421061090d576040517f08c379a0000000000000000000000000000000000000000000000000000000008152600401610904906116ef565b60405180910390fd5b600454811015610952576040517f08c379a00000000000000000000000000000000000000000000000000000000081526004016109499061175b565b60405180910390fd5b6000600a60003373ffffffffffffffffffffffffffffffffffffffff1673ffffffffffffffffffffffffffffffffffffffff168152602001908152602001600020905060008160000154036109ba57600960008154809291906109b49061177b565b91905055505b818160000181905550428160010181905550600554816000015410610a2657806000015460058190555033600160006101000a81548173ffffffffffffffffffffffffffffffffffffffff021916908373ffffffffffffffffffffffffffffffffffffffff1602179055505b60066000815480929190610a399061177b565b91905055505050565b600260009054906101000a900473ffffffffffffffffffffffffffffffffffffffff1681565b60055481565b60008054906101000a900473ffffffffffffffffffffffffffffffffffffffff1681565b3373ffffffffffffffffffffffffffffffffffffffff16600260009054906101000a900473ffffffffffffffffffffffffffffffffffffffff1673ffffffffffffffffffffffffffffffffffffffff1614610b22576040517f08c379a0000000000000000000000000000000000000000000000000000000008152600401610b1990611835565b60405180910390fd5b600b60049054906101000a900460ff16610b71576040517f08c379a0000000000000000000000000000000000000000000000000000000008152600401610b68906118c7565b60405180910390fd5b600b60009054906101000a900460ff16610bc0576040517f08c379a0000000000000000000000000000000000000000000000000000000008152600401610bb790611959565b60405180910390fd5b600b60019054906101000a900460ff16610c0f576040517f08c379a0000000000000000000000000000000000000000000000000000000008152600401610c06906119eb565b60405180910390fd5b600b60059054906101000a900460ff1615610c5f576040517f08c379a0000000000000000000000000000000000000000000000000000000008152600401610c5690611a57565b60405180910390fd5b6001600b60056101000a81548160ff021916908315150217905550565b3373ffffffffffffffffffffffffffffffffffffffff1660008054906101000a900473ffffffffffffffffffffffffffffffffffffffff1673ffffffffffffffffffffffffffffffffffffffff1614610d0a576040517f08c379a0000000000000000000000000000000000000000000000000000000008152600401610d0190611490565b60405180910390fd5b600073ffffffffffffffffffffffffffffffffffffffff16600260009054906101000a900473ffffffffffffffffffffffffffffffffffffffff1673ffffffffffffffffffffffffffffffffffffffff1614610d9b576040517f08c379a0000000000000000000000000000000000000000000000000000000008152600401610d9290611ac3565b60405180910390fd5b81600260006101000a81548173ffffffffffffffffffffffffffffffffffffffff021916908373ffffffffffffffffffffffffffffffffffffffff160217905550806007819055505050565b600b60019054906101000a900460ff1681565b3373ffffffffffffffffffffffffffffffffffffffff1660008054906101000a900473ffffffffffffffffffffffffffffffffffffffff1673ffffffffffffffffffffffffffffffffffffffff1614610e88576040517f08c379a0000000000000000000000000000000000000000000000000000000008152600401610e7f90611490565b60405180910390fd5b600b60029054906101000a900460ff1615610ed8576040517f08c379a0000000000000000000000000000000000000000000000000000000008152600401610ecf90611b2f565b60405180910390fd5b6001600b60026101000a81548160ff02191690831515021790555080600b60006101000a81548160ff02191690831515021790555050565b3373ffffffffffffffffffffffffffffffffffffffff16600160009054906101000a900473ffffffffffffffffffffffffffffffffffffffff1673ffffffffffffffffffffffffffffffffffffffff1614610fa0576040517f08c379a0000000000000000000000000000000000000000000000000000000008152600401610f9790611392565b60405180910390fd5b6005543414610fe4576040517f08c379a0000000000000000000000000000000000000000000000000000000008152600401610fdb90611bc1565b60405180910390fd5b600b60049054906101000a900460ff1615611034576040517f08c379a000000000000000000000000000000000000000000000000000000000815260040161102b90611c2d565b60405180910390fd5b6008544211611078576040517f08c379a000000000000000000000000000000000000000000000000000000000815260040161106f90611c99565b60405180910390fd5b6001600b60046101000a81548160ff021916908315150217905550565b60085481565b600b60059054906101000a900460ff1681565b600b60039054906101000a900460ff1681565b60045481565b600b60029054906101000a900460ff1681565b600160009054906101000a900473ffffffffffffffffffffffffffffffffffffffff1681565b600b60049054906101000a900460ff1681565b600b60069054906101000a900460ff1681565b60008115159050919050565b61113b81611126565b82525050565b60006020820190506111566000830184611132565b92915050565b6000819050919050565b61116f8161115c565b82525050565b600060208201905061118a6000830184611166565b92915050565b600080fd5b61119e81611126565b81146111a957600080fd5b50565b6000813590506111bb81611195565b92915050565b6000602082840312156111d7576111d6611190565b5b60006111e5848285016111ac565b91505092915050565b6111f78161115c565b811461120257600080fd5b50565b600081359050611214816111ee565b92915050565b6000602082840312156112305761122f611190565b5b600061123e84828501611205565b91505092915050565b600073ffffffffffffffffffffffffffffffffffffffff82169050919050565b600061127282611247565b9050919050565b61128281611267565b82525050565b600060208201905061129d6000830184611279565b92915050565b6112ac81611267565b81146112b757600080fd5b50565b6000813590506112c9816112a3565b92915050565b600080604083850312156112e6576112e5611190565b5b60006112f4858286016112ba565b925050602061130585828601611205565b9150509250929050565b600082825260208201905092915050565b7f416374696f6e20616c6c6f776564206f6e6c7920746f207468652077696e6e6560008201527f72206f66207468652061756374696f6e00000000000000000000000000000000602082015250565b600061137c60308361130f565b915061138782611320565b604082019050919050565b600060208201905081810360008301526113ab8161136f565b9050919050565b7f57696e6e657220616c726561647920766f746564000000000000000000000000600082015250565b60006113e860148361130f565b91506113f3826113b2565b602082019050919050565b60006020820190508181036000830152611417816113db565b9050919050565b7f416374696f6e20616c6c6f776564206f6e6c7920746f20746865206f776e657260008201527f206f66207468652061756374696f6e0000000000000000000000000000000000602082015250565b600061147a602f8361130f565b91506114858261141e565b604082019050919050565b600060208201905081810360008301526114a98161146d565b9050919050565b7f546865207061796d656e7420686173206e6f74206265656e20617070726f766560008201527f642062792074686520696e7465726d6564696172792079657400000000000000602082015250565b600061150c60398361130f565b9150611517826114b0565b604082019050919050565b6000602082019050818103600083015261153b816114ff565b9050919050565b7f596f7520616c726561647920636f6c6c656374656420746865207061796d656e60008201527f7400000000000000000000000000000000000000000000000000000000000000602082015250565b600061159e60218361130f565b91506115a982611542565b604082019050919050565b600060208201905081810360008301526115cd81611591565b9050919050565b7f4e487b7100000000000000000000000000000000000000000000000000000000600052601160045260246000fd5b600061160e8261115c565b91506116198361115c565b9250828203905081811115611631576116306115d4565b5b92915050565b7f4f776e6572732063616e6e6f742062696420696e207468652061756374696f6e600082015250565b600061166d60208361130f565b915061167882611637565b602082019050919050565b6000602082019050818103600083015261169c81611660565b9050919050565b7f41756374696f6e20697320636c6f736564000000000000000000000000000000600082015250565b60006116d960118361130f565b91506116e4826116a3565b602082019050919050565b60006020820190508181036000830152611708816116cc565b9050919050565b7f42696420697320746f6f206c6f77000000000000000000000000000000000000600082015250565b6000611745600e8361130f565b91506117508261170f565b602082019050919050565b6000602082019050818103600083015261177481611738565b9050919050565b60006117868261115c565b91507fffffffffffffffffffffffffffffffffffffffffffffffffffffffffffffffff82036117b8576117b76115d4565b5b600182019050919050565b7f416374696f6e20616c6c6f776564206f6e6c7920746f2074686520696e74657260008201527f6d656469617279206f66207468652061756374696f6e00000000000000000000602082015250565b600061181f60368361130f565b915061182a826117c3565b604082019050919050565b6000602082019050818103600083015261184e81611812565b9050919050565b7f5468652062696420686173206e6f74206265656e20706169642062792074686560008201527f2077696e6e657220796574000000000000000000000000000000000000000000602082015250565b60006118b1602b8361130f565b91506118bc82611855565b604082019050919050565b600060208201905081810360008301526118e0816118a4565b9050919050565b7f4f776e657220686173206e6f7420617070726f7665642074686520696e74657260008201527f6d65646961727900000000000000000000000000000000000000000000000000602082015250565b600061194360278361130f565b915061194e826118e7565b604082019050919050565b6000602082019050818103600083015261197281611936565b9050919050565b7f57696e6e657220686173206e6f7420617070726f7665642074686520696e746560008201527f726d656469617279000000000000000000000000000000000000000000000000602082015250565b60006119d560288361130f565b91506119e082611979565b604082019050919050565b60006020820190508181036000830152611a04816119c8565b9050919050565b7f5061796d656e7420616c726561647920617070726f7665640000000000000000600082015250565b6000611a4160188361130f565b9150611a4c82611a0b565b602082019050919050565b60006020820190508181036000830152611a7081611a34565b9050919050565b7f496e7465726d65646961727920616c7265616479207365740000000000000000600082015250565b6000611aad60188361130f565b9150611ab882611a77565b602082019050919050565b60006020820190508181036000830152611adc81611aa0565b9050919050565b7f4f776e657220616c726561647920766f74656400000000000000000000000000600082015250565b6000611b1960138361130f565b9150611b2482611ae3565b602082019050919050565b60006020820190508181036000830152611b4881611b0c565b9050919050565b7f596f75206d7573742070617920616e20616d6f756e7420657175616c20746f2060008201527f74686520616d6f756e7420626964646564000000000000000000000000000000602082015250565b6000611bab60318361130f565b9150611bb682611b4f565b604082019050919050565b60006020820190508181036000830152611bda81611b9e565b9050919050565b7f57696e6e657220616c7265616479207061696420746865206269640000000000600082015250565b6000611c17601b8361130f565b9150611c2282611be1565b602082019050919050565b60006020820190508181036000830152611c4681611c0a565b9050919050565b7f5468652061756374696f6e20686173206e6f7420636c6f736564207965740000600082015250565b6000611c83601e8361130f565b9150611c8e82611c4d565b602082019050919050565b60006020820190508181036000830152611cb281611c76565b905091905056fea2646970667358221220a9b9053ffa82b60f4eea50b8647cd0fbed5d636bfd5d6969c9d96cf20ca1bc4364736f6c63430008120033",
					"opcodes": "PUSH1 0x80 PUSH1 0x40 MSTORE CALLVALUE DUP1 ISZERO PUSH3 0x11 JUMPI PUSH1 0x0 DUP1 REVERT JUMPDEST POP PUSH1 0x40 MLOAD PUSH3 0x24A7 CODESIZE SUB DUP1 PUSH3 0x24A7 DUP4 CODECOPY DUP2 DUP2 ADD PUSH1 0x40 MSTORE DUP2 ADD SWAP1 PUSH3 0x37 SWAP2 SWAP1 PUSH3 0x39B JUMP JUMPDEST DUP3 PUSH1 0x3 SWAP1 DUP2 PUSH3 0x48 SWAP2 SWAP1 PUSH3 0x657 JUMP JUMPDEST POP DUP2 PUSH1 0x4 DUP2 SWAP1 SSTORE POP DUP1 TIMESTAMP PUSH3 0x5E SWAP2 SWAP1 PUSH3 0x76D JUMP JUMPDEST PUSH1 0x8 DUP2 SWAP1 SSTORE POP CALLER PUSH1 0x0 DUP1 PUSH2 0x100 EXP DUP2 SLOAD DUP2 PUSH20 0xFFFFFFFFFFFFFFFFFFFFFFFFFFFFFFFFFFFFFFFF MUL NOT AND SWAP1 DUP4 PUSH20 0xFFFFFFFFFFFFFFFFFFFFFFFFFFFFFFFFFFFFFFFF AND MUL OR SWAP1 SSTORE POP PUSH1 0x0 PUSH1 0x7 DUP2 SWAP1 SSTORE POP PUSH1 0x4 SLOAD PUSH1 0x5 DUP2 SWAP1 SSTORE POP PUSH1 0x0 PUSH1 0x9 DUP2 SWAP1 SSTORE POP PUSH1 0x0 PUSH1 0x6 DUP2 SWAP1 SSTORE POP PUSH1 0x0 PUSH1 0xB PUSH1 0x0 PUSH2 0x100 EXP DUP2 SLOAD DUP2 PUSH1 0xFF MUL NOT AND SWAP1 DUP4 ISZERO ISZERO MUL OR SWAP1 SSTORE POP PUSH1 0x0 PUSH1 0xB PUSH1 0x1 PUSH2 0x100 EXP DUP2 SLOAD DUP2 PUSH1 0xFF MUL NOT AND SWAP1 DUP4 ISZERO ISZERO MUL OR SWAP1 SSTORE POP PUSH1 0x0 PUSH1 0xB PUSH1 0x2 PUSH2 0x100 EXP DUP2 SLOAD DUP2 PUSH1 0xFF MUL NOT AND SWAP1 DUP4 ISZERO ISZERO MUL OR SWAP1 SSTORE POP PUSH1 0x0 PUSH1 0xB PUSH1 0x3 PUSH2 0x100 EXP DUP2 SLOAD DUP2 PUSH1 0xFF MUL NOT AND SWAP1 DUP4 ISZERO ISZERO MUL OR SWAP1 SSTORE POP PUSH1 0x0 PUSH1 0xB PUSH1 0x4 PUSH2 0x100 EXP DUP2 SLOAD DUP2 PUSH1 0xFF MUL NOT AND SWAP1 DUP4 ISZERO ISZERO MUL OR SWAP1 SSTORE POP PUSH1 0x0 PUSH1 0xB PUSH1 0x5 PUSH2 0x100 EXP DUP2 SLOAD DUP2 PUSH1 0xFF MUL NOT AND SWAP1 DUP4 ISZERO ISZERO MUL OR SWAP1 SSTORE POP PUSH1 0x0 PUSH1 0xB PUSH1 0x6 PUSH2 0x100 EXP DUP2 SLOAD DUP2 PUSH1 0xFF MUL NOT AND SWAP1 DUP4 ISZERO ISZERO MUL OR SWAP1 SSTORE POP PUSH1 0x0 PUSH1 0x2 PUSH1 0x0 PUSH2 0x100 EXP DUP2 SLOAD DUP2 PUSH20 0xFFFFFFFFFFFFFFFFFFFFFFFFFFFFFFFFFFFFFFFF MUL NOT AND SWAP1 DUP4 PUSH20 0xFFFFFFFFFFFFFFFFFFFFFFFFFFFFFFFFFFFFFFFF AND MUL OR SWAP1 SSTORE POP POP POP POP PUSH3 0x7A8 JUMP JUMPDEST PUSH1 0x0 PUSH1 0x40 MLOAD SWAP1 POP SWAP1 JUMP JUMPDEST PUSH1 0x0 DUP1 REVERT JUMPDEST PUSH1 0x0 DUP1 REVERT JUMPDEST PUSH1 0x0 DUP1 REVERT JUMPDEST PUSH1 0x0 DUP1 REVERT JUMPDEST PUSH1 0x0 PUSH1 0x1F NOT PUSH1 0x1F DUP4 ADD AND SWAP1 POP SWAP2 SWAP1 POP JUMP JUMPDEST PUSH32 0x4E487B7100000000000000000000000000000000000000000000000000000000 PUSH1 0x0 MSTORE PUSH1 0x41 PUSH1 0x4 MSTORE PUSH1 0x24 PUSH1 0x0 REVERT JUMPDEST PUSH3 0x236 DUP3 PUSH3 0x1EB JUMP JUMPDEST DUP2 ADD DUP2 DUP2 LT PUSH8 0xFFFFFFFFFFFFFFFF DUP3 GT OR ISZERO PUSH3 0x258 JUMPI PUSH3 0x257 PUSH3 0x1FC JUMP JUMPDEST JUMPDEST DUP1 PUSH1 0x40 MSTORE POP POP POP JUMP JUMPDEST PUSH1 0x0 PUSH3 0x26D PUSH3 0x1CD JUMP JUMPDEST SWAP1 POP PUSH3 0x27B DUP3 DUP3 PUSH3 0x22B JUMP JUMPDEST SWAP2 SWAP1 POP JUMP JUMPDEST PUSH1 0x0 PUSH8 0xFFFFFFFFFFFFFFFF DUP3 GT ISZERO PUSH3 0x29E JUMPI PUSH3 0x29D PUSH3 0x1FC JUMP JUMPDEST JUMPDEST PUSH3 0x2A9 DUP3 PUSH3 0x1EB JUMP JUMPDEST SWAP1 POP PUSH1 0x20 DUP2 ADD SWAP1 POP SWAP2 SWAP1 POP JUMP JUMPDEST PUSH1 0x0 JUMPDEST DUP4 DUP2 LT ISZERO PUSH3 0x2D6 JUMPI DUP1 DUP3 ADD MLOAD DUP2 DUP5 ADD MSTORE PUSH1 0x20 DUP2 ADD SWAP1 POP PUSH3 0x2B9 JUMP JUMPDEST PUSH1 0x0 DUP5 DUP5 ADD MSTORE POP POP POP POP JUMP JUMPDEST PUSH1 0x0 PUSH3 0x2F9 PUSH3 0x2F3 DUP5 PUSH3 0x280 JUMP JUMPDEST PUSH3 0x261 JUMP JUMPDEST SWAP1 POP DUP3 DUP2 MSTORE PUSH1 0x20 DUP2 ADD DUP5 DUP5 DUP5 ADD GT ISZERO PUSH3 0x318 JUMPI PUSH3 0x317 PUSH3 0x1E6 JUMP JUMPDEST JUMPDEST PUSH3 0x325 DUP5 DUP3 DUP6 PUSH3 0x2B6 JUMP JUMPDEST POP SWAP4 SWAP3 POP POP POP JUMP JUMPDEST PUSH1 0x0 DUP3 PUSH1 0x1F DUP4 ADD SLT PUSH3 0x345 JUMPI PUSH3 0x344 PUSH3 0x1E1 JUMP JUMPDEST JUMPDEST DUP2 MLOAD PUSH3 0x357 DUP5 DUP3 PUSH1 0x20 DUP7 ADD PUSH3 0x2E2 JUMP JUMPDEST SWAP2 POP POP SWAP3 SWAP2 POP POP JUMP JUMPDEST PUSH1 0x0 DUP2 SWAP1 POP SWAP2 SWAP1 POP JUMP JUMPDEST PUSH3 0x375 DUP2 PUSH3 0x360 JUMP JUMPDEST DUP2 EQ PUSH3 0x381 JUMPI PUSH1 0x0 DUP1 REVERT JUMPDEST POP JUMP JUMPDEST PUSH1 0x0 DUP2 MLOAD SWAP1 POP PUSH3 0x395 DUP2 PUSH3 0x36A JUMP JUMPDEST SWAP3 SWAP2 POP POP JUMP JUMPDEST PUSH1 0x0 DUP1 PUSH1 0x0 PUSH1 0x60 DUP5 DUP7 SUB SLT ISZERO PUSH3 0x3B7 JUMPI PUSH3 0x3B6 PUSH3 0x1D7 JUMP JUMPDEST JUMPDEST PUSH1 0x0 DUP5 ADD MLOAD PUSH8 0xFFFFFFFFFFFFFFFF DUP2 GT ISZERO PUSH3 0x3D8 JUMPI PUSH3 0x3D7 PUSH3 0x1DC JUMP JUMPDEST JUMPDEST PUSH3 0x3E6 DUP7 DUP3 DUP8 ADD PUSH3 0x32D JUMP JUMPDEST SWAP4 POP POP PUSH1 0x20 PUSH3 0x3F9 DUP7 DUP3 DUP8 ADD PUSH3 0x384 JUMP JUMPDEST SWAP3 POP POP PUSH1 0x40 PUSH3 0x40C DUP7 DUP3 DUP8 ADD PUSH3 0x384 JUMP JUMPDEST SWAP2 POP POP SWAP3 POP SWAP3 POP SWAP3 JUMP JUMPDEST PUSH1 0x0 DUP2 MLOAD SWAP1 POP SWAP2 SWAP1 POP JUMP JUMPDEST PUSH32 0x4E487B7100000000000000000000000000000000000000000000000000000000 PUSH1 0x0 MSTORE PUSH1 0x22 PUSH1 0x4 MSTORE PUSH1 0x24 PUSH1 0x0 REVERT JUMPDEST PUSH1 0x0 PUSH1 0x2 DUP3 DIV SWAP1 POP PUSH1 0x1 DUP3 AND DUP1 PUSH3 0x469 JUMPI PUSH1 0x7F DUP3 AND SWAP2 POP JUMPDEST PUSH1 0x20 DUP3 LT DUP2 SUB PUSH3 0x47F JUMPI PUSH3 0x47E PUSH3 0x421 JUMP JUMPDEST JUMPDEST POP SWAP2 SWAP1 POP JUMP JUMPDEST PUSH1 0x0 DUP2 SWAP1 POP DUP2 PUSH1 0x0 MSTORE PUSH1 0x20 PUSH1 0x0 KECCAK256 SWAP1 POP SWAP2 SWAP1 POP JUMP JUMPDEST PUSH1 0x0 PUSH1 0x20 PUSH1 0x1F DUP4 ADD DIV SWAP1 POP SWAP2 SWAP1 POP JUMP JUMPDEST PUSH1 0x0 DUP3 DUP3 SHL SWAP1 POP SWAP3 SWAP2 POP POP JUMP JUMPDEST PUSH1 0x0 PUSH1 0x8 DUP4 MUL PUSH3 0x4E9 PUSH32 0xFFFFFFFFFFFFFFFFFFFFFFFFFFFFFFFFFFFFFFFFFFFFFFFFFFFFFFFFFFFFFFFF DUP3 PUSH3 0x4AA JUMP JUMPDEST PUSH3 0x4F5 DUP7 DUP4 PUSH3 0x4AA JUMP JUMPDEST SWAP6 POP DUP1 NOT DUP5 AND SWAP4 POP DUP1 DUP7 AND DUP5 OR SWAP3 POP POP POP SWAP4 SWAP3 POP POP POP JUMP JUMPDEST PUSH1 0x0 DUP2 SWAP1 POP SWAP2 SWAP1 POP JUMP JUMPDEST PUSH1 0x0 PUSH3 0x538 PUSH3 0x532 PUSH3 0x52C DUP5 PUSH3 0x360 JUMP JUMPDEST PUSH3 0x50D JUMP JUMPDEST PUSH3 0x360 JUMP JUMPDEST SWAP1 POP SWAP2 SWAP1 POP JUMP JUMPDEST PUSH1 0x0 DUP2 SWAP1 POP SWAP2 SWAP1 POP JUMP JUMPDEST PUSH3 0x554 DUP4 PUSH3 0x517 JUMP JUMPDEST PUSH3 0x56C PUSH3 0x563 DUP3 PUSH3 0x53F JUMP JUMPDEST DUP5 DUP5 SLOAD PUSH3 0x4B7 JUMP JUMPDEST DUP3 SSTORE POP POP POP POP JUMP JUMPDEST PUSH1 0x0 SWAP1 JUMP JUMPDEST PUSH3 0x583 PUSH3 0x574 JUMP JUMPDEST PUSH3 0x590 DUP2 DUP5 DUP5 PUSH3 0x549 JUMP JUMPDEST POP POP POP JUMP JUMPDEST JUMPDEST DUP2 DUP2 LT ISZERO PUSH3 0x5B8 JUMPI PUSH3 0x5AC PUSH1 0x0 DUP3 PUSH3 0x579 JUMP JUMPDEST PUSH1 0x1 DUP2 ADD SWAP1 POP PUSH3 0x596 JUMP JUMPDEST POP POP JUMP JUMPDEST PUSH1 0x1F DUP3 GT ISZERO PUSH3 0x607 JUMPI PUSH3 0x5D1 DUP2 PUSH3 0x485 JUMP JUMPDEST PUSH3 0x5DC DUP5 PUSH3 0x49A JUMP JUMPDEST DUP2 ADD PUSH1 0x20 DUP6 LT ISZERO PUSH3 0x5EC JUMPI DUP2 SWAP1 POP JUMPDEST PUSH3 0x604 PUSH3 0x5FB DUP6 PUSH3 0x49A JUMP JUMPDEST DUP4 ADD DUP3 PUSH3 0x595 JUMP JUMPDEST POP POP JUMPDEST POP POP POP JUMP JUMPDEST PUSH1 0x0 DUP3 DUP3 SHR SWAP1 POP SWAP3 SWAP2 POP POP JUMP JUMPDEST PUSH1 0x0 PUSH3 0x62C PUSH1 0x0 NOT DUP5 PUSH1 0x8 MUL PUSH3 0x60C JUMP JUMPDEST NOT DUP1 DUP4 AND SWAP2 POP POP SWAP3 SWAP2 POP POP JUMP JUMPDEST PUSH1 0x0 PUSH3 0x647 DUP4 DUP4 PUSH3 0x619 JUMP JUMPDEST SWAP2 POP DUP3 PUSH1 0x2 MUL DUP3 OR SWAP1 POP SWAP3 SWAP2 POP POP JUMP JUMPDEST PUSH3 0x662 DUP3 PUSH3 0x416 JUMP JUMPDEST PUSH8 0xFFFFFFFFFFFFFFFF DUP2 GT ISZERO PUSH3 0x67E JUMPI PUSH3 0x67D PUSH3 0x1FC JUMP JUMPDEST JUMPDEST PUSH3 0x68A DUP3 SLOAD PUSH3 0x450 JUMP JUMPDEST PUSH3 0x697 DUP3 DUP3 DUP6 PUSH3 0x5BC JUMP JUMPDEST PUSH1 0x0 PUSH1 0x20 SWAP1 POP PUSH1 0x1F DUP4 GT PUSH1 0x1 DUP2 EQ PUSH3 0x6CF JUMPI PUSH1 0x0 DUP5 ISZERO PUSH3 0x6BA JUMPI DUP3 DUP8 ADD MLOAD SWAP1 POP JUMPDEST PUSH3 0x6C6 DUP6 DUP3 PUSH3 0x639 JUMP JUMPDEST DUP7 SSTORE POP PUSH3 0x736 JUMP JUMPDEST PUSH1 0x1F NOT DUP5 AND PUSH3 0x6DF DUP7 PUSH3 0x485 JUMP JUMPDEST PUSH1 0x0 JUMPDEST DUP3 DUP2 LT ISZERO PUSH3 0x709 JUMPI DUP5 DUP10 ADD MLOAD DUP3 SSTORE PUSH1 0x1 DUP3 ADD SWAP2 POP PUSH1 0x20 DUP6 ADD SWAP5 POP PUSH1 0x20 DUP2 ADD SWAP1 POP PUSH3 0x6E2 JUMP JUMPDEST DUP7 DUP4 LT ISZERO PUSH3 0x729 JUMPI DUP5 DUP10 ADD MLOAD PUSH3 0x725 PUSH1 0x1F DUP10 AND DUP3 PUSH3 0x619 JUMP JUMPDEST DUP4 SSTORE POP JUMPDEST PUSH1 0x1 PUSH1 0x2 DUP9 MUL ADD DUP9 SSTORE POP POP POP JUMPDEST POP POP POP POP POP POP JUMP JUMPDEST PUSH32 0x4E487B7100000000000000000000000000000000000000000000000000000000 PUSH1 0x0 MSTORE PUSH1 0x11 PUSH1 0x4 MSTORE PUSH1 0x24 PUSH1 0x0 REVERT JUMPDEST PUSH1 0x0 PUSH3 0x77A DUP3 PUSH3 0x360 JUMP JUMPDEST SWAP2 POP PUSH3 0x787 DUP4 PUSH3 0x360 JUMP JUMPDEST SWAP3 POP DUP3 DUP3 ADD SWAP1 POP DUP1 DUP3 GT ISZERO PUSH3 0x7A2 JUMPI PUSH3 0x7A1 PUSH3 0x73E JUMP JUMPDEST JUMPDEST SWAP3 SWAP2 POP POP JUMP JUMPDEST PUSH2 0x1CEF DUP1 PUSH3 0x7B8 PUSH1 0x0 CODECOPY PUSH1 0x0 RETURN INVALID PUSH1 0x80 PUSH1 0x40 MSTORE PUSH1 0x4 CALLDATASIZE LT PUSH2 0x140 JUMPI PUSH1 0x0 CALLDATALOAD PUSH1 0xE0 SHR DUP1 PUSH4 0x9C1BFB6A GT PUSH2 0xB6 JUMPI DUP1 PUSH4 0xD20A6F1F GT PUSH2 0x6F JUMPI DUP1 PUSH4 0xD20A6F1F EQ PUSH2 0x3CF JUMPI DUP1 PUSH4 0xD3A86386 EQ PUSH2 0x3FA JUMPI DUP1 PUSH4 0xD3FE57C9 EQ PUSH2 0x425 JUMPI DUP1 PUSH4 0xDFBF53AE EQ PUSH2 0x450 JUMPI DUP1 PUSH4 0xE3540196 EQ PUSH2 0x47B JUMPI DUP1 PUSH4 0xF7FBAE45 EQ PUSH2 0x4A6 JUMPI PUSH2 0x140 JUMP JUMPDEST DUP1 PUSH4 0x9C1BFB6A EQ PUSH2 0x2F2 JUMPI DUP1 PUSH4 0xA44DAD5D EQ PUSH2 0x31B JUMPI DUP1 PUSH4 0xA483708F EQ PUSH2 0x346 JUMPI DUP1 PUSH4 0xAB589529 EQ PUSH2 0x36F JUMPI DUP1 PUSH4 0xAE91CD23 EQ PUSH2 0x379 JUMPI DUP1 PUSH4 0xC1EDB4F1 EQ PUSH2 0x3A4 JUMPI PUSH2 0x140 JUMP JUMPDEST DUP1 PUSH4 0x3CCFD60B GT PUSH2 0x108 JUMPI DUP1 PUSH4 0x3CCFD60B EQ PUSH2 0x21A JUMPI DUP1 PUSH4 0x454A2AB3 EQ PUSH2 0x231 JUMPI DUP1 PUSH4 0x79FD022E EQ PUSH2 0x25A JUMPI DUP1 PUSH4 0x8CF80438 EQ PUSH2 0x285 JUMPI DUP1 PUSH4 0x8DA5CB5B EQ PUSH2 0x2B0 JUMPI DUP1 PUSH4 0x96FD3409 EQ PUSH2 0x2DB JUMPI PUSH2 0x140 JUMP JUMPDEST DUP1 PUSH4 0x331DE58 EQ PUSH2 0x145 JUMPI DUP1 PUSH4 0x8726296 EQ PUSH2 0x170 JUMPI DUP1 PUSH4 0x12065FE0 EQ PUSH2 0x19B JUMPI DUP1 PUSH4 0x13B0F944 EQ PUSH2 0x1C6 JUMPI DUP1 PUSH4 0x333F6482 EQ PUSH2 0x1F1 JUMPI JUMPDEST PUSH1 0x0 DUP1 REVERT JUMPDEST CALLVALUE DUP1 ISZERO PUSH2 0x151 JUMPI PUSH1 0x0 DUP1 REVERT JUMPDEST POP PUSH2 0x15A PUSH2 0x4D1 JUMP JUMPDEST PUSH1 0x40 MLOAD PUSH2 0x167 SWAP2 SWAP1 PUSH2 0x1141 JUMP JUMPDEST PUSH1 0x40 MLOAD DUP1 SWAP2 SUB SWAP1 RETURN JUMPDEST CALLVALUE DUP1 ISZERO PUSH2 0x17C JUMPI PUSH1 0x0 DUP1 REVERT JUMPDEST POP PUSH2 0x185 PUSH2 0x4E4 JUMP JUMPDEST PUSH1 0x40 MLOAD PUSH2 0x192 SWAP2 SWAP1 PUSH2 0x1175 JUMP JUMPDEST PUSH1 0x40 MLOAD DUP1 SWAP2 SUB SWAP1 RETURN JUMPDEST CALLVALUE DUP1 ISZERO PUSH2 0x1A7 JUMPI PUSH1 0x0 DUP1 REVERT JUMPDEST POP PUSH2 0x1B0 PUSH2 0x4EA JUMP JUMPDEST PUSH1 0x40 MLOAD PUSH2 0x1BD SWAP2 SWAP1 PUSH2 0x1175 JUMP JUMPDEST PUSH1 0x40 MLOAD DUP1 SWAP2 SUB SWAP1 RETURN JUMPDEST CALLVALUE DUP1 ISZERO PUSH2 0x1D2 JUMPI PUSH1 0x0 DUP1 REVERT JUMPDEST POP PUSH2 0x1DB PUSH2 0x4F2 JUMP JUMPDEST PUSH1 0x40 MLOAD PUSH2 0x1E8 SWAP2 SWAP1 PUSH2 0x1175 JUMP JUMPDEST PUSH1 0x40 MLOAD DUP1 SWAP2 SUB SWAP1 RETURN JUMPDEST CALLVALUE DUP1 ISZERO PUSH2 0x1FD JUMPI PUSH1 0x0 DUP1 REVERT JUMPDEST POP PUSH2 0x218 PUSH1 0x4 DUP1 CALLDATASIZE SUB DUP2 ADD SWAP1 PUSH2 0x213 SWAP2 SWAP1 PUSH2 0x11C1 JUMP JUMPDEST PUSH2 0x4F8 JUMP JUMPDEST STOP JUMPDEST CALLVALUE DUP1 ISZERO PUSH2 0x226 JUMPI PUSH1 0x0 DUP1 REVERT JUMPDEST POP PUSH2 0x22F PUSH2 0x610 JUMP JUMPDEST STOP JUMPDEST CALLVALUE DUP1 ISZERO PUSH2 0x23D JUMPI PUSH1 0x0 DUP1 REVERT JUMPDEST POP PUSH2 0x258 PUSH1 0x4 DUP1 CALLDATASIZE SUB DUP2 ADD SWAP1 PUSH2 0x253 SWAP2 SWAP1 PUSH2 0x121A JUMP JUMPDEST PUSH2 0x83B JUMP JUMPDEST STOP JUMPDEST CALLVALUE DUP1 ISZERO PUSH2 0x266 JUMPI PUSH1 0x0 DUP1 REVERT JUMPDEST POP PUSH2 0x26F PUSH2 0xA42 JUMP JUMPDEST PUSH1 0x40 MLOAD PUSH2 0x27C SWAP2 SWAP1 PUSH2 0x1288 JUMP JUMPDEST PUSH1 0x40 MLOAD DUP1 SWAP2 SUB SWAP1 RETURN JUMPDEST CALLVALUE DUP1 ISZERO PUSH2 0x291 JUMPI PUSH1 0x0 DUP1 REVERT JUMPDEST POP PUSH2 0x29A PUSH2 0xA68 JUMP JUMPDEST PUSH1 0x40 MLOAD PUSH2 0x2A7 SWAP2 SWAP1 PUSH2 0x1175 JUMP JUMPDEST PUSH1 0x40 MLOAD DUP1 SWAP2 SUB SWAP1 RETURN JUMPDEST CALLVALUE DUP1 ISZERO PUSH2 0x2BC JUMPI PUSH1 0x0 DUP1 REVERT JUMPDEST POP PUSH2 0x2C5 PUSH2 0xA6E JUMP JUMPDEST PUSH1 0x40 MLOAD PUSH2 0x2D2 SWAP2 SWAP1 PUSH2 0x1288 JUMP JUMPDEST PUSH1 0x40 MLOAD DUP1 SWAP2 SUB SWAP1 RETURN JUMPDEST CALLVALUE DUP1 ISZERO PUSH2 0x2E7 JUMPI PUSH1 0x0 DUP1 REVERT JUMPDEST POP PUSH2 0x2F0 PUSH2 0xA92 JUMP JUMPDEST STOP JUMPDEST CALLVALUE DUP1 ISZERO PUSH2 0x2FE JUMPI PUSH1 0x0 DUP1 REVERT JUMPDEST POP PUSH2 0x319 PUSH1 0x4 DUP1 CALLDATASIZE SUB DUP2 ADD SWAP1 PUSH2 0x314 SWAP2 SWAP1 PUSH2 0x12CF JUMP JUMPDEST PUSH2 0xC7C JUMP JUMPDEST STOP JUMPDEST CALLVALUE DUP1 ISZERO PUSH2 0x327 JUMPI PUSH1 0x0 DUP1 REVERT JUMPDEST POP PUSH2 0x330 PUSH2 0xDE7 JUMP JUMPDEST PUSH1 0x40 MLOAD PUSH2 0x33D SWAP2 SWAP1 PUSH2 0x1141 JUMP JUMPDEST PUSH1 0x40 MLOAD DUP1 SWAP2 SUB SWAP1 RETURN JUMPDEST CALLVALUE DUP1 ISZERO PUSH2 0x352 JUMPI PUSH1 0x0 DUP1 REVERT JUMPDEST POP PUSH2 0x36D PUSH1 0x4 DUP1 CALLDATASIZE SUB DUP2 ADD SWAP1 PUSH2 0x368 SWAP2 SWAP1 PUSH2 0x11C1 JUMP JUMPDEST PUSH2 0xDFA JUMP JUMPDEST STOP JUMPDEST PUSH2 0x377 PUSH2 0xF10 JUMP JUMPDEST STOP JUMPDEST CALLVALUE DUP1 ISZERO PUSH2 0x385 JUMPI PUSH1 0x0 DUP1 REVERT JUMPDEST POP PUSH2 0x38E PUSH2 0x1095 JUMP JUMPDEST PUSH1 0x40 MLOAD PUSH2 0x39B SWAP2 SWAP1 PUSH2 0x1175 JUMP JUMPDEST PUSH1 0x40 MLOAD DUP1 SWAP2 SUB SWAP1 RETURN JUMPDEST CALLVALUE DUP1 ISZERO PUSH2 0x3B0 JUMPI PUSH1 0x0 DUP1 REVERT JUMPDEST POP PUSH2 0x3B9 PUSH2 0x109B JUMP JUMPDEST PUSH1 0x40 MLOAD PUSH2 0x3C6 SWAP2 SWAP1 PUSH2 0x1141 JUMP JUMPDEST PUSH1 0x40 MLOAD DUP1 SWAP2 SUB SWAP1 RETURN JUMPDEST CALLVALUE DUP1 ISZERO PUSH2 0x3DB JUMPI PUSH1 0x0 DUP1 REVERT JUMPDEST POP PUSH2 0x3E4 PUSH2 0x10AE JUMP JUMPDEST PUSH1 0x40 MLOAD PUSH2 0x3F1 SWAP2 SWAP1 PUSH2 0x1141 JUMP JUMPDEST PUSH1 0x40 MLOAD DUP1 SWAP2 SUB SWAP1 RETURN JUMPDEST CALLVALUE DUP1 ISZERO PUSH2 0x406 JUMPI PUSH1 0x0 DUP1 REVERT JUMPDEST POP PUSH2 0x40F PUSH2 0x10C1 JUMP JUMPDEST PUSH1 0x40 MLOAD PUSH2 0x41C SWAP2 SWAP1 PUSH2 0x1175 JUMP JUMPDEST PUSH1 0x40 MLOAD DUP1 SWAP2 SUB SWAP1 RETURN JUMPDEST CALLVALUE DUP1 ISZERO PUSH2 0x431 JUMPI PUSH1 0x0 DUP1 REVERT JUMPDEST POP PUSH2 0x43A PUSH2 0x10C7 JUMP JUMPDEST PUSH1 0x40 MLOAD PUSH2 0x447 SWAP2 SWAP1 PUSH2 0x1141 JUMP JUMPDEST PUSH1 0x40 MLOAD DUP1 SWAP2 SUB SWAP1 RETURN JUMPDEST CALLVALUE DUP1 ISZERO PUSH2 0x45C JUMPI PUSH1 0x0 DUP1 REVERT JUMPDEST POP PUSH2 0x465 PUSH2 0x10DA JUMP JUMPDEST PUSH1 0x40 MLOAD PUSH2 0x472 SWAP2 SWAP1 PUSH2 0x1288 JUMP JUMPDEST PUSH1 0x40 MLOAD DUP1 SWAP2 SUB SWAP1 RETURN JUMPDEST CALLVALUE DUP1 ISZERO PUSH2 0x487 JUMPI PUSH1 0x0 DUP1 REVERT JUMPDEST POP PUSH2 0x490 PUSH2 0x1100 JUMP JUMPDEST PUSH1 0x40 MLOAD PUSH2 0x49D SWAP2 SWAP1 PUSH2 0x1141 JUMP JUMPDEST PUSH1 0x40 MLOAD DUP1 SWAP2 SUB SWAP1 RETURN JUMPDEST CALLVALUE DUP1 ISZERO PUSH2 0x4B2 JUMPI PUSH1 0x0 DUP1 REVERT JUMPDEST POP PUSH2 0x4BB PUSH2 0x1113 JUMP JUMPDEST PUSH1 0x40 MLOAD PUSH2 0x4C8 SWAP2 SWAP1 PUSH2 0x1141 JUMP JUMPDEST PUSH1 0x40 MLOAD DUP1 SWAP2 SUB SWAP1 RETURN JUMPDEST PUSH1 0xB PUSH1 0x0 SWAP1 SLOAD SWAP1 PUSH2 0x100 EXP SWAP1 DIV PUSH1 0xFF AND DUP2 JUMP JUMPDEST PUSH1 0x9 SLOAD DUP2 JUMP JUMPDEST PUSH1 0x0 SELFBALANCE SWAP1 POP SWAP1 JUMP JUMPDEST PUSH1 0x6 SLOAD DUP2 JUMP JUMPDEST CALLER PUSH20 0xFFFFFFFFFFFFFFFFFFFFFFFFFFFFFFFFFFFFFFFF AND PUSH1 0x1 PUSH1 0x0 SWAP1 SLOAD SWAP1 PUSH2 0x100 EXP SWAP1 DIV PUSH20 0xFFFFFFFFFFFFFFFFFFFFFFFFFFFFFFFFFFFFFFFF AND PUSH20 0xFFFFFFFFFFFFFFFFFFFFFFFFFFFFFFFFFFFFFFFF AND EQ PUSH2 0x588 JUMPI PUSH1 0x40 MLOAD PUSH32 0x8C379A000000000000000000000000000000000000000000000000000000000 DUP2 MSTORE PUSH1 0x4 ADD PUSH2 0x57F SWAP1 PUSH2 0x1392 JUMP JUMPDEST PUSH1 0x40 MLOAD DUP1 SWAP2 SUB SWAP1 REVERT JUMPDEST PUSH1 0xB PUSH1 0x3 SWAP1 SLOAD SWAP1 PUSH2 0x100 EXP SWAP1 DIV PUSH1 0xFF AND ISZERO PUSH2 0x5D8 JUMPI PUSH1 0x40 MLOAD PUSH32 0x8C379A000000000000000000000000000000000000000000000000000000000 DUP2 MSTORE PUSH1 0x4 ADD PUSH2 0x5CF SWAP1 PUSH2 0x13FE JUMP JUMPDEST PUSH1 0x40 MLOAD DUP1 SWAP2 SUB SWAP1 REVERT JUMPDEST PUSH1 0x1 PUSH1 0xB PUSH1 0x3 PUSH2 0x100 EXP DUP2 SLOAD DUP2 PUSH1 0xFF MUL NOT AND SWAP1 DUP4 ISZERO ISZERO MUL OR SWAP1 SSTORE POP DUP1 PUSH1 0xB PUSH1 0x1 PUSH2 0x100 EXP DUP2 SLOAD DUP2 PUSH1 0xFF MUL NOT AND SWAP1 DUP4 ISZERO ISZERO MUL OR SWAP1 SSTORE POP POP JUMP JUMPDEST CALLER PUSH20 0xFFFFFFFFFFFFFFFFFFFFFFFFFFFFFFFFFFFFFFFF AND PUSH1 0x0 DUP1 SLOAD SWAP1 PUSH2 0x100 EXP SWAP1 DIV PUSH20 0xFFFFFFFFFFFFFFFFFFFFFFFFFFFFFFFFFFFFFFFF AND PUSH20 0xFFFFFFFFFFFFFFFFFFFFFFFFFFFFFFFFFFFFFFFF AND EQ PUSH2 0x69E JUMPI PUSH1 0x40 MLOAD PUSH32 0x8C379A000000000000000000000000000000000000000000000000000000000 DUP2 MSTORE PUSH1 0x4 ADD PUSH2 0x695 SWAP1 PUSH2 0x1490 JUMP JUMPDEST PUSH1 0x40 MLOAD DUP1 SWAP2 SUB SWAP1 REVERT JUMPDEST PUSH1 0xB PUSH1 0x5 SWAP1 SLOAD SWAP1 PUSH2 0x100 EXP SWAP1 DIV PUSH1 0xFF AND PUSH2 0x6ED JUMPI PUSH1 0x40 MLOAD PUSH32 0x8C379A000000000000000000000000000000000000000000000000000000000 DUP2 MSTORE PUSH1 0x4 ADD PUSH2 0x6E4 SWAP1 PUSH2 0x1522 JUMP JUMPDEST PUSH1 0x40 MLOAD DUP1 SWAP2 SUB SWAP1 REVERT JUMPDEST PUSH1 0xB PUSH1 0x6 SWAP1 SLOAD SWAP1 PUSH2 0x100 EXP SWAP1 DIV PUSH1 0xFF AND ISZERO PUSH2 0x73D JUMPI PUSH1 0x40 MLOAD PUSH32 0x8C379A000000000000000000000000000000000000000000000000000000000 DUP2 MSTORE PUSH1 0x4 ADD PUSH2 0x734 SWAP1 PUSH2 0x15B4 JUMP JUMPDEST PUSH1 0x40 MLOAD DUP1 SWAP2 SUB SWAP1 REVERT JUMPDEST PUSH1 0x0 DUP1 SLOAD SWAP1 PUSH2 0x100 EXP SWAP1 DIV PUSH20 0xFFFFFFFFFFFFFFFFFFFFFFFFFFFFFFFFFFFFFFFF AND PUSH20 0xFFFFFFFFFFFFFFFFFFFFFFFFFFFFFFFFFFFFFFFF AND PUSH2 0x8FC PUSH1 0x7 SLOAD PUSH1 0x5 SLOAD PUSH2 0x787 SWAP2 SWAP1 PUSH2 0x1603 JUMP JUMPDEST SWAP1 DUP2 ISZERO MUL SWAP1 PUSH1 0x40 MLOAD PUSH1 0x0 PUSH1 0x40 MLOAD DUP1 DUP4 SUB DUP2 DUP6 DUP9 DUP9 CALL SWAP4 POP POP POP POP ISZERO DUP1 ISZERO PUSH2 0x7B2 JUMPI RETURNDATASIZE PUSH1 0x0 DUP1 RETURNDATACOPY RETURNDATASIZE PUSH1 0x0 REVERT JUMPDEST POP PUSH1 0x2 PUSH1 0x0 SWAP1 SLOAD SWAP1 PUSH2 0x100 EXP SWAP1 DIV PUSH20 0xFFFFFFFFFFFFFFFFFFFFFFFFFFFFFFFFFFFFFFFF AND PUSH20 0xFFFFFFFFFFFFFFFFFFFFFFFFFFFFFFFFFFFFFFFF AND PUSH2 0x8FC PUSH1 0x7 SLOAD SWAP1 DUP2 ISZERO MUL SWAP1 PUSH1 0x40 MLOAD PUSH1 0x0 PUSH1 0x40 MLOAD DUP1 DUP4 SUB DUP2 DUP6 DUP9 DUP9 CALL SWAP4 POP POP POP POP ISZERO DUP1 ISZERO PUSH2 0x81D JUMPI RETURNDATASIZE PUSH1 0x0 DUP1 RETURNDATACOPY RETURNDATASIZE PUSH1 0x0 REVERT JUMPDEST POP PUSH1 0x1 PUSH1 0xB PUSH1 0x6 PUSH2 0x100 EXP DUP2 SLOAD DUP2 PUSH1 0xFF MUL NOT AND SWAP1 DUP4 ISZERO ISZERO MUL OR SWAP1 SSTORE POP JUMP JUMPDEST CALLER PUSH20 0xFFFFFFFFFFFFFFFFFFFFFFFFFFFFFFFFFFFFFFFF AND PUSH1 0x0 DUP1 SLOAD SWAP1 PUSH2 0x100 EXP SWAP1 DIV PUSH20 0xFFFFFFFFFFFFFFFFFFFFFFFFFFFFFFFFFFFFFFFF AND PUSH20 0xFFFFFFFFFFFFFFFFFFFFFFFFFFFFFFFFFFFFFFFF AND SUB PUSH2 0x8C9 JUMPI PUSH1 0x40 MLOAD PUSH32 0x8C379A000000000000000000000000000000000000000000000000000000000 DUP2 MSTORE PUSH1 0x4 ADD PUSH2 0x8C0 SWAP1 PUSH2 0x1683 JUMP JUMPDEST PUSH1 0x40 MLOAD DUP1 SWAP2 SUB SWAP1 REVERT JUMPDEST PUSH1 0x8 SLOAD TIMESTAMP LT PUSH2 0x90D JUMPI PUSH1 0x40 MLOAD PUSH32 0x8C379A000000000000000000000000000000000000000000000000000000000 DUP2 MSTORE PUSH1 0x4 ADD PUSH2 0x904 SWAP1 PUSH2 0x16EF JUMP JUMPDEST PUSH1 0x40 MLOAD DUP1 SWAP2 SUB SWAP1 REVERT JUMPDEST PUSH1 0x4 SLOAD DUP2 LT ISZERO PUSH2 0x952 JUMPI PUSH1 0x40 MLOAD PUSH32 0x8C379A000000000000000000000000000000000000000000000000000000000 DUP2 MSTORE PUSH1 0x4 ADD PUSH2 0x949 SWAP1 PUSH2 0x175B JUMP JUMPDEST PUSH1 0x40 MLOAD DUP1 SWAP2 SUB SWAP1 REVERT JUMPDEST PUSH1 0x0 PUSH1 0xA PUSH1 0x0 CALLER PUSH20 0xFFFFFFFFFFFFFFFFFFFFFFFFFFFFFFFFFFFFFFFF AND PUSH20 0xFFFFFFFFFFFFFFFFFFFFFFFFFFFFFFFFFFFFFFFF AND DUP2 MSTORE PUSH1 0x20 ADD SWAP1 DUP2 MSTORE PUSH1 0x20 ADD PUSH1 0x0 KECCAK256 SWAP1 POP PUSH1 0x0 DUP2 PUSH1 0x0 ADD SLOAD SUB PUSH2 0x9BA JUMPI PUSH1 0x9 PUSH1 0x0 DUP2 SLOAD DUP1 SWAP3 SWAP2 SWAP1 PUSH2 0x9B4 SWAP1 PUSH2 0x177B JUMP JUMPDEST SWAP2 SWAP1 POP SSTORE POP JUMPDEST DUP2 DUP2 PUSH1 0x0 ADD DUP2 SWAP1 SSTORE POP TIMESTAMP DUP2 PUSH1 0x1 ADD DUP2 SWAP1 SSTORE POP PUSH1 0x5 SLOAD DUP2 PUSH1 0x0 ADD SLOAD LT PUSH2 0xA26 JUMPI DUP1 PUSH1 0x0 ADD SLOAD PUSH1 0x5 DUP2 SWAP1 SSTORE POP CALLER PUSH1 0x1 PUSH1 0x0 PUSH2 0x100 EXP DUP2 SLOAD DUP2 PUSH20 0xFFFFFFFFFFFFFFFFFFFFFFFFFFFFFFFFFFFFFFFF MUL NOT AND SWAP1 DUP4 PUSH20 0xFFFFFFFFFFFFFFFFFFFFFFFFFFFFFFFFFFFFFFFF AND MUL OR SWAP1 SSTORE POP JUMPDEST PUSH1 0x6 PUSH1 0x0 DUP2 SLOAD DUP1 SWAP3 SWAP2 SWAP1 PUSH2 0xA39 SWAP1 PUSH2 0x177B JUMP JUMPDEST SWAP2 SWAP1 POP SSTORE POP POP POP JUMP JUMPDEST PUSH1 0x2 PUSH1 0x0 SWAP1 SLOAD SWAP1 PUSH2 0x100 EXP SWAP1 DIV PUSH20 0xFFFFFFFFFFFFFFFFFFFFFFFFFFFFFFFFFFFFFFFF AND DUP2 JUMP JUMPDEST PUSH1 0x5 SLOAD DUP2 JUMP JUMPDEST PUSH1 0x0 DUP1 SLOAD SWAP1 PUSH2 0x100 EXP SWAP1 DIV PUSH20 0xFFFFFFFFFFFFFFFFFFFFFFFFFFFFFFFFFFFFFFFF AND DUP2 JUMP JUMPDEST CALLER PUSH20 0xFFFFFFFFFFFFFFFFFFFFFFFFFFFFFFFFFFFFFFFF AND PUSH1 0x2 PUSH1 0x0 SWAP1 SLOAD SWAP1 PUSH2 0x100 EXP SWAP1 DIV PUSH20 0xFFFFFFFFFFFFFFFFFFFFFFFFFFFFFFFFFFFFFFFF AND PUSH20 0xFFFFFFFFFFFFFFFFFFFFFFFFFFFFFFFFFFFFFFFF AND EQ PUSH2 0xB22 JUMPI PUSH1 0x40 MLOAD PUSH32 0x8C379A000000000000000000000000000000000000000000000000000000000 DUP2 MSTORE PUSH1 0x4 ADD PUSH2 0xB19 SWAP1 PUSH2 0x1835 JUMP JUMPDEST PUSH1 0x40 MLOAD DUP1 SWAP2 SUB SWAP1 REVERT JUMPDEST PUSH1 0xB PUSH1 0x4 SWAP1 SLOAD SWAP1 PUSH2 0x100 EXP SWAP1 DIV PUSH1 0xFF AND PUSH2 0xB71 JUMPI PUSH1 0x40 MLOAD PUSH32 0x8C379A000000000000000000000000000000000000000000000000000000000 DUP2 MSTORE PUSH1 0x4 ADD PUSH2 0xB68 SWAP1 PUSH2 0x18C7 JUMP JUMPDEST PUSH1 0x40 MLOAD DUP1 SWAP2 SUB SWAP1 REVERT JUMPDEST PUSH1 0xB PUSH1 0x0 SWAP1 SLOAD SWAP1 PUSH2 0x100 EXP SWAP1 DIV PUSH1 0xFF AND PUSH2 0xBC0 JUMPI PUSH1 0x40 MLOAD PUSH32 0x8C379A000000000000000000000000000000000000000000000000000000000 DUP2 MSTORE PUSH1 0x4 ADD PUSH2 0xBB7 SWAP1 PUSH2 0x1959 JUMP JUMPDEST PUSH1 0x40 MLOAD DUP1 SWAP2 SUB SWAP1 REVERT JUMPDEST PUSH1 0xB PUSH1 0x1 SWAP1 SLOAD SWAP1 PUSH2 0x100 EXP SWAP1 DIV PUSH1 0xFF AND PUSH2 0xC0F JUMPI PUSH1 0x40 MLOAD PUSH32 0x8C379A000000000000000000000000000000000000000000000000000000000 DUP2 MSTORE PUSH1 0x4 ADD PUSH2 0xC06 SWAP1 PUSH2 0x19EB JUMP JUMPDEST PUSH1 0x40 MLOAD DUP1 SWAP2 SUB SWAP1 REVERT JUMPDEST PUSH1 0xB PUSH1 0x5 SWAP1 SLOAD SWAP1 PUSH2 0x100 EXP SWAP1 DIV PUSH1 0xFF AND ISZERO PUSH2 0xC5F JUMPI PUSH1 0x40 MLOAD PUSH32 0x8C379A000000000000000000000000000000000000000000000000000000000 DUP2 MSTORE PUSH1 0x4 ADD PUSH2 0xC56 SWAP1 PUSH2 0x1A57 JUMP JUMPDEST PUSH1 0x40 MLOAD DUP1 SWAP2 SUB SWAP1 REVERT JUMPDEST PUSH1 0x1 PUSH1 0xB PUSH1 0x5 PUSH2 0x100 EXP DUP2 SLOAD DUP2 PUSH1 0xFF MUL NOT AND SWAP1 DUP4 ISZERO ISZERO MUL OR SWAP1 SSTORE POP JUMP JUMPDEST CALLER PUSH20 0xFFFFFFFFFFFFFFFFFFFFFFFFFFFFFFFFFFFFFFFF AND PUSH1 0x0 DUP1 SLOAD SWAP1 PUSH2 0x100 EXP SWAP1 DIV PUSH20 0xFFFFFFFFFFFFFFFFFFFFFFFFFFFFFFFFFFFFFFFF AND PUSH20 0xFFFFFFFFFFFFFFFFFFFFFFFFFFFFFFFFFFFFFFFF AND EQ PUSH2 0xD0A JUMPI PUSH1 0x40 MLOAD PUSH32 0x8C379A000000000000000000000000000000000000000000000000000000000 DUP2 MSTORE PUSH1 0x4 ADD PUSH2 0xD01 SWAP1 PUSH2 0x1490 JUMP JUMPDEST PUSH1 0x40 MLOAD DUP1 SWAP2 SUB SWAP1 REVERT JUMPDEST PUSH1 0x0 PUSH20 0xFFFFFFFFFFFFFFFFFFFFFFFFFFFFFFFFFFFFFFFF AND PUSH1 0x2 PUSH1 0x0 SWAP1 SLOAD SWAP1 PUSH2 0x100 EXP SWAP1 DIV PUSH20 0xFFFFFFFFFFFFFFFFFFFFFFFFFFFFFFFFFFFFFFFF AND PUSH20 0xFFFFFFFFFFFFFFFFFFFFFFFFFFFFFFFFFFFFFFFF AND EQ PUSH2 0xD9B JUMPI PUSH1 0x40 MLOAD PUSH32 0x8C379A000000000000000000000000000000000000000000000000000000000 DUP2 MSTORE PUSH1 0x4 ADD PUSH2 0xD92 SWAP1 PUSH2 0x1AC3 JUMP JUMPDEST PUSH1 0x40 MLOAD DUP1 SWAP2 SUB SWAP1 REVERT JUMPDEST DUP2 PUSH1 0x2 PUSH1 0x0 PUSH2 0x100 EXP DUP2 SLOAD DUP2 PUSH20 0xFFFFFFFFFFFFFFFFFFFFFFFFFFFFFFFFFFFFFFFF MUL NOT AND SWAP1 DUP4 PUSH20 0xFFFFFFFFFFFFFFFFFFFFFFFFFFFFFFFFFFFFFFFF AND MUL OR SWAP1 SSTORE POP DUP1 PUSH1 0x7 DUP2 SWAP1 SSTORE POP POP POP JUMP JUMPDEST PUSH1 0xB PUSH1 0x1 SWAP1 SLOAD SWAP1 PUSH2 0x100 EXP SWAP1 DIV PUSH1 0xFF AND DUP2 JUMP JUMPDEST CALLER PUSH20 0xFFFFFFFFFFFFFFFFFFFFFFFFFFFFFFFFFFFFFFFF AND PUSH1 0x0 DUP1 SLOAD SWAP1 PUSH2 0x100 EXP SWAP1 DIV PUSH20 0xFFFFFFFFFFFFFFFFFFFFFFFFFFFFFFFFFFFFFFFF AND PUSH20 0xFFFFFFFFFFFFFFFFFFFFFFFFFFFFFFFFFFFFFFFF AND EQ PUSH2 0xE88 JUMPI PUSH1 0x40 MLOAD PUSH32 0x8C379A000000000000000000000000000000000000000000000000000000000 DUP2 MSTORE PUSH1 0x4 ADD PUSH2 0xE7F SWAP1 PUSH2 0x1490 JUMP JUMPDEST PUSH1 0x40 MLOAD DUP1 SWAP2 SUB SWAP1 REVERT JUMPDEST PUSH1 0xB PUSH1 0x2 SWAP1 SLOAD SWAP1 PUSH2 0x100 EXP SWAP1 DIV PUSH1 0xFF AND ISZERO PUSH2 0xED8 JUMPI PUSH1 0x40 MLOAD PUSH32 0x8C379A000000000000000000000000000000000000000000000000000000000 DUP2 MSTORE PUSH1 0x4 ADD PUSH2 0xECF SWAP1 PUSH2 0x1B2F JUMP JUMPDEST PUSH1 0x40 MLOAD DUP1 SWAP2 SUB SWAP1 REVERT JUMPDEST PUSH1 0x1 PUSH1 0xB PUSH1 0x2 PUSH2 0x100 EXP DUP2 SLOAD DUP2 PUSH1 0xFF MUL NOT AND SWAP1 DUP4 ISZERO ISZERO MUL OR SWAP1 SSTORE POP DUP1 PUSH1 0xB PUSH1 0x0 PUSH2 0x100 EXP DUP2 SLOAD DUP2 PUSH1 0xFF MUL NOT AND SWAP1 DUP4 ISZERO ISZERO MUL OR SWAP1 SSTORE POP POP JUMP JUMPDEST CALLER PUSH20 0xFFFFFFFFFFFFFFFFFFFFFFFFFFFFFFFFFFFFFFFF AND PUSH1 0x1 PUSH1 0x0 SWAP1 SLOAD SWAP1 PUSH2 0x100 EXP SWAP1 DIV PUSH20 0xFFFFFFFFFFFFFFFFFFFFFFFFFFFFFFFFFFFFFFFF AND PUSH20 0xFFFFFFFFFFFFFFFFFFFFFFFFFFFFFFFFFFFFFFFF AND EQ PUSH2 0xFA0 JUMPI PUSH1 0x40 MLOAD PUSH32 0x8C379A000000000000000000000000000000000000000000000000000000000 DUP2 MSTORE PUSH1 0x4 ADD PUSH2 0xF97 SWAP1 PUSH2 0x1392 JUMP JUMPDEST PUSH1 0x40 MLOAD DUP1 SWAP2 SUB SWAP1 REVERT JUMPDEST PUSH1 0x5 SLOAD CALLVALUE EQ PUSH2 0xFE4 JUMPI PUSH1 0x40 MLOAD PUSH32 0x8C379A000000000000000000000000000000000000000000000000000000000 DUP2 MSTORE PUSH1 0x4 ADD PUSH2 0xFDB SWAP1 PUSH2 0x1BC1 JUMP JUMPDEST PUSH1 0x40 MLOAD DUP1 SWAP2 SUB SWAP1 REVERT JUMPDEST PUSH1 0xB PUSH1 0x4 SWAP1 SLOAD SWAP1 PUSH2 0x100 EXP SWAP1 DIV PUSH1 0xFF AND ISZERO PUSH2 0x1034 JUMPI PUSH1 0x40 MLOAD PUSH32 0x8C379A000000000000000000000000000000000000000000000000000000000 DUP2 MSTORE PUSH1 0x4 ADD PUSH2 0x102B SWAP1 PUSH2 0x1C2D JUMP JUMPDEST PUSH1 0x40 MLOAD DUP1 SWAP2 SUB SWAP1 REVERT JUMPDEST PUSH1 0x8 SLOAD TIMESTAMP GT PUSH2 0x1078 JUMPI PUSH1 0x40 MLOAD PUSH32 0x8C379A000000000000000000000000000000000000000000000000000000000 DUP2 MSTORE PUSH1 0x4 ADD PUSH2 0x106F SWAP1 PUSH2 0x1C99 JUMP JUMPDEST PUSH1 0x40 MLOAD DUP1 SWAP2 SUB SWAP1 REVERT JUMPDEST PUSH1 0x1 PUSH1 0xB PUSH1 0x4 PUSH2 0x100 EXP DUP2 SLOAD DUP2 PUSH1 0xFF MUL NOT AND SWAP1 DUP4 ISZERO ISZERO MUL OR SWAP1 SSTORE POP JUMP JUMPDEST PUSH1 0x8 SLOAD DUP2 JUMP JUMPDEST PUSH1 0xB PUSH1 0x5 SWAP1 SLOAD SWAP1 PUSH2 0x100 EXP SWAP1 DIV PUSH1 0xFF AND DUP2 JUMP JUMPDEST PUSH1 0xB PUSH1 0x3 SWAP1 SLOAD SWAP1 PUSH2 0x100 EXP SWAP1 DIV PUSH1 0xFF AND DUP2 JUMP JUMPDEST PUSH1 0x4 SLOAD DUP2 JUMP JUMPDEST PUSH1 0xB PUSH1 0x2 SWAP1 SLOAD SWAP1 PUSH2 0x100 EXP SWAP1 DIV PUSH1 0xFF AND DUP2 JUMP JUMPDEST PUSH1 0x1 PUSH1 0x0 SWAP1 SLOAD SWAP1 PUSH2 0x100 EXP SWAP1 DIV PUSH20 0xFFFFFFFFFFFFFFFFFFFFFFFFFFFFFFFFFFFFFFFF AND DUP2 JUMP JUMPDEST PUSH1 0xB PUSH1 0x4 SWAP1 SLOAD SWAP1 PUSH2 0x100 EXP SWAP1 DIV PUSH1 0xFF AND DUP2 JUMP JUMPDEST PUSH1 0xB PUSH1 0x6 SWAP1 SLOAD SWAP1 PUSH2 0x100 EXP SWAP1 DIV PUSH1 0xFF AND DUP2 JUMP JUMPDEST PUSH1 0x0 DUP2 ISZERO ISZERO SWAP1 POP SWAP2 SWAP1 POP JUMP JUMPDEST PUSH2 0x113B DUP2 PUSH2 0x1126 JUMP JUMPDEST DUP3 MSTORE POP POP JUMP JUMPDEST PUSH1 0x0 PUSH1 0x20 DUP3 ADD SWAP1 POP PUSH2 0x1156 PUSH1 0x0 DUP4 ADD DUP5 PUSH2 0x1132 JUMP JUMPDEST SWAP3 SWAP2 POP POP JUMP JUMPDEST PUSH1 0x0 DUP2 SWAP1 POP SWAP2 SWAP1 POP JUMP JUMPDEST PUSH2 0x116F DUP2 PUSH2 0x115C JUMP JUMPDEST DUP3 MSTORE POP POP JUMP JUMPDEST PUSH1 0x0 PUSH1 0x20 DUP3 ADD SWAP1 POP PUSH2 0x118A PUSH1 0x0 DUP4 ADD DUP5 PUSH2 0x1166 JUMP JUMPDEST SWAP3 SWAP2 POP POP JUMP JUMPDEST PUSH1 0x0 DUP1 REVERT JUMPDEST PUSH2 0x119E DUP2 PUSH2 0x1126 JUMP JUMPDEST DUP2 EQ PUSH2 0x11A9 JUMPI PUSH1 0x0 DUP1 REVERT JUMPDEST POP JUMP JUMPDEST PUSH1 0x0 DUP2 CALLDATALOAD SWAP1 POP PUSH2 0x11BB DUP2 PUSH2 0x1195 JUMP JUMPDEST SWAP3 SWAP2 POP POP JUMP JUMPDEST PUSH1 0x0 PUSH1 0x20 DUP3 DUP5 SUB SLT ISZERO PUSH2 0x11D7 JUMPI PUSH2 0x11D6 PUSH2 0x1190 JUMP JUMPDEST JUMPDEST PUSH1 0x0 PUSH2 0x11E5 DUP5 DUP3 DUP6 ADD PUSH2 0x11AC JUMP JUMPDEST SWAP2 POP POP SWAP3 SWAP2 POP POP JUMP JUMPDEST PUSH2 0x11F7 DUP2 PUSH2 0x115C JUMP JUMPDEST DUP2 EQ PUSH2 0x1202 JUMPI PUSH1 0x0 DUP1 REVERT JUMPDEST POP JUMP JUMPDEST PUSH1 0x0 DUP2 CALLDATALOAD SWAP1 POP PUSH2 0x1214 DUP2 PUSH2 0x11EE JUMP JUMPDEST SWAP3 SWAP2 POP POP JUMP JUMPDEST PUSH1 0x0 PUSH1 0x20 DUP3 DUP5 SUB SLT ISZERO PUSH2 0x1230 JUMPI PUSH2 0x122F PUSH2 0x1190 JUMP JUMPDEST JUMPDEST PUSH1 0x0 PUSH2 0x123E DUP5 DUP3 DUP6 ADD PUSH2 0x1205 JUMP JUMPDEST SWAP2 POP POP SWAP3 SWAP2 POP POP JUMP JUMPDEST PUSH1 0x0 PUSH20 0xFFFFFFFFFFFFFFFFFFFFFFFFFFFFFFFFFFFFFFFF DUP3 AND SWAP1 POP SWAP2 SWAP1 POP JUMP JUMPDEST PUSH1 0x0 PUSH2 0x1272 DUP3 PUSH2 0x1247 JUMP JUMPDEST SWAP1 POP SWAP2 SWAP1 POP JUMP JUMPDEST PUSH2 0x1282 DUP2 PUSH2 0x1267 JUMP JUMPDEST DUP3 MSTORE POP POP JUMP JUMPDEST PUSH1 0x0 PUSH1 0x20 DUP3 ADD SWAP1 POP PUSH2 0x129D PUSH1 0x0 DUP4 ADD DUP5 PUSH2 0x1279 JUMP JUMPDEST SWAP3 SWAP2 POP POP JUMP JUMPDEST PUSH2 0x12AC DUP2 PUSH2 0x1267 JUMP JUMPDEST DUP2 EQ PUSH2 0x12B7 JUMPI PUSH1 0x0 DUP1 REVERT JUMPDEST POP JUMP JUMPDEST PUSH1 0x0 DUP2 CALLDATALOAD SWAP1 POP PUSH2 0x12C9 DUP2 PUSH2 0x12A3 JUMP JUMPDEST SWAP3 SWAP2 POP POP JUMP JUMPDEST PUSH1 0x0 DUP1 PUSH1 0x40 DUP4 DUP6 SUB SLT ISZERO PUSH2 0x12E6 JUMPI PUSH2 0x12E5 PUSH2 0x1190 JUMP JUMPDEST JUMPDEST PUSH1 0x0 PUSH2 0x12F4 DUP6 DUP3 DUP7 ADD PUSH2 0x12BA JUMP JUMPDEST SWAP3 POP POP PUSH1 0x20 PUSH2 0x1305 DUP6 DUP3 DUP7 ADD PUSH2 0x1205 JUMP JUMPDEST SWAP2 POP POP SWAP3 POP SWAP3 SWAP1 POP JUMP JUMPDEST PUSH1 0x0 DUP3 DUP3 MSTORE PUSH1 0x20 DUP3 ADD SWAP1 POP SWAP3 SWAP2 POP POP JUMP JUMPDEST PUSH32 0x416374696F6E20616C6C6F776564206F6E6C7920746F207468652077696E6E65 PUSH1 0x0 DUP3 ADD MSTORE PUSH32 0x72206F66207468652061756374696F6E00000000000000000000000000000000 PUSH1 0x20 DUP3 ADD MSTORE POP JUMP JUMPDEST PUSH1 0x0 PUSH2 0x137C PUSH1 0x30 DUP4 PUSH2 0x130F JUMP JUMPDEST SWAP2 POP PUSH2 0x1387 DUP3 PUSH2 0x1320 JUMP JUMPDEST PUSH1 0x40 DUP3 ADD SWAP1 POP SWAP2 SWAP1 POP JUMP JUMPDEST PUSH1 0x0 PUSH1 0x20 DUP3 ADD SWAP1 POP DUP2 DUP2 SUB PUSH1 0x0 DUP4 ADD MSTORE PUSH2 0x13AB DUP2 PUSH2 0x136F JUMP JUMPDEST SWAP1 POP SWAP2 SWAP1 POP JUMP JUMPDEST PUSH32 0x57696E6E657220616C726561647920766F746564000000000000000000000000 PUSH1 0x0 DUP3 ADD MSTORE POP JUMP JUMPDEST PUSH1 0x0 PUSH2 0x13E8 PUSH1 0x14 DUP4 PUSH2 0x130F JUMP JUMPDEST SWAP2 POP PUSH2 0x13F3 DUP3 PUSH2 0x13B2 JUMP JUMPDEST PUSH1 0x20 DUP3 ADD SWAP1 POP SWAP2 SWAP1 POP JUMP JUMPDEST PUSH1 0x0 PUSH1 0x20 DUP3 ADD SWAP1 POP DUP2 DUP2 SUB PUSH1 0x0 DUP4 ADD MSTORE PUSH2 0x1417 DUP2 PUSH2 0x13DB JUMP JUMPDEST SWAP1 POP SWAP2 SWAP1 POP JUMP JUMPDEST PUSH32 0x416374696F6E20616C6C6F776564206F6E6C7920746F20746865206F776E6572 PUSH1 0x0 DUP3 ADD MSTORE PUSH32 0x206F66207468652061756374696F6E0000000000000000000000000000000000 PUSH1 0x20 DUP3 ADD MSTORE POP JUMP JUMPDEST PUSH1 0x0 PUSH2 0x147A PUSH1 0x2F DUP4 PUSH2 0x130F JUMP JUMPDEST SWAP2 POP PUSH2 0x1485 DUP3 PUSH2 0x141E JUMP JUMPDEST PUSH1 0x40 DUP3 ADD SWAP1 POP SWAP2 SWAP1 POP JUMP JUMPDEST PUSH1 0x0 PUSH1 0x20 DUP3 ADD SWAP1 POP DUP2 DUP2 SUB PUSH1 0x0 DUP4 ADD MSTORE PUSH2 0x14A9 DUP2 PUSH2 0x146D JUMP JUMPDEST SWAP1 POP SWAP2 SWAP1 POP JUMP JUMPDEST PUSH32 0x546865207061796D656E7420686173206E6F74206265656E20617070726F7665 PUSH1 0x0 DUP3 ADD MSTORE PUSH32 0x642062792074686520696E7465726D6564696172792079657400000000000000 PUSH1 0x20 DUP3 ADD MSTORE POP JUMP JUMPDEST PUSH1 0x0 PUSH2 0x150C PUSH1 0x39 DUP4 PUSH2 0x130F JUMP JUMPDEST SWAP2 POP PUSH2 0x1517 DUP3 PUSH2 0x14B0 JUMP JUMPDEST PUSH1 0x40 DUP3 ADD SWAP1 POP SWAP2 SWAP1 POP JUMP JUMPDEST PUSH1 0x0 PUSH1 0x20 DUP3 ADD SWAP1 POP DUP2 DUP2 SUB PUSH1 0x0 DUP4 ADD MSTORE PUSH2 0x153B DUP2 PUSH2 0x14FF JUMP JUMPDEST SWAP1 POP SWAP2 SWAP1 POP JUMP JUMPDEST PUSH32 0x596F7520616C726561647920636F6C6C656374656420746865207061796D656E PUSH1 0x0 DUP3 ADD MSTORE PUSH32 0x7400000000000000000000000000000000000000000000000000000000000000 PUSH1 0x20 DUP3 ADD MSTORE POP JUMP JUMPDEST PUSH1 0x0 PUSH2 0x159E PUSH1 0x21 DUP4 PUSH2 0x130F JUMP JUMPDEST SWAP2 POP PUSH2 0x15A9 DUP3 PUSH2 0x1542 JUMP JUMPDEST PUSH1 0x40 DUP3 ADD SWAP1 POP SWAP2 SWAP1 POP JUMP JUMPDEST PUSH1 0x0 PUSH1 0x20 DUP3 ADD SWAP1 POP DUP2 DUP2 SUB PUSH1 0x0 DUP4 ADD MSTORE PUSH2 0x15CD DUP2 PUSH2 0x1591 JUMP JUMPDEST SWAP1 POP SWAP2 SWAP1 POP JUMP JUMPDEST PUSH32 0x4E487B7100000000000000000000000000000000000000000000000000000000 PUSH1 0x0 MSTORE PUSH1 0x11 PUSH1 0x4 MSTORE PUSH1 0x24 PUSH1 0x0 REVERT JUMPDEST PUSH1 0x0 PUSH2 0x160E DUP3 PUSH2 0x115C JUMP JUMPDEST SWAP2 POP PUSH2 0x1619 DUP4 PUSH2 0x115C JUMP JUMPDEST SWAP3 POP DUP3 DUP3 SUB SWAP1 POP DUP2 DUP2 GT ISZERO PUSH2 0x1631 JUMPI PUSH2 0x1630 PUSH2 0x15D4 JUMP JUMPDEST JUMPDEST SWAP3 SWAP2 POP POP JUMP JUMPDEST PUSH32 0x4F776E6572732063616E6E6F742062696420696E207468652061756374696F6E PUSH1 0x0 DUP3 ADD MSTORE POP JUMP JUMPDEST PUSH1 0x0 PUSH2 0x166D PUSH1 0x20 DUP4 PUSH2 0x130F JUMP JUMPDEST SWAP2 POP PUSH2 0x1678 DUP3 PUSH2 0x1637 JUMP JUMPDEST PUSH1 0x20 DUP3 ADD SWAP1 POP SWAP2 SWAP1 POP JUMP JUMPDEST PUSH1 0x0 PUSH1 0x20 DUP3 ADD SWAP1 POP DUP2 DUP2 SUB PUSH1 0x0 DUP4 ADD MSTORE PUSH2 0x169C DUP2 PUSH2 0x1660 JUMP JUMPDEST SWAP1 POP SWAP2 SWAP1 POP JUMP JUMPDEST PUSH32 0x41756374696F6E20697320636C6F736564000000000000000000000000000000 PUSH1 0x0 DUP3 ADD MSTORE POP JUMP JUMPDEST PUSH1 0x0 PUSH2 0x16D9 PUSH1 0x11 DUP4 PUSH2 0x130F JUMP JUMPDEST SWAP2 POP PUSH2 0x16E4 DUP3 PUSH2 0x16A3 JUMP JUMPDEST PUSH1 0x20 DUP3 ADD SWAP1 POP SWAP2 SWAP1 POP JUMP JUMPDEST PUSH1 0x0 PUSH1 0x20 DUP3 ADD SWAP1 POP DUP2 DUP2 SUB PUSH1 0x0 DUP4 ADD MSTORE PUSH2 0x1708 DUP2 PUSH2 0x16CC JUMP JUMPDEST SWAP1 POP SWAP2 SWAP1 POP JUMP JUMPDEST PUSH32 0x42696420697320746F6F206C6F77000000000000000000000000000000000000 PUSH1 0x0 DUP3 ADD MSTORE POP JUMP JUMPDEST PUSH1 0x0 PUSH2 0x1745 PUSH1 0xE DUP4 PUSH2 0x130F JUMP JUMPDEST SWAP2 POP PUSH2 0x1750 DUP3 PUSH2 0x170F JUMP JUMPDEST PUSH1 0x20 DUP3 ADD SWAP1 POP SWAP2 SWAP1 POP JUMP JUMPDEST PUSH1 0x0 PUSH1 0x20 DUP3 ADD SWAP1 POP DUP2 DUP2 SUB PUSH1 0x0 DUP4 ADD MSTORE PUSH2 0x1774 DUP2 PUSH2 0x1738 JUMP JUMPDEST SWAP1 POP SWAP2 SWAP1 POP JUMP JUMPDEST PUSH1 0x0 PUSH2 0x1786 DUP3 PUSH2 0x115C JUMP JUMPDEST SWAP2 POP PUSH32 0xFFFFFFFFFFFFFFFFFFFFFFFFFFFFFFFFFFFFFFFFFFFFFFFFFFFFFFFFFFFFFFFF DUP3 SUB PUSH2 0x17B8 JUMPI PUSH2 0x17B7 PUSH2 0x15D4 JUMP JUMPDEST JUMPDEST PUSH1 0x1 DUP3 ADD SWAP1 POP SWAP2 SWAP1 POP JUMP JUMPDEST PUSH32 0x416374696F6E20616C6C6F776564206F6E6C7920746F2074686520696E746572 PUSH1 0x0 DUP3 ADD MSTORE PUSH32 0x6D656469617279206F66207468652061756374696F6E00000000000000000000 PUSH1 0x20 DUP3 ADD MSTORE POP JUMP JUMPDEST PUSH1 0x0 PUSH2 0x181F PUSH1 0x36 DUP4 PUSH2 0x130F JUMP JUMPDEST SWAP2 POP PUSH2 0x182A DUP3 PUSH2 0x17C3 JUMP JUMPDEST PUSH1 0x40 DUP3 ADD SWAP1 POP SWAP2 SWAP1 POP JUMP JUMPDEST PUSH1 0x0 PUSH1 0x20 DUP3 ADD SWAP1 POP DUP2 DUP2 SUB PUSH1 0x0 DUP4 ADD MSTORE PUSH2 0x184E DUP2 PUSH2 0x1812 JUMP JUMPDEST SWAP1 POP SWAP2 SWAP1 POP JUMP JUMPDEST PUSH32 0x5468652062696420686173206E6F74206265656E207061696420627920746865 PUSH1 0x0 DUP3 ADD MSTORE PUSH32 0x2077696E6E657220796574000000000000000000000000000000000000000000 PUSH1 0x20 DUP3 ADD MSTORE POP JUMP JUMPDEST PUSH1 0x0 PUSH2 0x18B1 PUSH1 0x2B DUP4 PUSH2 0x130F JUMP JUMPDEST SWAP2 POP PUSH2 0x18BC DUP3 PUSH2 0x1855 JUMP JUMPDEST PUSH1 0x40 DUP3 ADD SWAP1 POP SWAP2 SWAP1 POP JUMP JUMPDEST PUSH1 0x0 PUSH1 0x20 DUP3 ADD SWAP1 POP DUP2 DUP2 SUB PUSH1 0x0 DUP4 ADD MSTORE PUSH2 0x18E0 DUP2 PUSH2 0x18A4 JUMP JUMPDEST SWAP1 POP SWAP2 SWAP1 POP JUMP JUMPDEST PUSH32 0x4F776E657220686173206E6F7420617070726F7665642074686520696E746572 PUSH1 0x0 DUP3 ADD MSTORE PUSH32 0x6D65646961727900000000000000000000000000000000000000000000000000 PUSH1 0x20 DUP3 ADD MSTORE POP JUMP JUMPDEST PUSH1 0x0 PUSH2 0x1943 PUSH1 0x27 DUP4 PUSH2 0x130F JUMP JUMPDEST SWAP2 POP PUSH2 0x194E DUP3 PUSH2 0x18E7 JUMP JUMPDEST PUSH1 0x40 DUP3 ADD SWAP1 POP SWAP2 SWAP1 POP JUMP JUMPDEST PUSH1 0x0 PUSH1 0x20 DUP3 ADD SWAP1 POP DUP2 DUP2 SUB PUSH1 0x0 DUP4 ADD MSTORE PUSH2 0x1972 DUP2 PUSH2 0x1936 JUMP JUMPDEST SWAP1 POP SWAP2 SWAP1 POP JUMP JUMPDEST PUSH32 0x57696E6E657220686173206E6F7420617070726F7665642074686520696E7465 PUSH1 0x0 DUP3 ADD MSTORE PUSH32 0x726D656469617279000000000000000000000000000000000000000000000000 PUSH1 0x20 DUP3 ADD MSTORE POP JUMP JUMPDEST PUSH1 0x0 PUSH2 0x19D5 PUSH1 0x28 DUP4 PUSH2 0x130F JUMP JUMPDEST SWAP2 POP PUSH2 0x19E0 DUP3 PUSH2 0x1979 JUMP JUMPDEST PUSH1 0x40 DUP3 ADD SWAP1 POP SWAP2 SWAP1 POP JUMP JUMPDEST PUSH1 0x0 PUSH1 0x20 DUP3 ADD SWAP1 POP DUP2 DUP2 SUB PUSH1 0x0 DUP4 ADD MSTORE PUSH2 0x1A04 DUP2 PUSH2 0x19C8 JUMP JUMPDEST SWAP1 POP SWAP2 SWAP1 POP JUMP JUMPDEST PUSH32 0x5061796D656E7420616C726561647920617070726F7665640000000000000000 PUSH1 0x0 DUP3 ADD MSTORE POP JUMP JUMPDEST PUSH1 0x0 PUSH2 0x1A41 PUSH1 0x18 DUP4 PUSH2 0x130F JUMP JUMPDEST SWAP2 POP PUSH2 0x1A4C DUP3 PUSH2 0x1A0B JUMP JUMPDEST PUSH1 0x20 DUP3 ADD SWAP1 POP SWAP2 SWAP1 POP JUMP JUMPDEST PUSH1 0x0 PUSH1 0x20 DUP3 ADD SWAP1 POP DUP2 DUP2 SUB PUSH1 0x0 DUP4 ADD MSTORE PUSH2 0x1A70 DUP2 PUSH2 0x1A34 JUMP JUMPDEST SWAP1 POP SWAP2 SWAP1 POP JUMP JUMPDEST PUSH32 0x496E7465726D65646961727920616C7265616479207365740000000000000000 PUSH1 0x0 DUP3 ADD MSTORE POP JUMP JUMPDEST PUSH1 0x0 PUSH2 0x1AAD PUSH1 0x18 DUP4 PUSH2 0x130F JUMP JUMPDEST SWAP2 POP PUSH2 0x1AB8 DUP3 PUSH2 0x1A77 JUMP JUMPDEST PUSH1 0x20 DUP3 ADD SWAP1 POP SWAP2 SWAP1 POP JUMP JUMPDEST PUSH1 0x0 PUSH1 0x20 DUP3 ADD SWAP1 POP DUP2 DUP2 SUB PUSH1 0x0 DUP4 ADD MSTORE PUSH2 0x1ADC DUP2 PUSH2 0x1AA0 JUMP JUMPDEST SWAP1 POP SWAP2 SWAP1 POP JUMP JUMPDEST PUSH32 0x4F776E657220616C726561647920766F74656400000000000000000000000000 PUSH1 0x0 DUP3 ADD MSTORE POP JUMP JUMPDEST PUSH1 0x0 PUSH2 0x1B19 PUSH1 0x13 DUP4 PUSH2 0x130F JUMP JUMPDEST SWAP2 POP PUSH2 0x1B24 DUP3 PUSH2 0x1AE3 JUMP JUMPDEST PUSH1 0x20 DUP3 ADD SWAP1 POP SWAP2 SWAP1 POP JUMP JUMPDEST PUSH1 0x0 PUSH1 0x20 DUP3 ADD SWAP1 POP DUP2 DUP2 SUB PUSH1 0x0 DUP4 ADD MSTORE PUSH2 0x1B48 DUP2 PUSH2 0x1B0C JUMP JUMPDEST SWAP1 POP SWAP2 SWAP1 POP JUMP JUMPDEST PUSH32 0x596F75206D7573742070617920616E20616D6F756E7420657175616C20746F20 PUSH1 0x0 DUP3 ADD MSTORE PUSH32 0x74686520616D6F756E7420626964646564000000000000000000000000000000 PUSH1 0x20 DUP3 ADD MSTORE POP JUMP JUMPDEST PUSH1 0x0 PUSH2 0x1BAB PUSH1 0x31 DUP4 PUSH2 0x130F JUMP JUMPDEST SWAP2 POP PUSH2 0x1BB6 DUP3 PUSH2 0x1B4F JUMP JUMPDEST PUSH1 0x40 DUP3 ADD SWAP1 POP SWAP2 SWAP1 POP JUMP JUMPDEST PUSH1 0x0 PUSH1 0x20 DUP3 ADD SWAP1 POP DUP2 DUP2 SUB PUSH1 0x0 DUP4 ADD MSTORE PUSH2 0x1BDA DUP2 PUSH2 0x1B9E JUMP JUMPDEST SWAP1 POP SWAP2 SWAP1 POP JUMP JUMPDEST PUSH32 0x57696E6E657220616C7265616479207061696420746865206269640000000000 PUSH1 0x0 DUP3 ADD MSTORE POP JUMP JUMPDEST PUSH1 0x0 PUSH2 0x1C17 PUSH1 0x1B DUP4 PUSH2 0x130F JUMP JUMPDEST SWAP2 POP PUSH2 0x1C22 DUP3 PUSH2 0x1BE1 JUMP JUMPDEST PUSH1 0x20 DUP3 ADD SWAP1 POP SWAP2 SWAP1 POP JUMP JUMPDEST PUSH1 0x0 PUSH1 0x20 DUP3 ADD SWAP1 POP DUP2 DUP2 SUB PUSH1 0x0 DUP4 ADD MSTORE PUSH2 0x1C46 DUP2 PUSH2 0x1C0A JUMP JUMPDEST SWAP1 POP SWAP2 SWAP1 POP JUMP JUMPDEST PUSH32 0x5468652061756374696F6E20686173206E6F7420636C6F736564207965740000 PUSH1 0x0 DUP3 ADD MSTORE POP JUMP JUMPDEST PUSH1 0x0 PUSH2 0x1C83 PUSH1 0x1E DUP4 PUSH2 0x130F JUMP JUMPDEST SWAP2 POP PUSH2 0x1C8E DUP3 PUSH2 0x1C4D JUMP JUMPDEST PUSH1 0x20 DUP3 ADD SWAP1 POP SWAP2 SWAP1 POP JUMP JUMPDEST PUSH1 0x0 PUSH1 0x20 DUP3 ADD SWAP1 POP DUP2 DUP2 SUB PUSH1 0x0 DUP4 ADD MSTORE PUSH2 0x1CB2 DUP2 PUSH2 0x1C76 JUMP JUMPDEST SWAP1 POP SWAP2 SWAP1 POP JUMP INVALID LOG2 PUSH5 0x6970667358 0x22 SLT KECCAK256 0xA9 0xB9 SDIV EXTCODEHASH STATICCALL DUP3 0xB6 0xF 0x4E 0xEA POP 0xB8 PUSH5 0x7CD0FBED5D PUSH4 0x6BFD5D69 PUSH10 0xC9D96CF20CA1BC436473 PUSH16 0x6C634300081200330000000000000000 "
				},
				"gasEstimates": {
					"creation": {
						"codeDepositCost": "1481400",
						"executionCost": "infinite",
						"totalCost": "infinite"
					},
					"external": {
						"approvePayment()": "35529",
						"approvedByIntermediary()": "2654",
						"approvedByOwner()": "2495",
						"approvedByWinner()": "2566",
						"auctionDeadline()": "2540",
						"bid(uint256)": "infinite",
						"collectedByOwner()": "2653",
						"getBalance()": "407",
						"intermediary()": "2581",
						"minimumBid()": "2473",
						"noOfBids()": "2519",
						"noOfParticipants()": "2475",
						"owner()": "2622",
						"ownerVoted()": "2587",
						"paidByWinner()": "2631",
						"payBid()": "33146",
						"setIntermediary(address,uint256)": "51370",
						"voteOwner(bool)": "53436",
						"voteWinner(bool)": "53534",
						"winner()": "2602",
						"winnerVoted()": "2543",
						"winningBid()": "2518",
						"withdraw()": "infinite"
					}
				},
				"methodIdentifiers": {
					"approvePayment()": "96fd3409",
					"approvedByIntermediary()": "c1edb4f1",
					"approvedByOwner()": "0331de58",
					"approvedByWinner()": "a44dad5d",
					"auctionDeadline()": "ae91cd23",
					"bid(uint256)": "454a2ab3",
					"collectedByOwner()": "f7fbae45",
					"getBalance()": "12065fe0",
					"intermediary()": "79fd022e",
					"minimumBid()": "d3a86386",
					"noOfBids()": "13b0f944",
					"noOfParticipants()": "08726296",
					"owner()": "8da5cb5b",
					"ownerVoted()": "d3fe57c9",
					"paidByWinner()": "e3540196",
					"payBid()": "ab589529",
					"setIntermediary(address,uint256)": "9c1bfb6a",
					"voteOwner(bool)": "a483708f",
					"voteWinner(bool)": "333f6482",
					"winner()": "dfbf53ae",
					"winnerVoted()": "d20a6f1f",
					"winningBid()": "8cf80438",
					"withdraw()": "3ccfd60b"
				}
			},
			"storageLayout": {
				"storage": [
					{
						"astId": 3,
						"contract": "AuctionWithIntermediary.sol:AuctionWithIntermediary",
						"label": "owner",
						"offset": 0,
						"slot": "0",
						"type": "t_address"
					},
					{
						"astId": 5,
						"contract": "AuctionWithIntermediary.sol:AuctionWithIntermediary",
						"label": "winner",
						"offset": 0,
						"slot": "1",
						"type": "t_address"
					},
					{
						"astId": 7,
						"contract": "AuctionWithIntermediary.sol:AuctionWithIntermediary",
						"label": "intermediary",
						"offset": 0,
						"slot": "2",
						"type": "t_address"
					},
					{
						"astId": 9,
						"contract": "AuctionWithIntermediary.sol:AuctionWithIntermediary",
						"label": "auctionDescription",
						"offset": 0,
						"slot": "3",
						"type": "t_string_storage"
					},
					{
						"astId": 11,
						"contract": "AuctionWithIntermediary.sol:AuctionWithIntermediary",
						"label": "minimumBid",
						"offset": 0,
						"slot": "4",
						"type": "t_uint256"
					},
					{
						"astId": 13,
						"contract": "AuctionWithIntermediary.sol:AuctionWithIntermediary",
						"label": "winningBid",
						"offset": 0,
						"slot": "5",
						"type": "t_uint256"
					},
					{
						"astId": 15,
						"contract": "AuctionWithIntermediary.sol:AuctionWithIntermediary",
						"label": "noOfBids",
						"offset": 0,
						"slot": "6",
						"type": "t_uint256"
					},
					{
						"astId": 17,
						"contract": "AuctionWithIntermediary.sol:AuctionWithIntermediary",
						"label": "intermediaryComission",
						"offset": 0,
						"slot": "7",
						"type": "t_uint256"
					},
					{
						"astId": 19,
						"contract": "AuctionWithIntermediary.sol:AuctionWithIntermediary",
						"label": "auctionDeadline",
						"offset": 0,
						"slot": "8",
						"type": "t_uint256"
					},
					{
						"astId": 21,
						"contract": "AuctionWithIntermediary.sol:AuctionWithIntermediary",
						"label": "noOfParticipants",
						"offset": 0,
						"slot": "9",
						"type": "t_uint256"
					},
					{
						"astId": 31,
						"contract": "AuctionWithIntermediary.sol:AuctionWithIntermediary",
						"label": "participants",
						"offset": 0,
						"slot": "10",
						"type": "t_mapping(t_address,t_struct(Participant)26_storage)"
					},
					{
						"astId": 33,
						"contract": "AuctionWithIntermediary.sol:AuctionWithIntermediary",
						"label": "approvedByOwner",
						"offset": 0,
						"slot": "11",
						"type": "t_bool"
					},
					{
						"astId": 35,
						"contract": "AuctionWithIntermediary.sol:AuctionWithIntermediary",
						"label": "approvedByWinner",
						"offset": 1,
						"slot": "11",
						"type": "t_bool"
					},
					{
						"astId": 37,
						"contract": "AuctionWithIntermediary.sol:AuctionWithIntermediary",
						"label": "ownerVoted",
						"offset": 2,
						"slot": "11",
						"type": "t_bool"
					},
					{
						"astId": 39,
						"contract": "AuctionWithIntermediary.sol:AuctionWithIntermediary",
						"label": "winnerVoted",
						"offset": 3,
						"slot": "11",
						"type": "t_bool"
					},
					{
						"astId": 41,
						"contract": "AuctionWithIntermediary.sol:AuctionWithIntermediary",
						"label": "paidByWinner",
						"offset": 4,
						"slot": "11",
						"type": "t_bool"
					},
					{
						"astId": 43,
						"contract": "AuctionWithIntermediary.sol:AuctionWithIntermediary",
						"label": "approvedByIntermediary",
						"offset": 5,
						"slot": "11",
						"type": "t_bool"
					},
					{
						"astId": 45,
						"contract": "AuctionWithIntermediary.sol:AuctionWithIntermediary",
						"label": "collectedByOwner",
						"offset": 6,
						"slot": "11",
						"type": "t_bool"
					}
				],
				"types": {
					"t_address": {
						"encoding": "inplace",
						"label": "address",
						"numberOfBytes": "20"
					},
					"t_bool": {
						"encoding": "inplace",
						"label": "bool",
						"numberOfBytes": "1"
					},
					"t_mapping(t_address,t_struct(Participant)26_storage)": {
						"encoding": "mapping",
						"key": "t_address",
						"label": "mapping(address => struct AuctionWithIntermediary.Participant)",
						"numberOfBytes": "32",
						"value": "t_struct(Participant)26_storage"
					},
					"t_string_storage": {
						"encoding": "bytes",
						"label": "string",
						"numberOfBytes": "32"
					},
					"t_struct(Participant)26_storage": {
						"encoding": "inplace",
						"label": "struct AuctionWithIntermediary.Participant",
						"members": [
							{
								"astId": 23,
								"contract": "AuctionWithIntermediary.sol:AuctionWithIntermediary",
								"label": "amountBidded",
								"offset": 0,
								"slot": "0",
								"type": "t_uint256"
							},
							{
								"astId": 25,
								"contract": "AuctionWithIntermediary.sol:AuctionWithIntermediary",
								"label": "dateOfBid",
								"offset": 0,
								"slot": "1",
								"type": "t_uint256"
							}
						],
						"numberOfBytes": "64"
					},
					"t_uint256": {
						"encoding": "inplace",
						"label": "uint256",
						"numberOfBytes": "32"
					}
				}
			},
			"userdoc": {
				"kind": "user",
				"methods": {},
				"version": 1
			}
		}
	}
}